:020000040800F2
:100000003807002029020008230D00081D0B0008F6
:10001000210D0008110700086922000800000000F7
:10002000000000000000000000000000991400081B
:10003000A10800080000000029110008A915000807
:10004000430200084302000843020008430200087C
:10005000430200084302000843020008430200086C
:10006000430200084302000843020008430200085C
:10007000430200084302000843020008430200084C
:10008000430200084302000843020008430200083C
:10009000430200084302000843020008430200082C
:1000A000430200084302000843020008430200081C
:1000B0000916000843020008430200084302000832
:1000C00043020008430200084302000843020008FC
:1000D00043020008430200084302000815200008FC
:1000E00043020008430200084302000843020008DC
:1000F00043020008430200084302000843020008CC
:100100004302000843020008D51800084302000813
:1001100043020008430200084302000843020008AB
:10012000430200084302000843020008430200089B
:10013000430200084302000843020008430200088B
:10014000430200084302000843020008430200087B
:10015000430200084302000843020008430200086B
:10016000430200084302000843020008430200085B
:10017000430200084302000843020008430200084B
:10018000430200084302000800F002F800F03CF8C7
:100190000AA090E8000C82448344AAF10107DA45E2
:1001A00001D100F031F8AFF2090EBAE80F0013F0F8
:1001B000010F18BFFB1A43F001031847403100003C
:1001C00060310000103A24BF78C878C1FAD85207CD
:1001D00024BF30C830C144BF04680C6070470000C1
:1001E0000023002400250026103A28BF78C1FBD840
:1001F000520728BF30C148BF0B6070471FB503F0DE
:1002000077F81FBD10B510BD00F031F81146FFF7AB
:10021000F5FF02F0E5FA00F04FF803B4FFF7F2FF44
:1002200003BC00F057F80000094880470948004720
:10023000FEE7FEE7FEE7FEE7FEE7FEE7FEE7FEE796
:10024000FEE7FEE704480549054A064B70470000F3
:10025000AD1500088901000838010020380700208A
:1002600038030020380300207047704770477546F8
:1002700000F02CF8AE4605006946534620F0070012
:10028000854618B020B5FFF7DDFFBDE820404FF0F0
:1002900000064FF000074FF000084FF0000B21F070
:1002A0000701AC46ACE8C009ACE8C009ACE8C0093D
:1002B000ACE8C0098D46704710B50446AFF3008026
:1002C0002046BDE81040FFF7A8BF00000048704777
:1002D000D800002001491820ABBEFEE7260002002E
:1002E00070470029816802D041F0010101E021F04E
:1002F0000101816070470000084B10B5D3F804235A
:1003000007490A40D0E900142143D0E902400443E0
:1003100021431143C3F8041310BD00000020014025
:10032000E030FCFF0029816802D041F4807101E0D7
:1003300021F48071816070470029816802D041F406
:10034000007101E021F400718160704710B5012156
:100350000C02204600F00EFF2046BDE810400021B0
:1003600000F008BF30B542680F4B0C791A400B689B
:1003700042EA04221343436082680C4B4D791A40D1
:10038000D1E9034323438C6844EA450423431343E0
:100390008360C26A097D22F47002491EC9B242EA32
:1003A0000151C16230BD0000FFFEFFFCFDF7FFC040
:1003B00070B5072609290AD9C568A1F10A0404EB1A
:1003C0004404A640B543A3401D43C56007E005694A
:1003D00001EB4104A640B543A3401D4305611F2323
:1003E000072A09D2446B521E02EB820293409C43BF
:1003F00091400C43446370BD0D2A09D2046BD21F97
:1004000002EB820293409C4391400C43046370BD15
:10041000C46A0D3A02EB820293409C4391400C4324
:10042000C46270BD816841F0804181607047000006
:1004300070B5012500262C46002000F0AFFB08B166
:1004400005462C46012C04D0022C24D0032C44D089
:1004500069E002F01DF882A20121002000F0D6FC24
:1004600084A20121022000F0D1FC83A201210420FA
:1004700000F0CCFC81A20121062000F0C7FC80A284
:100480004221022000F0C2FC7EA24221042000F0A2
:10049000BDFC7DA242E001F0FBFF71A20121002022
:1004A00000F0B4FC79A20121022000F0AFFC78A298
:1004B0000121042000F0AAFC76A20121062000F010
:1004C000A5FC75A24221022000F0A0FC74A24221EA
:1004D000042000F09BFC74A220E001F0D9FF60A290
:1004E0000121002000F092FC71A20121022000F005
:1004F0008DFC71A20121042000F088FC70A2012172
:10050000062000F083FC70A24221022000F07EFC55
:100510006FA24221042000F079FC6EA24221062045
:1005200000F074FC00242EB1042D7DD0052001F0D4
:10053000E3FF81E7012D34D0022D5CD0032DF5D1EE
:100540000C2001F03DFF82B21F21022002F0A0F832
:100550000D2001F035FF82B21F21042002F098F82F
:100560000E2001F02DFF82B21F21062002F090F82C
:100570000F2001F025FF82B26021022002F088F8EE
:10058000032002F007F882B26021042002F070F824
:10059000042001F0FFFF82B26021062002F068F81B
:1005A000C4E7002001F00CFF82B21A21022002F001
:1005B0006FF8012001F004FF82B21A21042002F03A
:1005C00067F8022001F0FCFE82B21A21062002F038
:1005D0005FF8032001F0F4FE82B26021022002F0F5
:1005E00057F8042001F0ECFE82B26021042002F0F2
:1005F0004FF805202AE0062001F0E2FE82B21A211F
:10060000022002F045F8072001F0DAFE82B21A213A
:10061000042002F03DF8082001F0D2FE82B21A2137
:10062000062002F035F800E018E0092001F0C8FECD
:1006300082B26021022002F02BF80A2001F0C0FEF5
:1006400082B26021042002F023F80B2001F0B8FEF2
:1006500082B26021062002F01BF867E770BD00003F
:10066000202D414420446574656374696F6E2D20AC
:100670000000000041313D0041323D0041333D006A
:1006800041343D0041353D0041363D0041373D009C
:1006900041383D0041393D004131303D000000000E
:1006A0004131313D000000004131323D0000000089
:1006B0004131333D000000004131343D0000000075
:1006C0004131353D000000004131363D0000000061
:1006D00044333D0044343D007CB501208DF80400D6
:1006E00000228DF8062003218DF80510074D4FF4E8
:1006F00000648DF8070000946946284600F0D1F8A0
:100700002146284600F022F97CBD0000000C024082
:10071000FEE70029016802D041F0010101E021F06B
:1007200001010160704700002DE9F043016821F0EC
:10073000010101600021016041608160C1600161CF
:10074000212141613C493C4A3D251039904202D16A
:100750008D60BDE8F083384A4FF4746618329042D9
:1007600001D18E60F5E7344A4FF47417303290426D
:1007700001D18F60EDE7304A4FF0746C48329042FF
:1007800002D1C1F808C0E4E72B4B2C4A60339842F1
:1007900001D1CA60DDE7284C294B7834A04201D151
:1007A000CB60D6E7DFF89080264C08F190084045F2
:1007B00001D1CC60CDE7DFF880804FF03D5908F1E2
:1007C000A808404502D1C1F80C90C2E71E49DFF8E5
:1007D00078800839404501D10D60BAE71A4D1835C7
:1007E000A84201D10E60B4E7174D3035A84201D1BF
:1007F0000F60AEE7144D4835A84202D1C1F800C0E1
:10080000A7E7114D10496035091FA84201D10A60C0
:100810009FE70D4A7832904201D10B6099E70A4A6E
:100820009032904201D10C6093E7074AA83290427F
:100830008FD1C1F800908CE7106002403D0000208D
:10084000400F002000003D201064024030B50368D6
:10085000124ACC6813400A682243D1E905452C436B
:100860002243CC6922430C6A22434C6A22438C6A9D
:1008700022434C6B22438C6B22431A430260426931
:1008800022F00703D1E90B2422431A4342610A698B
:1008900042604A6882608968C16030BD3F801CF058
:1008A0007047F0B5002201274FF0030C0B6807FAE0
:1008B00002F52B40AB422CD1066853000CFA03F42E
:1008C000A64306600E79D0F800E09E4046EA0E0688
:1008D00006600E79012E01D0022E12D18668A64341
:1008E00086604E79D0F808E09E4046EA0E068660A3
:1008F0004668AE43466045688E799640B6B2354349
:100900004560C568A543C560CC799C40C3681C435D
:10091000C460521C102AC9D3F0BD4B07DB0E9A40AD
:10092000C90810B500EB8100016A0F249C40A14367
:100930000162016A1143016210BD02460020126982
:100940000A4200D0012070474183704701837047FD
:1009500070B500240C4E254610213046FFF7F4FFF9
:100960006006040E02213046FFF7E7FF08B1641C61
:10097000E4B210213046FFF7E9FF6D1CEDB2082DFF
:10098000EAD3204670BD0000001002402DE9F0417E
:100990003A48006801286FD13948006800286BD1B7
:1009A000DFF8E080D8F80000332811D001F070FDA6
:1009B00035A20121022000F029FA364803C800F0D0
:1009C00075F802F091F8344E306801280DD050E0EF
:1009D00001F05EFD31A20121022000F017FA01F0C2
:1009E00023FDBDE8F04102F05DB92F4F00247D42A8
:1009F0003846394600F05AF8284601F07DFD284671
:100A0000294600F053F830680128F8D1641C032C03
:100A1000EEDD3846394600F049F802F011F90024BD
:100A20002846294600F042F830680128F8D13846B7
:100A3000394600F03BF8284601F05EFD641C022CAC
:100A4000EEDD02F019F900242846294600F02EF8C0
:100A500030680128F8D13846394600F027F8284692
:100A600001F04AFD641C022CEEDD4FF4167001F01B
:100A700043FD0021C8F80010BDE8F0812C000020E3
:100A80004000002064000020D7B7D7D9B9A5BBF734
:100A9000000000004400002038000020BCBAB7BDB0
:100AA000C4DCC1BFBFE90000D4FEFFFF70B50D4636
:100AB0000646194C29E0B01A002802DD02F119029D
:100AC00002E002D5A2F1190222606068A5EB0001E4
:100AD000002902DD00F1190002E002D5A0F11900A1
:100AE000606011464FF0000001F0E8FE012021682F
:100AF00001F0E4FE0220616801F0E0FE032061687D
:100B000001F0DCFE0A2001F0F7FC2268B242D2D1EB
:100B10006068A842CFD170BD58000020FEE70000F9
:100B20007CB5002440208DF80440032500908DF80A
:100B3000055001268DF8076069461448FFF7B1FE9D
:100B400070028DF8044000908DF805508DF8076014
:100B500069460F48FFF7A5FE80208DF804400090FD
:100B60008DF805508DF8076069460A48FFF799FE31
:100B700070038DF8044000908DF805508DF80760E3
:100B800069460548FFF78DFE7CBD0000001002405D
:100B900000040240000C0240000802402DE9F04130
:100BA000234C244A244D254E254F012108B12170A4
:100BB00001E0207860B1D2F82402904668B1D5F8FF
:100BC0001C0250B1D6F8180238B1D7F8340220B15F
:100BD000D2F8240201281BD027E00A2001F08CFC67
:100BE00000202070D8F8240248B1D5F81C0248B182
:100BF000D6F8180240B1D7F8340238B115E0012018
:100C0000BDE8F0810220FBE70320F9E70420F7E7C5
:100C1000D5F81C02012808D1D6F81802012804D101
:100C2000D7F83402012800D121700020E8E7000045
:100C300054000020008040420080414200004242B7
:100C4000000041422DE9FC4101248DF804400026BA
:100C50004FF480508DF806600327DFF8488000903D
:100C60008DF805708DF8074069464046FFF719FE7C
:100C7000E50229464046FFF769FE8DF804408DF8ED
:100C800006608DF805708DF80740074C00956946A1
:100C90002046FFF706FE29462046FFF757FEBDE82F
:100CA000FC810000000002400010024010B54FF42B
:100CB000A06000F069F80121084600F037FA012130
:100CC000022000F033FA0121042000F02FFA012164
:100CD000082000F02BFA0121102000F027FAA820AC
:100CE00001F0F4FBFFF7F8FCFFF71AFF00F0F2F851
:100CF00000F00AFA40F2E7345321204600F0B4FC39
:100D000001F0F2FE5321204600F0E6FF01F0F6FE6E
:100D1000FFF798FF00F082FABDE8104001F0B0B98B
:100D2000FEE7704730B50F23C27801780125FAB18C
:100D3000144A126801F1E02102F4E062C2F5E062B7
:100D4000C2F30722C2F10404D3404278A24084785F
:100D50001C401443220181F80024007800F01F0198
:100D60008D404009800000F1E020C0F8005130BD06
:100D700001F01F0085404809800000F1E020C0F824
:100D8000805130BD0CED00E0024908430249086083
:100D9000704700000000FA050CED00E02DE9F0417D
:100DA00015460F4680460026F9B208F0FF0000F015
:100DB00067F900242878012100F030F9641CE4B2BE
:100DC0006D1C102CF6D3761CF6B27F1C022EEBD3D2
:100DD000BDE8F0812DE9F04115460F46804600261A
:100DE000F9B2404600F04CF900242878012100F0C7
:100DF00015F9641CE4B26D1C082CF6D3761CF6B20F
:100E00007F1C022EECD3BDE8F08100002DE9F043F9
:100E10008DB016460D46814600244FF020082B4F1A
:100E20004DE0A0F1B00147290AD832195378A12B1F
:100E300006D35E2041433960507801F2AD210CE0C9
:100E4000A0F1A10102291FD832195378A12B1BD37D
:100E50005E20414339605078A13908444001386030
:100E6000C0F3074CC0F30721C2B201AB6046CDF816
:100E7000008000F01BF901AA49462846FFF78EFFC3
:100E80001035EDB2A41C19E020385E2815D81049A1
:100E900009AB01EB0010C0F3074CC0F30721C2B24D
:100EA000386010200090604600F000F909AA494619
:100EB0002846FFF78FFF0835EDB2641CE4B2305DC1
:100EC0000028AED10DB0BDE8F08300005000002036
:100ED00080CF03002DE9FC410121102000F026F90C
:100EE00001248DF8044000253F208DF8065003268C
:100EF000494F00908DF805608DF8074069463846E7
:100F0000FFF7CFFC8DF8045002208DF806500090BA
:100F10008DF805608DF8074069463846FFF7C1FC3B
:100F20003F213846FFF712FDC82001F0E5FA002105
:100F3000AE2000F073F80021084600F06FF80021A1
:100F4000102000F06BF80021402000F067F800212D
:100F5000812000F063F80021CF2000F05FF800212D
:100F6000A12000F05BF80021C82000F057F8002114
:100F7000A62000F053F80021A82000F04FF800212F
:100F80003F2000F04BF80021D32000F047F800216B
:100F9000084600F043F80021D52000F03FF800217A
:100FA000802000F03BF80021D92000F037F8002124
:100FB000F12000F033F80021DA2000F02FF80021B2
:100FC000122000F02BF80021DB2000F027F8002190
:100FD000402000F023F80021202000F01FF800211D
:100FE000022000F01BF800218D2000F017F80021EE
:100FF000142000F013F80021A42000F00FF80021C5
:10100000A62000F00BF80021AF2000F007F801F057
:101010003FFABDE8FC8100000010024070B5174E99
:10102000054600294FF00801304602D0FFF78EFC3C
:1010300001E0FFF789FC04213046FFF785FC00241E
:1010400010213046FFF780FC28064FF02001304683
:1010500002D5FFF77BFC01E0FFF776FC102130465C
:10106000FFF774FC641C6D00E4B2082CE8D3304632
:10107000BDE870400821FFF769BC00000010024085
:1010800010B50A460446002102F1B000FFF7C6FF82
:10109000102040EA14100021FFF7C0FF04F00F00F9
:1010A000BDE810400021FFF7B9BF00002DE9F0476F
:1010B000144F894604461D46904604213846089E32
:1010C000FFF744FC01213846FFF73EFC032000F007
:1010D000E5F9204600F0E2F9484600F0DFF9404625
:1010E00000F0DCF9002404E0FFF732FC2855641C12
:1010F000E4B2B442F8D33846BDE8F0470121FFF727
:1011000025BC00000010024010B540F2E734532126
:10111000204600F0D3FA5321204600F055FBBDE8ED
:101120001040012001F04EBB70470000044A002926
:10113000116801D0014300E0814311607047000055
:1011400030380240044A0029116801D0014300E010
:10115000814311607047000040380240044A002972
:10116000116801D0014300E0814311607047000025
:1011700044380240044A0029116801D0014300E0CC
:1011800081431160704700002438024070B5204B45
:101190001968204C11F00C0104D06610042903D00A
:1011A000082903D004601BE0066019E0184A121FEA
:1011B0001168C1F38055116801F03F0115B1B6FB0C
:1011C000F1F101E0B4FBF1F114681268C4F3881482
:1011D0006143C2F30142521C5200B1FBF2F10160C3
:1011E00019680F2202EA11110B4A545C0168E140B0
:1011F00041601C68072505EA9424145D21FA04F473
:1012000084601B6805EA5333D25CD140C16070BD75
:10121000083802400024F400680000202DE9F04363
:1012200001219BB08805FFF781FF3F200325DFF8F0
:10123000489200908DF8045000248DF807406946CC
:101240004846FFF72EFBFF20DFF8308200908DF834
:1012500004508DF8074069464046FFF722FB884F4F
:101260008DF8045000958DF8074069463846FFF721
:1012700018FB4FF280708DF8044000908DF80550F7
:1012800001268DF8076069467E48FFF70AFB4FF696
:1012900004408DF8044000908DF805508DF80760EB
:1012A00069463846FFF7FDFA40F21F708DF804409A
:1012B00000908DF805508DF8076069467248FFF779
:1012C000F0FAF0038DF8044000908DF805508DF889
:1012D000076069464046FFF7E4FA30038DF80440A2
:1012E00000908DF805508DF8076069464846FFF775
:1012F000D8FA01210F023846FFF73CFF002138469B
:10130000FFF738FFDFF884814046FFF70DFA6048A9
:1013100004A9CDE902405F48102581E83100A80109
:10132000CDE90740400009908000CDE90A070CA9EB
:10133000000181E851000F9402A940461094FFF784
:1013400085FA01214046FFF7E4F901213846FFF70D
:1013500005FF01213846FFF70DFF00213846FFF752
:1013600009FFFEF7F3FF2803CDE91804179417A827
:101370001A94FEF7C1FF119413941594444C8DF800
:1013800048604C3C8DF849608DF8585011A92046B2
:10139000FEF7E8FF0323012200212046FFF708F8AB
:1013A0000323022201212046FFF702F803231A46F5
:1013B00002212046FEF7FCFF0323042219462046A3
:1013C000FEF7F6FF0323052204212046FEF7F0FF77
:1013D0000323062205212046FEF7EAFF0323072206
:1013E00006212046FEF7E4FF0323082207212046BA
:1013F000FEF7DEFF0323092208212046FEF7D8FF6F
:1014000003230A2209212046FEF7D2FF03230B22E1
:101410000A212046FEF7CCFF03230C220B21204695
:10142000FEF7C6FF03230D220C212046FEF7C0FF66
:1014300003230E220D212046FEF7BAFF03230F22BD
:101440000E212046FEF7B4FF032310220F21204671
:10145000FEF7AEFF01212046FEF76EFF0121204678
:10146000FEF760FF01212046FEF73BFF2046FEF716
:10147000D9FF1BB0BDE8F083000802400000024025
:101480000004024000100240000C024010640240C0
:101490004C200140B80000207047000070B50E4E8F
:1014A0000546002428064FF02001304602D5FFF7FC
:1014B0004DFA01E0FFF748FA6806050E10213046A4
:1014C000FFF742FA10213046FFF740FA641CE4B2FD
:1014D000082CE7D370BD0000001002400CB50022BC
:1014E000274900920192086840F4803008604FF468
:1014F000A043086800F4003001900098401C009060
:10150000019810B900989842F3D10868800334D547
:10151000012001901A484030026842F08052026077
:101520001848026842F440420260154808300268D8
:101530000260026842F400420260026842F4A05273
:101540000260031F104A1A600A6842F080720A6043
:101550000A689201FCD50D4940F205720A600168E3
:1015600021F003010160016841F00201016001689E
:10157000C1F381010229FAD10CBD01920CBD00001A
:10158000003802400070004008544007003C024010
:101590004FF0E0210428086903D020F0040008611E
:1015A000704740F00400FAE770470000124810B599
:1015B000016841F4700101601048016841F00101C7
:1015C00001600E4A00210832116002680C4B1A407B
:1015D0000260031D0B4A1A60026822F48022026036
:1015E00006480C300160FFF779FF03494FF00060B7
:1015F0008039086010BD000088ED00E0003802402E
:10160000FFFFF6FE1030002410B501218C072046A4
:1016100000F0A3FB01281CD1114A107801280BD13E
:101620005089401C81B25181C82905D30D49002041
:10163000C1F8AC02107050811069401E10615088D2
:10164000401C81B25180B1F57A7F02D19088401C54
:1016500090802046BDE81040012100F071BB0000E1
:1016600000000020008041427FB50D460446012164
:101670000846FFF767FD00200194ADF80050ADF873
:101680000200ADF808004FF080446946204600F0A3
:101690007FFC01221146204600F06BFB1C208DF8D8
:1016A0000C0001208DF80D0003218DF80E108DF82F
:1016B0000F0003A8FFF736FB7FBD00002DE9F041C6
:1016C0000E4680468AB001210220FFF73BFD3C4FC9
:1016D000022206213846FFF720F902220721384668
:1016E000FFF71BF9022208213846FFF716F90222FC
:1016F00009213846FFF711F94FF470700590022068
:101700008DF8180003208DF8190000248DF81A4078
:1017100001258DF81B5005A93846FFF7C2F8294F5F
:10172000ADF81C60ADF81E40CDF82080ADF8244027
:1017300007A9384600F02CFC6026ADF80060ADF833
:101740000250ADF80C406946384600F01BFBADF87E
:101750000060ADF80250ADF80C406946384600F024
:1017600047FBADF80060ADF80250ADF80C4069469B
:10177000384600F087FBADF80060ADF80250ADF8D8
:101780000C406946384600F0C1FB0821384600F09D
:1017900029FB0821384600F06BFB0821384600F091
:1017A000AFFB0821384600F0E1FB0121384600F08C
:1017B000BDFA0121384600F0C6FA0AB0BDE8F08152
:1017C00000080240000400402DE9F0410E4680462A
:1017D0008AB001210420FFF7B5FC3C4F02220C2106
:1017E0003846FFF79AF802220D213846FFF795F8A0
:1017F00002220E213846FFF790F802220F213846C8
:10180000FFF78BF84FF47040059002208DF8180018
:1018100003208DF8190000248DF81A4001258DF859
:101820001B5005A93846FFF73CF8294FADF81C605E
:10183000ADF81E40CDF82080ADF8244007A9384609
:1018400000F0A6FB6026ADF80060ADF80250ADF8E0
:101850000C406946384600F095FAADF80060ADF8E6
:101860000250ADF80C406946384600F0C1FAADF8B8
:101870000060ADF80250ADF80C406946384600F003
:1018800001FBADF80060ADF80250ADF80C406946C0
:10189000384600F03BFB0821384600F0A3FA082147
:1018A000384600F0E5FA0821384600F029FB082107
:1018B000384600F05BFB0121384600F037FA012181
:1018C000384600F040FA0AB0BDE8F081000C024052
:1018D000000800402DE9F04FDFF8ECB38BB0012198
:1018E000584600F03AFA0025F84C4FF47A7901286E
:1018F0007ED1022000F064FD4FF4BE770126B8428D
:1019000004D3032000F05CFDB84201D2A66300E0DE
:10191000A563042000F054FD4FF49677B84204D339
:10192000052000F04DFDB84201D2266400E0256498
:10193000022000F045FDB846404530D2032000F0BB
:101940003FFD4746B8422AD2042000F039FDB84294
:1019500025D2052000F034FDB84220D2082000F046
:101960002FFD4F46B84204D9092000F029FDB842A6
:1019700013D8062000F024FDB84204D90B2000F053
:101980001FFDB84209D8072000F01AFDB84206D959
:101990000A2000F015FDB84201D9E66114E00220EA
:1019A00000F00EFDC8280FD9032000F009FDC8285B
:1019B0000AD9042000F004FDC82805D9052000F04C
:1019C000FFFCC82800D9E561022000F0F9FC64287A
:1019D00004D2042000F0F4FC64280BD3032000F0B0
:1019E000EFFC642808D2052000F0EAFC642800E03F
:1019F00053E101D2266200E02562062000F0E0FCFF
:101A000048451CD9072000F0DBFC484517D90620C3
:101A100000F0D6FC0746072000F0D2FC381A4FF43D
:101A2000AF7A504509DB072000F0CAFC07460620C4
:101A300000F0C6FC381A504501DAE66200E0E562C3
:101A4000082000F0BDFC40F24C47B84209D80C20F9
:101A500000F0B6FCB84204D80E2000F0B1FCB84249
:101A600001D9666200E06562092000F0A9FCB84275
:101A700009D80D2000F0A4FCB84204D80F2000F0D3
:101A80009FFCB84201D9A66200E0A5620E2000F0DA
:101A900097FCB84206D90F2000F092FCB84201D959
:101AA000266300E02563062000F08AFC4FF4966769
:101AB000B84231D9072000F083FCB8422CD90A2063
:101AC00000F07EFC4F46B84226D90B2000F078FC8F
:101AD000B84221D90E2000F073FC4FF42F77B842A2
:101AE0001AD20F2000F06CFCB84215D2072000F08B
:101AF00067FC0746062000F063FC381A404509DB06
:101B0000072000F05DFC0746062000F059FC381A5B
:101B1000404501DA666300E06563002000F050FC98
:101B20004FF4C877C8280ED3012000F049FCC8281C
:101B300009D3022000F044FCB84206D2032000F092
:101B40003FFCB84201D2E66300E0E563062000F006
:101B500037FC0090072000F033FC0190082000F0D3
:101B60002FFC0290092000F02BFC03900A2000F0CB
:101B700027FC04900B2000F023FC05900C2000F0C3
:101B80001FFC06900D2000F01BFC07900E2000F0BB
:101B900017FC08900F2000F013FC09900023009917
:101BA0000120EC465CF820208A4201DD1146034604
:101BB0009A1D401C0B28F5DBB1F5487F5FDD921FB5
:101BC0004FF006080A2A4AD2DFE802F0051424275B
:101BD00029384F525457072000F0F2FB06460620E2
:101BE00000F0EEFB314600F0CFFBB8420EDB4FF0C9
:101BF000FF3033E0072000F0E3FB8046062000F0D2
:101C0000DFFB414600F0C0FBB84201DA656126E027
:101C1000666124E06FF0020020E003201EE00B204C
:101C200000F0CEFB06460A2000F0CAFB314600F069
:101C3000ABFBB8420EDB6FF004000FE00B2000F0AE
:101C4000BFFB06460A2000F0BBFB314600F09CFBC0
:101C5000B84202DAC4F8148001E005206061002176
:101C6000606900F0D3F9A0610BE06FF00100F5E7C7
:101C70000220F3E76FF00300F0E70420EEE7656170
:101C8000A069134A00F5C871C0F5C8701160114908
:101C900008600121584600F053F8E068401CE060FD
:101CA000484503DDE5600BB0BDE8F08FB0F5FA7F85
:101CB00004DA0BB0BDE8F04F00F0CEBB0BB0BDE8CE
:101CC000F04F00F0E3BB0000000C004000000020DB
:101CD00044000020480000207FB50D460446012145
:101CE0000820FFF72FFA01940020ADF800500E4CA9
:101CF000ADF80200ADF808006946204600F048F94A
:101D000001221146204600F034F832208DF80C00F4
:101D100001208DF80D0003218DF80E108DF80F00B5
:101D200003A8FEF7FFFF7FBD000C004000290188DB
:101D300002D041F0800101E021F080010180704774
:101D4000C943018270470029018802D041F0010196
:101D500001E021F001010180704702460020138A52
:101D600092890B4202EA010202D0002A00D001202F
:101D70007047002A828901D00A4300E08A438281A9
:101D80007047000030B5028C22F001020284028C00
:101D90008388048B22F0020224F073050C882C4304
:101DA0008D8915434A882A430C4DA84202D00C4D18
:101DB000A8420DD122F00805CA8923F440732A43B2
:101DC00022F004058A882A430D8A1D434B8A2B433F
:101DD0008380048389684163028430BD0000014030
:101DE00000040140028B22F008020A43028370477C
:101DF00070B5028C22F010020284028C8388048B5E
:101E00000D8824F4E6464FF6FF7404EA05253543B1
:101E10008E8922F0200204EA061616434A8804EA54
:101E200002123243104EB04202D0104EB04215D1D1
:101E300022F08006CA8923F4406304EA0212324386
:101E400022F040068A8804EA021232430E8A04EA2B
:101E500086061E434B8A04EA83033343838005834B
:101E600089688163028470BD000001400004014064
:101E7000028B4FF6FF7322F4006203EA0121114343
:101E80000183704770B5028C22F480720284028C48
:101E90008388848B0D8824F0730425438E894FF644
:101EA000FF7422F4007204EA062616434A8804EA04
:101EB00002223243104EB04202D0104EB04215D131
:101EC00022F40066CA8923F4405304EA0222324312
:101ED00022F480668A8804EA022232430E8A04EAE7
:101EE00006161E434B8A04EA03133343838085831B
:101EF0008968C163028470BD000001400004014094
:101F0000828B22F008020A438283704770B5028CEC
:101F100022F480520284058C8288838B0C8823F4FF
:101F2000E6464FF6FF7303EA0424344325F40056D3
:101F30008D8903EA053535434E8803EA06362E437C
:101F4000084DA84202D0084DA84205D122F4804590
:101F50000A8A03EA82122A438280848389680164A0
:101F6000068470BD0000014000040140828B4FF6E2
:101F7000FF7322F4006203EA012111438183704759
:101F80004163704781637047C16370470164704764
:101F900030B50288164C174DA0420DD0A8420BD088
:101FA000B0F1804F08D0144B984205D0134B9842A3
:101FB00002D0134B984203D122F070034A881A438F
:101FC000104B984206D0104B984203D022F4407335
:101FD0000A891A4302804A68C2620A880285A042BE
:101FE00001D0A84201D1897A01860121818230BDC8
:101FF00000000140000401400004004000080040CF
:10200000000C00400010004000140040401A322133
:102010004843704770B5184D40F22551284600F0EE
:1020200091F8002826D0062000F0CAF94FF47A74FF
:10203000A0421FD9072000F0C3F9A0421AD90620F8
:1020400000F0BEF90446072000F0BAF9201A4FF458
:10205000AF76B04209DB072000F0B2F90446062053
:1020600000F0AEF9201AB04204DA284600F0F8F881
:102070000249086070BD0000004800406400002074
:10208000F0B5012187B08804FFF75CF80121042036
:10209000FFF74CF8244D0121284600F049F80024B0
:1020A0004FF4E1300090ADF808400C20ADF804404A
:1020B000ADF80A00ADF80640ADF80C406946284678
:1020C00000F078F8012240F22551284600F059F836
:1020D000164F07220A213846FEF71FFC07220B2164
:1020E0003846FEF71AFC4FF44060022604908DF843
:1020F000146003208DF8150001258DF817508DF818
:10210000164004A93846FEF7CCFB27208DF81800AE
:102110008DF819608DF81A508DF81B5006A8FEF73F
:1021200001FE07B0F0BD000000480040000802407A
:102130000029818902D041F4005101E021F40051CD
:102140008181704770B501F01F0501260024C1F39D
:10215000421306FA05F2012B0FD0022B0FD0838A0F
:102160004FEA11210088134206FA01F600EA060040
:1021700001D000B10124204670BD8389F0E7038AB5
:10218000EEE710B5C1F3421301F01F040121A14095
:10219000012B07D0022B07D01430002A026805D08B
:1021A0000A4304E00C30F8E71030F6E78A43026097
:1021B00010BD00007FB50446008A0D46C98820F492
:1021C000405001432182A08941F20C618843A988D3
:1021D0002A8911436A8902431143A181A08A20F40C
:1021E0004071A8890843A0826846FEF7CFFF1A48CD
:1021F000844202D01948844201D1039800E0029839
:10220000A189090400EBC00101EB0010296801D588
:10221000490000E08900B0FBF1F06422B0FBF2F16C
:1022200009010B096FF018056B4300EB8300A389CC
:102230001D044FF0320306D503EBC000B0FBF2F0F3
:1022400000F0070005E003EB0010B0FBF2F000F037
:102250000F00084320817FBD0010014000140140A1
:102260008088C0F308007047FEE700002DE9F041C8
:102270006FF031084FF47A75354C364F364E5FE0CB
:102280003868012816D000F003F934A20121022099
:10229000FEF7BCFD3348006801280ED032480068C4
:1022A00001281FD031480068012830D0206801285B
:1022B00042D043E000F0B8F842E000F015FC00F036
:1022C000E7F82BA201210220FEF7A0FD962140464F
:1022D000FEF7ECFB03E000F033FBA84230D82068A7
:1022E00070BBF8E700F000FC00F0D2F822A2012158
:1022F0000220FEF78BFD41469620FEF7D7FB03E058
:1023000000F01EFBA8421BD82068C8B9F8E700F00F
:10231000EBFB00F0BDF81AA201210220FEF776FDCA
:102320004146C820FEF7C2FB03E000F009FBA842CB
:1023300006D8206820B9F8E7386830B100F008FA0C
:10234000306800289CD0BDE8F081FEF71FFBF7E75E
:102350002C000020380000201C000020CCA8C9CF91
:102360000000000024000020280000203000002091
:10237000D7F3B2E000000000D3D2B2E000000000CA
:10238000BAF3B7BD000000000246401A00D5881A13
:10239000704770B50C4601461D461646002000F0F9
:1023A0008DFA2146012000F089FA3146022000F022
:1023B00085FA2946BDE87040032000F07FBA00008E
:1023C00010B50024102826D2DFE800F0080A0C0E11
:1023D0002510121416181A1C1E2022240A241AE092
:1023E0000B2418E00C2416E00D2414E0012412E064
:1023F000022410E003240EE004240CE005240AE08B
:10240000062408E0072406E00E2404E00F2402E07E
:10241000082400E00924204600F064F9014830F85F
:10242000140010BD7800002070B500F05DFB084D71
:10243000084C4FF4FA7628462946FEF737FB00F0A1
:102440007FFAB04202D820680128F4D170BD0000A4
:1024500070FEFFFF4000002000F00CB80349002090
:1024600008700349C1F8AC0270470000000000206A
:10247000008041420349012008700349C1F8AC02C1
:10248000704700000000002000804142FFF7E6BFD7
:1024900070B50025002105F1B000FEF7BFFD002159
:1024A0001020FEF7BBFD00210846FEF7B7FD002413
:1024B00001210020FEF7B2FD641CE4B2802CF7D3AA
:1024C0006D1CEDB2082DE5D370BD000010B50446BB
:1024D0006FF00400FFF75CF80649E00800EB4002EB
:1024E0000870C2EBC0104FF6FF7202EAC0004880CD
:1024F00010BD00006000002070B54FF40776B0FBFF
:10250000F6F1CCB2B0FBF6F106FB110504E0304663
:1025100000F026F8641EE4B2002CF8D1002D04D09F
:102520002846BDE8704000F01BB870BD0B49097823
:1025300048434FF0E021486100238B61086940F077
:10254000010008610869C20701D0C003FAD5086913
:1025500020F0010008618B617047000060000020DE
:102560000B49498848434FF0E021486100238B61C3
:10257000086940F0010008610869C20701D0C00382
:10258000FAD5086920F0010008618B6170470000EE
:102590006000002030B504460020304B3049314AFD
:1025A0001A2C12D2DFE804F00D12171A1D11202385
:1025B00026292C2F3235383B3E414447494B4E515A
:1025C0005457D3F8081203E0012030BDD1F81C1293
:1025D0000129F9D030BDD1F82012F9E7D1F8241241
:1025E000F6E7D1F82812F3E7D1F83012F0E7D1F886
:1025F0003412EDE7D1F83812EAE7D1F83C12E7E7F8
:10260000D3F82812E4E7D3F82C12E1E7D3F830121C
:10261000DEE7D3F83412DBE7D3F83812D8E7D3F883
:102620003C12D5E7D2F82012D2E7D2F82412CFE735
:10263000D2F82812CCE70C49DFE70C49D4E7D2F8EE
:102640000012C5E7D2F80412C2E7D2F80812BFE7B9
:10265000D2F80C12BCE7D2F81012B9E70080404261
:1026600000004242008041420000404200004142DE
:1026700038B50A23B2FBF3F403FB142230328DF891
:10268000002000228DF801206A46FEF7BFFB38BD0E
:102690001CB54FF47A73B2FBF3F430348DF800407C
:1026A000B2FBF3F403FB14246423B4FBF3F43034DF
:1026B0008DF80140B2FBF3F403FB14240A23B4FBAE
:1026C000F3F430348DF80240B2FBF3F403FB142230
:1026D00030328DF8032000228DF804206A46FEF780
:1026E00095FB1CBD70B5154D04462DED028B05F113
:1026F000200135F8140021F81400203131F814605D
:1027000000F0FBFB9FED0E1B53EC112B00F008FCBF
:1027100041EC180B304600F0F0FB9FED0B1B53EC27
:10272000112B00F0FDFB53EC182B00F011FB00F017
:10273000B7FB25F81400BDEC028B70BD78000020BB
:10274000989999999999C93F9A9999999999E93F2D
:102750002DE9F041144C154D154E164FDFF85880F9
:1027600011E0FFF795FE15A203210020FEF74EFBB6
:10277000C8210846FEF79AF9206801280ED0C82122
:102780000846FEF793F9286831680843396808431A
:10279000D8F800100843E4D0BDE8F081FFF744FE0C
:1027A000BDE8F04100F07EBA380000202C00002087
:1027B000240000202800002030000020D1B2CCA846
:1027C00000000000054A012805D0002805D100219D
:1027D0001046FFF7B8BA0121FAE770470008004039
:1027E000FEF764FA00F072F9274C0020FEF7D6F9E4
:1027F0002070607025A201210020FEF707FB26A2B1
:1028000001210220FEF702FB26A201210420FEF78F
:10281000FDFA27A201210620FEF7F8FA0020FEF7B4
:10282000BDF9207000B160706078012808D00228DE
:1028300009D003281ED00428D7D1FFF729FED4E7FA
:1028400000F068F9D1E700F081F8FFF721FE4FF4BE
:1028500048740820FFF7B4FDA042FAD90920FFF719
:10286000AFFDA042F5D900F033FAFFF7FFFC00F00E
:1028700075F8FAE7FFF70CFE0F4C0121208882B2B1
:102880000220FFF705FFF8E74C00002031A1A2B2BB
:10289000E2C1BFC4A3CABD0032A1A2C6F4B6AFB3A1
:1028A000CCD0F20033A1A2C9E3CFF1BCECB2E2007C
:1028B00034A1A2B7B5BBD8006400002010B540F227
:1028C000B632914202DC5242914200DA11461A4C71
:1028D00088B1012804D0194C02280CD0032829D132
:1028E00000291DDB2046FFF74FFB2046BDE81040C6
:1028F0000021FFF74BBB002908DB2046FFF740FB18
:102900002046BDE810400021FFF73CBB494220466D
:10291000FFF738FB2046BDE810400021FFF730BB31
:1029200049422046FFF732FB2046BDE81040002117
:10293000FFF72ABB10BD0000000800400004004063
:102940000148408870470000000000200248002134
:102950004180818070470000000000202DE9F05F79
:102960006FF0630B4FF49679514C40F2DC58514DA7
:10297000DFF844A191E0FFF78BFD50A20121002078
:10298000FEF744FA286801280DD0DAF80000012883
:102990007ED164215F465846FEF788F849480068B2
:1029A00001287AD10CE048480146FEF77FF8C4F8C8
:1029B00000800120FFF7BAFD20680028F9D16CE003
:1029C0000620FFF7FDFC18B90720FFF7F9FC08B156
:1029D000012600E000260A20FFF7F2FC18B90B20C0
:1029E000FFF7EEFC00B1012086420CD9384639468B
:1029F000FEF75CF8C4F800900120FFF797FD20680F
:102A00000028F9D121E00A20FFF7DAFC18B90B20E1
:102A1000FFF7D6FC08B1012600E000260620FFF7EC
:102A2000CFFC18B90720FFF7CBFC00B1012086428C
:102A30000BD964210846FEF739F8C4F8009001204C
:102A4000FFF774FD20680028F9D1C8210846FEF779
:102A50002DF84FF4FA7020600120FFF767FD206821
:102A60000028F9D100210846FEF720F8C820206090
:102A70000120FFF75BFD20680028F9D100F034F851
:102A8000114E4746323E30463146FEF70FF800E021
:102A90000BE0FFF755FFB842F5D9286801283FF44D
:102AA0006AAFDAF800000128F9D0BDE8F09F000015
:102AB00010000020200000201C000020CCA8CFC265
:102AC000000000003400002070FEFFFF10B504A2DB
:102AD00001210220FEF79AF9BDE81040FFF7D8BCAB
:102AE000D3F1BAE2B6D300000348002141808180CF
:102AF00001218807FFF727B90000002003480021C3
:102B0000C180018101210248FFF71DB900000020AA
:102B1000000C004070B5FFF7BBFC4FF47A7534A28F
:102B200001210020FEF772F935A201210220FEF7F3
:102B30006DF936A201210420FEF768F936A20121C1
:102B40000620FEF763F90020FEF728F8012804D0DC
:102B5000032807D00428E2D170BDFDF769FCFFF718
:102B600097FCDCE7FFF794FC00242DA20121002054
:102B7000FEF74CF92DA201210220FEF747F9002CA7
:102B800006DB2DA214210420FEF740F9A2B206E0D4
:102B90002AA214210420FEF739F9604282B21E21D4
:102BA0000420FFF775FD23461A4611460846FFF735
:102BB000F0FB0020FDF7F2FF012808D002280BD01F
:102BC00003280FD00428C7D0AC42CEDDCAE7AC4200
:102BD000FADA6420323407E014F57A7FF4DD6420F9
:102BE000323C01E064426420FFF786FCECE7000021
:102BF00031A1A2B4ABB8D0C6F7BCECB2E200000081
:102C000032A1A2B6E6BBFABCECB2E20033A1A2B597
:102C1000E7BBFABCECB2E20034A1A2B7B5BBD80066
:102C2000B0B4BCFCD2D4B8C4B1E40000B5E7BBFA80
:102C3000D7AACBD93A000000200000002D000000E8
:102C400070B5FFF751FF6FF0C7064FF47A754FF478
:102C50004874C8213046FDF729FFFFF771FEA842EE
:102C600009D80020FFF7ACFBA04204D80120FFF7F1
:102C7000A7FBA042EDD970BD70B5FFF735FF084C3A
:102C80006FF0C7064FF416753146C820FDF70EFFEA
:102C9000FFF756FEA84202D820680128F4D170BD83
:102CA0004000002070B5FFF71FFF084C6FF0C7060B
:102CB0004FF4E1753146C820FDF7F8FEFFF740FEFE
:102CC000A84202D820680128F4D170BD400000203D
:102CD00010B5FFF7DDFB1AA205210220FEF796F8DA
:102CE0004FF49670FFF708FCFFF7D2FB1648014639
:102CF000FDF7DCFE154C4FF4966020600120FFF7D5
:102D000015FC20680028F9D100210846FDF7CEFE09
:102D10004FF4FA7020600120FFF708FC20680028BB
:102D2000F9D1C8214842FDF7C1FE4FF4167020606A
:102D30000120FFF7FBFB20680028F9D110BD00003F
:102D4000C9CFCCA8000000003EFEFFFF100000200D
:102D500010B591EA030F48BF83F0004300F1E6810C
:102D6000841A71EB030C05D2121943EB0C03001B00
:102D700061EB0C01DFF824E14FEA1154A4EB135C82
:102D80001EEA430F18BF9EEA445F73D023EA0E0386
:102D9000DCF1200E21EA045143F4801332D322FAED
:102DA0000CFE10EB0E0023FA0CFE41EB0E01CCF1F1
:102DB000200E03FA0EFE10EB0E0051F10001B1F5EA
:102DC000801FCCF1200E32D201EB045112FA0EF228
:102DD000BDE8104058BF7047401C38BF5FEA420250
:102DE00018BF7047002814BF20F0010041F1000116
:102DF0004FEA410313F5001F38BF7047A1F1C041EE
:102E000000F086B9012A43EB0302ACF1200CDCF19F
:102E10001F0E32BF4FF0000E23FA0CF310EB03002D
:102E200041EB0451B4EB115FD0D0A1EB045101F59B
:102E3000801149085FEA300001EB04510ED350F1D4
:102E4000000038BF12FA0EFE08D1BDE81040C9E7F5
:102E5000401C38BF5FEA4202CAD1C3E7BDE8104058
:102E60004FEA410313F5001F38BF7047A1F1C0417D
:102E700000F04EB99EEA445F08D011EA5E0FBDE84B
:102E8000104004BF01F0004100207047BDE8104031
:102E900070B500F0EFF800BF64FBBE3E0000E0FF3D
:102EA0004FEA1153A3F58063D3F11E03A8BFD3F1FA
:102EB000200C08DB4FF0004242EAC12252EA505295
:102EC00032FA03F0704709420BD4102BC4BF002024
:102ED000704703F5787CBCF1FF3F05D04FF0FF3021
:102EE00070474FF00000704770B500F0C3F800BFA6
:102EF0004992248000207047F0E7B0FA80F310FA7E
:102F000003F10AD0C3F11D0303F580634FEA41507A
:102F10004FEA035202EBD12170474FF00000704797
:102F2000DFF848C170B51CEA111E1EBF1CEA13155C
:102F30009EEA0C0F95EA0C0F00F06F8081EA030403
:102F400023EA4C134EEAD47E21EA4C1141F480115D
:102F500043F48013AE44A1FB024CA0FB0365AEF129
:102F60007F7E361955EB0C05A1FB034C4CF1000399
:102F7000A0FB021C16EB0C06654153F1000309424D
:102F800018BF46F0010613F4007F0BD14FEA03315E
:102F90004FEA0530340341EA155140EA16506FF00C
:102FA00003020AE04FEAC3214FEAC520F40241EAD6
:102FB000555140EA56506FF0020202EB2E4201EBEF
:102FC000025585EACE710AD05FEA440C18BF24F09E
:102FD000004450F1000041F1000120EAD47040F2B9
:102FE000FE7C624500D270BDA84214BF4FF0804401
:102FF0004FF04044002E08BF0024BEF1806FA8BFF0
:10300000A1F1C041BDE8704080F282804FF0000025
:1030100001F1C04101F0004170479EEA0C0F0CEA3B
:10302000131518BF95EA0C0F06D04FF0000081EA87
:10303000030E0EF0004170BD00F01CF88900013E47
:1030400000F007B800F009B84FEA430C5FEA5C5C97
:1030500008D081EA030100F05BB84FEA410C5FEA57
:103060005C5CF6D14FF00000014970470000FF079B
:103070000000F87F0EF1020E2EF0030E5EF8046BD6
:10308000364205D4012A43EB030515F5001F12D87B
:10309000012841EB010C1CF5001F0CD80ED14FEAA2
:1030A000D17C15F5001F0CEB4C0C0CF1020C08BF89
:1030B0004CEBD37C04E04FF0080C01E04FEAD37CEA
:1030C0000CEB4C0526FA05F606F00706B6F1040CE3
:1030D00006D20EEB860CBDE870404CF0010C604748
:1030E000DFE80CF0090B02024FF000414FF0000046
:1030F000A1F5002170BD19461046012851EB0104CD
:1031000018BFD4F5001484BF002001F0004170BD49
:103110000808A0F500114FEA3101704710B591EA97
:10312000030F48BF83F000433FF51AAE841A71EBDA
:10313000030C07D212198CF0004C43EB0C03001B5C
:1031400061EB0C01DFF8A4E14FEA1154A4EB135C2E
:103150001EEA430F18BF9EEA445F00F0B08023EAE6
:103160006E03524221EA0451C3EB6E0338BF5B1E6B
:10317000DCF1200E25D322FA0CFE10EB0E0043FAF0
:103180000CFE41EB0E01CCF1200E03FA0EFE10EB0B
:103190000E0051F10001CCF1200E29D412FA0EF2EA
:1031A00001EB0451BDE8104058BF7047401C1CBFE4
:1031B000B2F1004F704700280CBF491C20F00100FD
:1031C000704712EB020E43EB030218BF4FF0010EE3
:1031D0004EEA4202ACF1200CDCF11E0E54D943FA47
:1031E0000CFE10EB0E0051F1FF31CCF11E0ED5D5C7
:1031F0000EF1010E12FA0EFE404141EB010101EB0E
:10320000445C5FEA5C5C10D910EBDE7001EB0451AA
:1032100038BFBEF1004FBDE8104018BF704700280E
:103220000CBF491C20F00100704730D24FEAD42C6B
:1032300011F5001124F400641BD0B1FA81F20B3AAD
:10324000A41AA41ED2F12003914030FA03F31943CB
:10325000904001EBCC71002C01EB0451BDE8104013
:10326000A8BF704701F1C0414FF0000001F00041DC
:103270007047B0FA80F310FA03F100D110BDE41AE0
:10328000173C4805C90AE4E701EB045110BD491099
:1032900001EB0451BDE810404FEA300002E04FF06E
:1032A000000170474A0008BF0042F8D0B2F5001F85
:1032B00028BF704701F000414FF0000070479EEAC0
:1032C000445F07D011EA5E0FBDE8104004BF002143
:1032D00000207047BDE8104070B5FFF7CBFE00BF7F
:1032E00040DFF63E83F00041104670470000E0FFEB
:1032F0004FF04070E1EE100A704700001C330008E8
:103300000000002078000000C40100089433000889
:1033100078000020C0060000E00100080000000066
:10332000000000000000000000000000000000009D
:10333000000000000000000000000000000000008D
:10334000000000000000000000000000000000007D
:10335000000000000000000000000000000000006D
:10336000000000000000000000000000000000005D
:10337000010000000000000000000000000000004C
:103380000000000000000000010203040102030429
:04339000060708091B
:040000050800018965
:00000001FF
