:020000040800F2
:100000003807002029020008BB0C0008B50A0008C8
:10001000B90C00081107000851200008000000007A
:100020000000000000000000000000003114000883
:10003000A108000800000000C110000841150008D8
:10004000430200084302000843020008430200087C
:10005000430200084302000843020008430200086C
:10006000430200084302000843020008430200085C
:10007000430200084302000843020008430200084C
:10008000430200084302000843020008430200083C
:10009000430200084302000843020008430200082C
:1000A000430200084302000843020008430200081C
:1000B000A11500084302000843020008430200089B
:1000C00043020008430200084302000843020008FC
:1000D000430200084302000843020008411E0008D2
:1000E00043020008430200084302000843020008DC
:1000F00043020008430200084302000843020008CC
:1001000043020008430200086D180008430200087B
:1001100043020008430200084302000843020008AB
:10012000430200084302000843020008430200089B
:10013000430200084302000843020008430200088B
:10014000430200084302000843020008430200087B
:10015000430200084302000843020008430200086B
:10016000430200084302000843020008430200085B
:10017000430200084302000843020008430200084B
:10018000430200084302000800F002F800F03CF8C7
:100190000AA090E8000C82448344AAF10107DA45E2
:1001A00001D100F031F8AFF2090EBAE80F0013F0F8
:1001B000010F18BFFB1A43F0010318477C2E000003
:1001C0009C2E0000103A24BF78C878C1FAD8520794
:1001D00024BF30C830C144BF04680C6070470000C1
:1001E0000023002400250026103A28BF78C1FBD840
:1001F000520728BF30C148BF0B6070471FB502F0DF
:1002000015FF1FBD10B510BD00F031F81146FFF706
:10021000F5FF02F0DDF900F04FF803B4FFF7F2FF4D
:1002200003BC00F057F80000094880470948004720
:10023000FEE7FEE7FEE7FEE7FEE7FEE7FEE7FEE796
:10024000FEE7FEE704480549054A064B70470000F3
:1002500045150008890100083801002038070020F2
:1002600038030020380300207047704770477546F8
:1002700000F02CF8AE4605006946534620F0070012
:10028000854618B020B5FFF7DDFFBDE820404FF0F0
:1002900000064FF000074FF000084FF0000B21F070
:1002A0000701AC46ACE8C009ACE8C009ACE8C0093D
:1002B000ACE8C0098D46704710B50446AFF3008026
:1002C0002046BDE81040FFF7A8BF00000048704777
:1002D000D400002001491820ABBEFEE72600020032
:1002E00070470029816802D041F0010101E021F04E
:1002F0000101816070470000084B10B5D3F804235A
:1003000007490A40D0E900142143D0E902400443E0
:1003100021431143C3F8041310BD00000020014025
:10032000E030FCFF0029816802D041F4807101E0D7
:1003300021F48071816070470029816802D041F406
:10034000007101E021F400718160704710B5012156
:100350000C02204600F0DAFE2046BDE810400021E5
:1003600000F0D4BE30B542680F4B0C791A400B68D0
:1003700042EA04221343436082680C4B4D791A40D1
:10038000D1E9034323438C6844EA450423431343E0
:100390008360C26A097D22F47002491EC9B242EA32
:1003A0000151C16230BD0000FFFEFFFCFDF7FFC040
:1003B00070B5072609290AD9C568A1F10A0404EB1A
:1003C0004404A640B543A3401D43C56007E005694A
:1003D00001EB4104A640B543A3401D4305611F2323
:1003E000072A09D2446B521E02EB820293409C43BF
:1003F00091400C43446370BD0D2A09D2046BD21F97
:1004000002EB820293409C4391400C43046370BD15
:10041000C46A0D3A02EB820293409C4391400C4324
:10042000C46270BD816841F0804181607047000006
:1004300070B5012500262C46002000F07BFB08B19A
:1004400005462C46012C04D0022C24D0032C44D089
:1004500069E001F015FF82A20121002000F0A2FC5A
:1004600084A20121022000F09DFC83A2012104202E
:1004700000F098FC81A20121062000F093FC80A2EC
:100480004221022000F08EFC7EA24221042000F0D6
:1004900089FC7DA242E001F0F3FE71A2012100205F
:1004A00000F080FC79A20121022000F07BFC78A200
:1004B0000121042000F076FC76A20121062000F044
:1004C00071FC75A24221022000F06CFC74A2422152
:1004D000042000F067FC74A220E001F0D1FE60A2CD
:1004E0000121002000F05EFC71A20121022000F039
:1004F00059FC71A20121042000F054FC70A20121DA
:10050000062000F04FFC70A24221022000F04AFCBD
:100510006FA24221042000F045FC6EA24221062079
:1005200000F040FC00242EB1042D7DD0052001F008
:10053000DBFE81E7012D34D0022D5CD0032DF5D1F7
:100540000C2001F015FE82B21F21022001F098FF5D
:100550000D2001F00DFE82B21F21042001F090FF5A
:100560000E2001F005FE82B21F21062001F088FF57
:100570000F2001F0FDFD82B26021022001F080FF1A
:10058000032001F0FFFE82B26021042001F068FF29
:10059000042001F0F7FE82B26021062001F060FF26
:1005A000C4E7002001F0E4FD82B21A21022001F02C
:1005B00067FF012001F0DCFD82B21A21042001F066
:1005C0005FFF022001F0D4FD82B21A21062001F063
:1005D00057FF032001F0CCFD82B26021022001F020
:1005E0004FFF042001F0C4FD82B26021042001F01D
:1005F00047FF05202AE0062001F0BAFD82B21A2149
:10060000022001F03DFF072001F0B2FD82B21A2165
:10061000042001F035FF082001F0AAFD82B21A2162
:10062000062001F02DFF00E018E0092001F0A0FDF8
:1006300082B26021022001F023FF0A2001F098FD20
:1006400082B26021042001F01BFF0B2001F090FD1D
:1006500082B26021062001F013FF67E770BD000041
:10066000202D414420446574656374696F6E2D20AC
:100670000000000041313D0041323D0041333D006A
:1006800041343D0041353D0041363D0041373D009C
:1006900041383D0041393D004131303D000000000E
:1006A0004131313D000000004131323D0000000089
:1006B0004131333D000000004131343D0000000075
:1006C0004131353D000000004131363D0000000061
:1006D00044333D0044343D007CB501208DF80400D6
:1006E00000228DF8062003218DF80510074D4FF4E8
:1006F00000648DF8070000946946284600F0D1F8A0
:100700002146284600F022F97CBD0000000C024082
:10071000FEE70029016802D041F0010101E021F06B
:1007200001010160704700002DE9F043016821F0EC
:10073000010101600021016041608160C1600161CF
:10074000212141613C493C4A3D251039904202D16A
:100750008D60BDE8F083384A4FF4746618329042D9
:1007600001D18E60F5E7344A4FF47417303290426D
:1007700001D18F60EDE7304A4FF0746C48329042FF
:1007800002D1C1F808C0E4E72B4B2C4A60339842F1
:1007900001D1CA60DDE7284C294B7834A04201D151
:1007A000CB60D6E7DFF89080264C08F190084045F2
:1007B00001D1CC60CDE7DFF880804FF03D5908F1E2
:1007C000A808404502D1C1F80C90C2E71E49DFF8E5
:1007D00078800839404501D10D60BAE71A4D1835C7
:1007E000A84201D10E60B4E7174D3035A84201D1BF
:1007F0000F60AEE7144D4835A84202D1C1F800C0E1
:10080000A7E7114D10496035091FA84201D10A60C0
:100810009FE70D4A7832904201D10B6099E70A4A6E
:100820009032904201D10C6093E7074AA83290427F
:100830008FD1C1F800908CE7106002403D0000208D
:10084000400F002000003D201064024030B50368D6
:10085000124ACC6813400A682243D1E905452C436B
:100860002243CC6922430C6A22434C6A22438C6A9D
:1008700022434C6B22438C6B22431A430260426931
:1008800022F00703D1E90B2422431A4342610A698B
:1008900042604A6882608968C16030BD3F801CF058
:1008A0007047F0B5002201274FF0030C0B6807FAE0
:1008B00002F52B40AB422CD1066853000CFA03F42E
:1008C000A64306600E79D0F800E09E4046EA0E0688
:1008D00006600E79012E01D0022E12D18668A64341
:1008E00086604E79D0F808E09E4046EA0E068660A3
:1008F0004668AE43466045688E799640B6B2354349
:100900004560C568A543C560CC799C40C3681C435D
:10091000C460521C102AC9D3F0BD4B07DB0E9A40AD
:10092000C90810B500EB8100016A0F249C40A14367
:100930000162016A1143016210BD02460020126982
:100940000A4200D0012070474183704701837047FD
:1009500070B500240C4E254610213046FFF7F4FFF9
:100960006006040E02213046FFF7E7FF08B1641C61
:10097000E4B210213046FFF7E9FF6D1CEDB2082DFF
:10098000EAD3204670BD0000001002402DE9F0417E
:100990001E480068012837D11D480068002833D15F
:1009A0001C4D4FF49678286833280AD001F068FC73
:1009B00019A20121022000F0F5F91A4E1A4C1B4F22
:1009C00014E001F05DFC1AA20121022000F0EAF916
:1009D00001F01EFC01F0BEFF40464146BDE8F0417B
:1009E00000F02EB83168206800F02AF83868002836
:1009F000F8D01248014600F023F8404601F074FC9C
:100A000001F0A8FF00202860BDE8F081240000204C
:100A10003800002060000020D6B1D0D0B9A5BBF7C7
:100A200000000000400000203C00002030000020BA
:100A3000BCBAB7BDC4DCC1BFBFE9000070FEFFFF98
:100A400070B50D4606461A4C2BE0B01A002802DDA0
:100A500002F1190202E002D5A2F1190222606068D7
:100A6000A5EB0001002902DD00F1190002E002D52A
:100A7000A0F119006060C2F100014FF0000001F028
:100A800015FE20684142012001F010FE022061683D
:100A900001F00CFE0320616801F008FE0A2001F05D
:100AA00023FC2268B242D0D16068A842CDD170BD8B
:100AB00054000020FEE700007CB5002440208DF8A3
:100AC0000440032500908DF8055001268DF807603D
:100AD00069461448FFF7E5FE70028DF80440009067
:100AE0008DF805508DF8076069460F48FFF7D9FE6D
:100AF00080208DF8044000908DF805508DF8076037
:100B000069460A48FFF7CDFE70038DF80440009057
:100B10008DF805508DF8076069460548FFF7C1FE5E
:100B20007CBD00000010024000040240000C0240A6
:100B3000000802402DE9F041234C244A244D254E63
:100B4000254F012108B1217001E0207860B1D2F871
:100B50002402904668B1D5F81C0250B1D6F81802AC
:100B600038B1D7F8340220B1D2F8240201281BD0C2
:100B700027E00A2001F0B8FB00202070D8F82402FA
:100B800048B1D5F81C0248B1D6F8180240B1D7F8E0
:100B9000340238B115E00120BDE8F0810220FBE706
:100BA0000320F9E70420F7E7D5F81C02012808D153
:100BB000D6F81802012804D1D7F83402012800D150
:100BC00021700020E8E70000500000200080404233
:100BD0000080414200004242000041422DE9FC41B8
:100BE00001248DF8044000264FF480508DF80660F3
:100BF0000327DFF8488000908DF805708DF80740D6
:100C000069464046FFF74DFEE50229464046FFF79C
:100C10009DFE8DF804408DF806608DF805708DF806
:100C20000740074C009569462046FFF73AFE2946E3
:100C30002046FFF78BFEBDE8FC810000000002406B
:100C40000010024010B54FF4A06000F069F80121D7
:100C5000084600F037FA0121022000F033FA0121A2
:100C6000042000F02FFA0121082000F02BFA0121C6
:100C7000102000F027FAA82001F020FBFFF72CFD40
:100C8000FFF71AFF00F0F2F800F00AFA40F2E7343A
:100C90005321204600F0B4FC01F09CFD5321204676
:100CA00000F034FF01F0A0FDFFF798FF00F082FA9A
:100CB000BDE8104001F0D8B8FEE7704730B50F230B
:100CC000C27801780125FAB1144A126801F1E021D5
:100CD00002F4E062C2F5E062C2F30722C2F104044A
:100CE000D3404278A24084781C401443220181F80A
:100CF0000024007800F01F018D404009800000F1C1
:100D0000E020C0F8005130BD01F01F0085404809C7
:100D1000800000F1E020C0F8805130BD0CED00E013
:100D20000249084302490860704700000000FA05C4
:100D30000CED00E02DE9F04115460F4680460026F7
:100D4000F9B208F0FF0000F067F9002428780121CB
:100D500000F030F9641CE4B26D1C102CF6D3761C44
:100D6000F6B27F1C022EEBD3BDE8F0812DE9F041F5
:100D700015460F4680460026F9B2404600F04CF971
:100D800000242878012100F015F9641CE4B26D1CE0
:100D9000082CF6D3761CF6B27F1C022EECD3BDE8ED
:100DA000F08100002DE9F0438DB016460D468146D6
:100DB00000244FF020082B4F4DE0A0F1B00147294F
:100DC0000AD832195378A12B06D35E2041433960EB
:100DD000507801F2AD210CE0A0F1A10102291FD849
:100DE00032195378A12B1BD35E20414339605078D0
:100DF000A139084440013860C0F3074CC0F3072113
:100E0000C2B201AB6046CDF8008000F01BF901AA28
:100E100049462846FFF78EFF1035EDB2A41C19E0B5
:100E200020385E2815D8104909AB01EB0010C0F33B
:100E3000074CC0F30721C2B2386010200090604612
:100E400000F000F909AA49462846FFF78FFF083548
:100E5000EDB2641CE4B2305D0028AED10DB0BDE847
:100E6000F08300004C00002080CF03002DE9FC41FE
:100E70000121102000F026F901248DF804400025FE
:100E80003F208DF806500326494F00908DF80560ED
:100E90008DF8074069463846FFF703FD8DF804508A
:100EA00002208DF8065000908DF805608DF80740FF
:100EB00069463846FFF7F5FC3F213846FFF746FD07
:100EC000C82001F011FA0021AE2000F073F80021D3
:100ED000084600F06FF80021102000F06BF80021A8
:100EE000402000F067F80021812000F063F8002125
:100EF000CF2000F05FF80021A12000F05BF8002176
:100F0000C82000F057F80021A62000F053F8002177
:100F1000A82000F04FF800213F2000F04BF80021FE
:100F2000D32000F047F80021084600F043F80021E4
:100F3000D52000F03FF80021802000F03BF8002190
:100F4000D92000F037F80021F12000F033F800211B
:100F5000DA2000F02FF80021122000F02BF80021F9
:100F6000DB2000F027F80021402000F023F80021CA
:100F7000202000F01FF80021022000F01BF80021C3
:100F80008D2000F017F80021142000F013F8002144
:100F9000A42000F00FF80021A62000F00BF800219B
:100FA000AF2000F007F801F06BF9BDE8FC8100000C
:100FB0000010024070B5174E054600294FF0080199
:100FC000304602D0FFF7C2FC01E0FFF7BDFC042170
:100FD0003046FFF7B9FC002410213046FFF7B4FC7F
:100FE00028064FF02001304602D5FFF7AFFC01E0A4
:100FF000FFF7AAFC10213046FFF7A8FC641C6D0027
:10100000E4B2082CE8D33046BDE870400821FFF771
:101010009DBC00000010024010B50A4604460021A5
:1010200002F1B000FFF7C6FF102040EA14100021C3
:10103000FFF7C0FF04F00F00BDE810400021FFF7EC
:10104000B9BF00002DE9F047144F894604461D46FC
:10105000904604213846089EFFF778FC0121384667
:10106000FFF772FC032000F0E5F9204600F0E2F9FA
:10107000484600F0DFF9404600F0DCF9002404E0C7
:10108000FFF766FC2855641CE4B2B442F8D3384636
:10109000BDE8F0470121FFF759BC000000100240F5
:1010A00010B540F2E7345321204600F0D3FA532123
:1010B000204600F055FBBDE81040012001F07ABA4F
:1010C00070470000044A0029116801D0014300E084
:1010D000814311607047000030380240044A002903
:1010E000116801D0014300E08143116070470000A6
:1010F00040380240044A0029116801D0014300E051
:10110000814311607047000044380240044A0029BE
:10111000116801D0014300E0814311607047000075
:101120002438024070B5204B1968204C11F00C0196
:1011300004D06610042903D0082903D004601BE002
:10114000066019E0184A121F1168C1F38055116832
:1011500001F03F0115B1B6FBF1F101E0B4FBF1F193
:1011600014681268C4F388146143C2F30142521C2C
:101170005200B1FBF2F1016019680F2202EA11116D
:101180000B4A545C0168E14041601C68072505EA90
:101190009424145D21FA04F484601B6805EA533337
:1011A000D25CD140C16070BD083802400024F40018
:1011B000640000202DE9F04301219BB08805FFF772
:1011C00081FF3F200325DFF8489200908DF80450FE
:1011D00000248DF8074069464846FFF762FBFF2070
:1011E000DFF8308200908DF804508DF80740694692
:1011F0004046FFF756FB884F8DF8045000958DF858
:10120000074069463846FFF74CFB4FF280708DF877
:10121000044000908DF8055001268DF8076069465E
:101220007E48FFF73EFB4FF604408DF804400090E7
:101230008DF805508DF8076069463846FFF731FB99
:1012400040F21F708DF8044000908DF805508DF825
:10125000076069467248FFF724FBF0038DF80440ED
:1012600000908DF805508DF8076069464046FFF7FD
:1012700018FB30038DF8044000908DF805508DF870
:10128000076069464846FFF70CFB01210F0238460C
:10129000FFF73CFF00213846FFF738FFDFF8848175
:1012A0004046FFF741FA604804A9CDE902405F4893
:1012B000102581E83100A801CDE9074040000990E0
:1012C0008000CDE90A070CA9000181E851000F94C4
:1012D00002A940461094FFF7B9FA01214046FFF7F2
:1012E00018FA01213846FFF705FF01213846FFF7BC
:1012F0000DFF00213846FFF709FFFFF727F8280305
:10130000CDE91804179417A81A94FEF7F5FF119465
:1013100013941594444C8DF848604C3C8DF849600A
:101320008DF8585011A92046FFF71CF8032301221D
:1013300000212046FFF73CF803230222012120462A
:10134000FFF736F803231A4602212046FFF730F84C
:101350000323042219462046FFF72AF80323052217
:1013600004212046FFF724F8032306220521204606
:10137000FFF71EF80323072206212046FFF718F87F
:101380000323082207212046FFF712F8032309222E
:1013900008212046FFF70CF803230A2209212046E2
:1013A000FFF706F803230B220A212046FFF700F877
:1013B00003230C220B212046FEF7FAFF03230D2204
:1013C0000C212046FEF7F4FF03230E220D212046B8
:1013D000FEF7EEFF03230F220E212046FEF7E8FF63
:1013E000032310220F212046FEF7E2FF01212046B1
:1013F000FEF7A2FF01212046FEF794FF01212046BF
:10140000FEF76FFF2046FFF70DF81BB0BDE8F08335
:1014100000080240000002400004024000100240A8
:10142000000C0240106402404C200140B400002037
:101430007047000070B50E4E0546002428064FF098
:101440002001304602D5FFF781FA01E0FFF77CFA70
:101450006806050E10213046FFF776FA1021304657
:10146000FFF774FA641CE4B2082CE7D370BD0000E7
:10147000001002400CB50022274900920192086832
:1014800040F4803008604FF4A043086800F4003056
:1014900001900098401C0090019810B90098984263
:1014A000F3D10868800334D5012001901A484030F8
:1014B000026842F0805202601848026842F44042DA
:1014C00002601548083002680260026842F4004277
:1014D0000260026842F4A0520260031F104A1A60C0
:1014E0000A6842F080720A600A689201FCD50D49D0
:1014F00040F205720A60016821F003010160016891
:1015000041F0020101600168C1F381010229FAD1B1
:101510000CBD01920CBD000000380240007000407C
:1015200008544007003C02404FF0E02104280869BD
:1015300003D020F004000861704740F00400FAE78F
:1015400070470000124810B5016841F47001016055
:101550001048016841F0010101600E4A0021083283
:10156000116002680C4B1A400260031D0B4A1A609E
:10157000026822F48022026006480C300160FFF706
:1015800079FF03494FF000608039086010BD00000A
:1015900088ED00E000380240FFFFF6FE1030002426
:1015A00010B501218C07204600F0F1FA01281CD16A
:1015B000114A107801280BD15089401C81B2518109
:1015C000C82905D30D490020C1F8AC021070508124
:1015D0001069401E10615088401C81B25180B1F5E5
:1015E0007A7F02D19088401C90802046BDE8104050
:1015F000012100F0BFBA000000000020008041423D
:101600007FB50D46044601210846FFF767FD00201F
:101610000194ADF80050ADF80200ADF808004FF0AD
:1016200080446946204600F0CDFB01221146204649
:1016300000F0B9FA1C208DF80C0001208DF80D0087
:1016400003218DF80E108DF80F0003A8FFF736FB6D
:101650007FBD00002DE9F0410E4680468AB0012191
:101660000220FFF73BFD3C4F022206213846FFF7E0
:1016700054F9022207213846FFF74FF902220821C8
:101680003846FFF74AF9022209213846FFF745F9A3
:101690004FF47070059002208DF8180003208DF82B
:1016A000190000248DF81A4001258DF81B5005A95A
:1016B0003846FFF7F6F8294FADF81C60ADF81E402C
:1016C000CDF82080ADF8244007A9384600F07AFB19
:1016D0006026ADF80060ADF80250ADF80C406946E8
:1016E000384600F069FAADF80060ADF80250ADF888
:1016F0000C406946384600F095FAADF80060ADF848
:101700000250ADF80C406946384600F0D5FAADF805
:101710000060ADF80250ADF80C406946384600F064
:101720000FFB0821384600F077FA0821384600F010
:10173000B9FA0821384600F0FDFA0821384600F0D1
:101740002FFB0121384600F00BFA0121384600F04A
:1017500014FA0AB0BDE8F08100080240000400401D
:101760002DE9F0410E4680468AB001210420FFF7A2
:10177000B5FC3C4F02220C213846FFF7CEF802227E
:101780000D213846FFF7C9F802220E213846FFF72F
:10179000C4F802220F213846FFF7BFF84FF470401B
:1017A000059002208DF8180003208DF81900002400
:1017B0008DF81A4001258DF81B5005A93846FFF712
:1017C00070F8294FADF81C60ADF81E40CDF82080B0
:1017D000ADF8244007A9384600F0F4FA6026ADF8C9
:1017E0000060ADF80250ADF80C406946384600F094
:1017F000E3F9ADF80060ADF80250ADF80C40694671
:10180000384600F00FFAADF80060ADF80250ADF8C0
:101810000C406946384600F04FFAADF80060ADF86C
:101820000250ADF80C406946384600F089FA0821AC
:10183000384600F0F1F90821384600F033FA082163
:10184000384600F077FA0821384600F0A9FA01215D
:10185000384600F085F90121384600F08EF90AB0CB
:10186000BDE8F081000C0240000800402DE9F0477F
:10187000DFF890920121484600F089F90025A24C3A
:101880004FF47A7801287DD1022000F071FC4FF4EA
:10189000B9770126B84204DB032000F069FCB842A6
:1018A00002DA2663656400E02563042000F060FC32
:1018B0004FF49677B84204DB052000F059FCB8429B
:1018C00001DAA66300E0A563022000F051FCB842F3
:1018D0002FDA032000F04CFCB8422ADA042000F092
:1018E00047FCB84225DA052000F042FCB84220DA75
:1018F000082000F03DFC4746B84204DD092000F016
:1019000037FCB84213DC062000F032FCB84204DD9C
:101910000B2000F02DFCB84209DC072000F028FC69
:10192000B84206DD0A2000F023FCB84201DD666102
:1019300014E0022000F01CFCC8280FDD032000F09A
:1019400017FCC8280ADD042000F012FCC82805DDB9
:10195000052000F00DFCC82800DD6561022000F0C4
:1019600007FC642804DA042000F002FC64280BDB86
:10197000032000F0FDFB642808DA052000F0F8FBE6
:10198000642800E0A8E001DAA66100E0A561062075
:1019900000F0EEFB404504DC072000F0E9FB404589
:1019A00002DD6662656400E06562082000F0E0FB2D
:1019B00040F24C47B84209DC0C2000F0D9FBB84299
:1019C00004DC0E2000F0D4FBB84203DD6420E661A5
:1019D000606401E0E5616564092000F0C9FBB8427C
:1019E00009DC0D2000F0C4FBB84204DC0F2000F03D
:1019F000BFFBB84204DD6FF063002662606400E064
:101A000025620E2000F0B4FBB84206DD0F2000F086
:101A1000AFFBB84201DDA66200E0A562062000F03F
:101A2000A7FB4746B84234DD072000F0A1FBB842CF
:101A30002FDD0A2000F09CFBB8422ADD0B2000F0CD
:101A400097FBB84225DD0E2000F092FB4FF42F7774
:101A5000B8421EDA0F2000F08BFBB84219DA0620DC
:101A600000F086FB0746072000F082FB394600F0B5
:101A700063FB64280BDB0B2000F07AFB07460A208F
:101A800000F076FB394600F057FB642801DAE66285
:101A900000E0E562002000F06BFB4FF4C877C82837
:101AA0000EDB012000F064FBC82809DB022000F0F7
:101AB0005FFBB84206DA032000F05AFBB84201DAB5
:101AC000666300E06563606C70B1E063404220646F
:101AD0000121484600F04EF8E068401CE0604045B7
:101AE00005DDE560BDE8F087E7632764F0E7B0F562
:101AF000FA7F03DABDE8F04700F0A6BBBDE8F04787
:101B000000F0BCBB000C0040000000207FB50D467B
:101B1000044601210820FFF7E1FA01940020ADF806
:101B200000500E4CADF80200ADF8080069462046A2
:101B300000F048F901221146204600F034F8322026
:101B40008DF80C0001208DF80D0003218DF80E108A
:101B50008DF80F0003A8FFF7B1F87FBD000C00401F
:101B60000029018802D041F0800101E021F08001CC
:101B700001807047C943018270470029018802D063
:101B800041F0010101E021F00101018070470246AE
:101B90000020138A92890B4202EA010202D0002A35
:101BA00000D001207047002A828901D00A4300E05A
:101BB0008A4382817047000030B5028C22F0010216
:101BC0000284028C8388048B22F0020224F07305C5
:101BD0000C882C438D8915434A882A430C4DA84212
:101BE00002D00C4DA8420DD122F00805CA8923F479
:101BF00040732A4322F004058A882A430D8A1D4334
:101C00004B8A2B438380048389684163028430BDFF
:101C10000000014000040140028B22F008020A4348
:101C20000283704770B5028C22F010020284028C8D
:101C30008388048B0D8824F4E6464FF6FF7404EA8B
:101C4000052535438E8922F0200204EA0616164344
:101C50004A8804EA02123243104EB04202D0104EBB
:101C6000B04215D122F08006CA8923F4406304EA09
:101C70000212324322F040068A8804EA02123243FA
:101C80000E8A04EA86061E434B8A04EA8303334322
:101C90008380058389688163028470BD00000140F0
:101CA00000040140028B4FF6FF7322F4006203EA46
:101CB000012111430183704770B5028C22F48072B8
:101CC0000284028C8388848B0D8824F0730425435E
:101CD0008E894FF6FF7422F4007204EA062616433A
:101CE0004A8804EA02223243104EB04202D0104E1B
:101CF000B04215D122F40066CA8923F4405304EAA5
:101D00000222324322F480668A8804EA02223243A5
:101D10000E8A04EA06161E434B8A04EA0313334371
:101D2000838085838968C163028470BD000001409F
:101D300000040140828B22F008020A43828370472C
:101D400070B5028C22F480520284058C8288838BC9
:101D50000C8823F4E6464FF6FF7303EA0424344369
:101D600025F400568D8903EA053535434E8803EA8C
:101D700006362E43084DA84202D0084DA84205D190
:101D800022F480450A8A03EA82122A4382808483ED
:101D900089680164068470BD0000014000040140B0
:101DA000828B4FF6FF7322F4006203EA0121114394
:101DB000818370474163704781637047C163704797
:101DC0000164704730B50288164C174DA0420DD003
:101DD000A8420BD0B0F1804F08D0144B984205D0E8
:101DE000134B984202D0134B984203D122F0700358
:101DF0004A881A43104B984206D0104B984203D0A1
:101E000022F440730A891A4302804A68C2620A882F
:101E10000285A04201D0A84201D1897A0186012120
:101E2000818230BD000001400004014000040040F8
:101E300000080040000C004000100040001400406A
:101E400010B5074C40F22551204600F06FF80028ED
:101E500004D0204600F0F8F80249086010BD0000E8
:101E60000048004060000020F0B5012187B08804E0
:101E7000FFF734F901210420FFF724F9244D012153
:101E8000284600F049F800244FF4E1300090ADF806
:101E900008400C20ADF80440ADF80A00ADF806404B
:101EA000ADF80C406946284600F078F8012240F26F
:101EB0002551284600F059F8164F07220A213846C6
:101EC000FEF72BFD07220B213846FEF726FD4FF4C7
:101ED0004060022604908DF8146003208DF81500F0
:101EE00001258DF817508DF8164004A93846FEF7E5
:101EF000D8FC27208DF818008DF819608DF81A503D
:101F00008DF81B5006A8FEF7D9FE07B0F0BD000003
:101F100000480040000802400029818902D041F4B5
:101F2000005101E021F400518181704770B501F04A
:101F30001F0501260024C1F3421306FA05F2012B06
:101F40000FD0022B0FD0838A4FEA11210088134251
:101F500006FA01F600EA060001D000B1012420468D
:101F600070BD8389F0E7038AEEE710B5C1F3421331
:101F700001F01F040121A140012B07D0022B07D043
:101F80001430002A026805D00A4304E00C30F8E758
:101F90001030F6E78A43026010BD00007FB50446AA
:101FA000008A0D46C98820F4405001432182A0894F
:101FB00041F20C618843A9882A8911436A89024346
:101FC0001143A181A08A20F44071A8890843A0820E
:101FD0006846FFF7A7F81A48844202D0194884429D
:101FE00001D1039800E00298A189090400EBC00127
:101FF00001EB0010296801D5490000E08900B0FB21
:10200000F1F06422B0FBF2F109010B096FF0180541
:102010006B4300EB8300A3891D044FF0320306D508
:1020200003EBC000B0FBF2F000F0070005E003EBAB
:102030000010B0FBF2F000F00F00084320817FBDDC
:1020400000100140001401408088C0F30800704770
:10205000FEE700002DE9F0416FF063072A4C2B4E9C
:1020600049E02B48006801280BD02A480068012865
:1020700018D029480068012825D02068012835D0CB
:1020800037E000F0A7FB00F0FBF824A201210220BA
:10209000FEF788FE03E039466420FEF7D1FC206895
:1020A00048BBF8E700F096FB00F0EAF81DA201211A
:1020B0000220FEF777FE03E064213846FEF7C0FCFD
:1020C0002068C0B9F8E700F085FB00F0D9F817A246
:1020D00001210220FEF766FE6FF0C70503E02946E6
:1020E000C820FEF7ADFC206828B9F8E71148006861
:1020F00030B100F025FA30680028B2D0BDE8F08198
:10210000FEF744FCF7E70000240000201400002044
:102110001C0000202000002028000020D7F3B2E09F
:1021200000000000D3D2B2E000000000BAF3B7BD57
:102130000000000030000020884201DD401A704796
:10214000081A704770B50C4601461D461646002019
:1021500000F0ACFA2146012000F0A8FA3146022036
:1021600000F0A4FA2946BDE87040032000F09EBAB2
:1021700010B50024102826D2DFE800F0080A0C0E63
:102180002510121416181A1C1E2022240A241AE0E4
:102190000B2418E00C2416E00D2414E0012412E0B6
:1021A000022410E003240EE004240CE005240AE0DD
:1021B000062408E0072406E00E2404E00F2402E0D1
:1021C000082400E00924204600F084F9014830F892
:1021D000140010BD7400002070B500F0FBFA0A4D29
:1021E0000A4C4FF4FA7628462946FEF729FC00F0FF
:1021F0009FFAB04202D820680128F4D1BDE87040AF
:1022000000210846FEF71CBC70FEFFFF38000020CE
:1022100070B500F0DFFA0A4D0A4C6E422846294696
:10222000FEF70EFC00F084FAB04202D820680128C4
:10223000F4D1BDE8704000210846FEF701BC000063
:1022400070FEFFFF3800002000F00CB803490020AA
:1022500008700349C1F8AC0270470000000000207C
:10226000008041420349012008700349C1F8AC02D3
:10227000704700000000002000804142FFF7E6BFE9
:1022800070B50025002105F1B000FEF793FE002196
:102290001020FEF78FFE00210846FEF78BFE00247B
:1022A00001210020FEF786FE641CE4B2802CF7D3E7
:1022B0006D1CEDB2082DE5D370BD000010B50446CD
:1022C0006FF00400FFF730F90649E00800EB400228
:1022D0000870C2EBC0104FF6FF7202EAC0004880DF
:1022E00010BD00005C00002070B54FF40776B0FB15
:1022F000F6F1CCB2B0FBF6F106FB110504E0304676
:1023000000F026F8641EE4B2002CF8D1002D04D0B1
:102310002846BDE8704000F01BB870BD0B49097835
:1023200048434FF0E021486100238B61086940F089
:10233000010008610869C20701D0C003FAD5086925
:1023400020F0010008618B61704700005C000020F4
:102350000B49498848434FF0E021486100238B61D5
:10236000086940F0010008610869C20701D0C00394
:10237000FAD5086920F0010008618B617047000000
:102380005C00002030B504460020304B3049314A13
:102390001A2C12D2DFE804F00D12171A1D11202397
:1023A00026292C2F3235383B3E414447494B4E516C
:1023B0005457D3F8081203E0012030BDD1F81C12A5
:1023C0000129F9D030BDD1F82012F9E7D1F8241253
:1023D000F6E7D1F82812F3E7D1F83012F0E7D1F898
:1023E0003412EDE7D1F83812EAE7D1F83C12E7E70A
:1023F000D3F82812E4E7D3F82C12E1E7D3F830122F
:10240000DEE7D3F83412DBE7D3F83812D8E7D3F895
:102410003C12D5E7D2F82012D2E7D2F82412CFE747
:10242000D2F82812CCE70C49DFE70C49D4E7D2F800
:102430000012C5E7D2F80412C2E7D2F80812BFE7CB
:10244000D2F80C12BCE7D2F81012B9E70080404273
:1024500000004242008041420000404200004142F0
:1024600038B50A23B2FBF3F403FB142230328DF8A3
:10247000002000228DF801206A46FEF793FC38BD4B
:102480001CB54FF47A73B2FBF3F430348DF800408E
:10249000B2FBF3F403FB14246423B4FBF3F43034F1
:1024A0008DF80140B2FBF3F403FB14240A23B4FBC0
:1024B000F3F430348DF80240B2FBF3F403FB142242
:1024C00030328DF8032000228DF804206A46FEF792
:1024D00069FC1CBD70B5154D04462DED028B05F150
:1024E000200135F8140021F81400203131F814606F
:1024F00000F0A1FB9FED0E1B53EC112B00F0AEFB87
:1025000041EC180B304600F096FB9FED0B1B53EC93
:10251000112B00F0A3FB53EC182B00F0B7FA00F0DE
:102520005DFB25F81400BDEC028B70BD740000202B
:10253000989999999999C93F9A9999999999E93F3F
:102540002DE9F041144C154D154E164FDFF858800B
:1025500011E0FFF795FE15A203210020FEF722FCF3
:10256000C8210846FEF76CFA206801280ED0C82161
:102570000846FEF765FA2868316808433968084359
:10258000D8F800100843E4D0BDE8F081FFF724FE3E
:10259000BDE8F04100F0DEB930000020240000204A
:1025A0001C0000202000002028000020D1B2CCA870
:1025B00000000000054A012805D0002805D10021AF
:1025C0001046FFF7DABA0121FAE770470008004029
:1025D000FEF738FB00F0F0F8274C0020FEF7AAFACF
:1025E0002070607025A201210020FEF7DBFB26A2EF
:1025F00001210220FEF7D6FB26A201210420FEF7CE
:10260000D1FB27A201210620FEF7CCFB0020FEF71C
:1026100091FA207000B160706078012808D002281B
:1026200009D003281ED00428D7D1FFF729FED4E70C
:1026300000F0E6F8D1E700F081F8FFF721FE4FF453
:1026400048740820FFF794FDA042FAD90920FFF74B
:102650008FFDA042F5D900F099F9FFF7FBFC00F0DF
:1026600075F8FAE7FFF70CFE0F4C0121208882B2C3
:102670000220FFF705FFF8E748000020312EB2E204
:10268000C1BFC4A3CABD0000322EC6F4B6AFB3CCDE
:10269000D0F20000332EC9E3CFF1BCECB2E200006F
:1026A000342EB7B5BBD800006000002010B540F252
:1026B000B632914202DC5242914200DA11461A4C83
:1026C00088B1012804D0194C02280CD0032829D144
:1026D00000291DDB2046FFF771FB2046BDE81040B6
:1026E0000021FFF76DBB002908DB2046FFF762FBE6
:1026F0002046BDE810400021FFF75EBB494220465E
:10270000FFF75AFB2046BDE810400021FFF752BBFF
:1027100049422046FFF754FB2046BDE81040002107
:10272000FFF74CBB10BD0000000800400004004053
:102730000148408870470000000000200248002146
:1027400041808180704700000000002070B5154D69
:102750002868012820D1FFF793FD13A20121002052
:10276000FEF720FB2868012816D1114C6FF03106C6
:10277000216891B1C8210846FEF762F90D4C4FF46B
:10278000FA7020600120FFF7C9FD20680028F9D108
:1027900000F03CF90020286070BD32213046FEF781
:1027A0004FF9E5E714000020CCA8CFC200000000DC
:1027B0002C0000201000002010B504A201210220EE
:1027C000FEF7F0FABDE81040FFF75ABDD3F1BAE2C8
:1027D000B6D3000003480021418081800121880791
:1027E000FFF7CBB90000002003480021C180018120
:1027F00001210248FFF7C1B900000020000C004091
:1028000070B5FFF73DFD4FF4FA664FF4C8747510CC
:102810003CA201210020FEF7C5FA3EA201210220C0
:10282000FEF7C0FA3EA201210420FEF7BBFA3FA248
:1028300001210620FEF7B6FA0020FEF77BF90128F9
:1028400006D0022809D0032816D00428E0D170BD94
:10285000FDF7EEFDFFF714FDDAE7FFF711FD204667
:102860002146FEF7EDF8FFF763FFB042F5D90021EE
:102870000846FEF7E5F8CBE7FFF702FD00242DA29E
:1028800001210020FEF78EFA2DA201210220FEF781
:1028900089FA002C06DB2DA214210420FEF782FA0F
:1028A000A2B206E02AA214210420FEF77BFA6042BD
:1028B00082B21E210420FFF7E3FD23461A4611468B
:1028C0000846FFF73FFC0020FEF734F9012808D046
:1028D00002280BD003280FD00428B8D0AC42CEDD9C
:1028E000CAE7AC42FADA6420323407E014F57A7FA2
:1028F000F4DD6420323C01E064426420FFF7F4FC24
:10290000ECE7000031A1A2B4ABB8D0C6F7BCECB282
:10291000E200000032A1A2B6E6BBFABCECB2E200D3
:1029200033A1A2B5E7BBFABCECB2E20034A1A2B776
:10293000B5BBD800B0B4BCFCD2D4B8C4B1E400007C
:10294000B5E7BBFAD7AACBD93A00000020000000B7
:102950002D00000070B5FFF73DFF0B4C6FF0C70670
:102960004FF4E1753146C820FEF76AF8FFF7E0FE44
:10297000A84202D820680128F4D1BDE870400021A7
:102980000846FEF75DB800003800002010B5FFF7DC
:1029900077FC1AA205210220FEF704FA4FF4967084
:1029A000FFF7A2FCFFF76CFC16480146FEF748F85B
:1029B000154C4FF4966020600120FFF7AFFC2068B3
:1029C0000028F9D100210846FEF73AF84FF4FA70D2
:1029D00020600120FFF7A2FC20680028F9D1C8215F
:1029E0004842FEF72DF84FF4167020600120FFF7E3
:1029F00095FC20680028F9D110BD0000C9CFCCA8F3
:102A0000000000003EFEFFFF1000002010B5FFF7A1
:102A100037FC1AA205210220FEF7C4F94FF4967084
:102A2000FFF762FCFFF72CFC16480146FEF708F89A
:102A3000154C40F2DC5020600120FFF76FFC20684D
:102A40000028F9D100210846FDF7FAFF4FF4FA708B
:102A500020600120FFF762FC20680028F9D1C8211E
:102A60004842FDF7EDFF4FF4167020600120FFF79C
:102A700055FC20680028F9D110BD0000C9CFCCA8B2
:102A800000000000DAFDFFFF1000002010B591EA01
:102A9000030F48BF83F0004300F1E681841A71EB15
:102AA000030C05D2121943EB0C03001B61EB0C0164
:102AB000DFF824E14FEA1154A4EB135C1EEA430F44
:102AC00018BF9EEA445F73D023EA0E03DCF1200EA8
:102AD00021EA045143F4801332D322FA0CFE10EBA6
:102AE0000E0023FA0CFE41EB0E01CCF1200E03FA8E
:102AF0000EFE10EB0E0051F10001B1F5801FCCF17C
:102B0000200E32D201EB045112FA0EF2BDE8104051
:102B100058BF7047401C38BF5FEA420218BF704779
:102B2000002814BF20F0010041F100014FEA4103E9
:102B300013F5001F38BF7047A1F1C04100F086B9FE
:102B4000012A43EB0302ACF1200CDCF11F0E32BF73
:102B50004FF0000E23FA0CF310EB030041EB04518D
:102B6000B4EB115FD0D0A1EB045101F580114908FD
:102B70005FEA300001EB04510ED350F1000038BF82
:102B800012FA0EFE08D1BDE81040C9E7401C38BF5C
:102B90005FEA4202CAD1C3E7BDE810404FEA4103F1
:102BA00013F5001F38BF7047A1F1C04100F04EB9C6
:102BB0009EEA445F08D011EA5E0FBDE8104004BFF2
:102BC00001F0004100207047BDE8104070B500F0F2
:102BD000EFF800BF64FBBE3E0000E0FF4FEA115378
:102BE000A3F58063D3F11E03A8BFD3F1200C08DB4B
:102BF0004FF0004242EAC12252EA505232FA03F048
:102C0000704709420BD4102BC4BF0020704703F556
:102C1000787CBCF1FF3F05D04FF0FF3070474FF09C
:102C20000000704770B500F0C3F800BF49922480DF
:102C300000207047F0E7B0FA80F310FA03F10AD0F1
:102C4000C3F11D0303F580634FEA41504FEA03527D
:102C500002EBD12170474FF000007047DFF848C108
:102C600070B51CEA111E1EBF1CEA13159EEA0C0F5C
:102C700095EA0C0F00F06F8081EA030423EA4C13FD
:102C80004EEAD47E21EA4C1141F4801143F48013C2
:102C9000AE44A1FB024CA0FB0365AEF17F7E36196A
:102CA00055EB0C05A1FB034C4CF10003A0FB021CEF
:102CB00016EB0C06654153F10003094218BF46F0BC
:102CC000010613F4007F0BD14FEA03314FEA0530C0
:102CD000340341EA155140EA16506FF003020AE04E
:102CE0004FEAC3214FEAC520F40241EA555140EAB8
:102CF00056506FF0020202EB2E4201EB025585EABC
:102D0000CE710AD05FEA440C18BF24F0004450F1A1
:102D1000000041F1000120EAD47040F2FE7C6245DF
:102D200000D270BDA84214BF4FF080444FF0404421
:102D3000002E08BF0024BEF1806FA8BFA1F1C041E2
:102D4000BDE8704080F282804FF0000001F1C04188
:102D500001F0004170479EEA0C0F0CEA131518BFF2
:102D600095EA0C0F06D04FF0000081EA030E0EF03A
:102D7000004170BD00F01CF88900013E00F007B86A
:102D800000F009B84FEA430C5FEA5C5C08D081EAC6
:102D9000030100F05BB84FEA410C5FEA5C5CF6D1DE
:102DA0004FF00000014970470000FF070000F87F66
:102DB0000EF1020E2EF0030E5EF8046B364205D4BF
:102DC000012A43EB030515F5001F12D8012841EB3A
:102DD000010C1CF5001F0CD80ED14FEAD17C15F563
:102DE000001F0CEB4C0C0CF1020C08BF4CEBD37C1D
:102DF00004E04FF0080C01E04FEAD37C0CEB4C05EB
:102E000026FA05F606F00706B6F1040C06D20EEB1C
:102E1000860CBDE870404CF0010C6047DFE80CF018
:102E2000090B02024FF000414FF00000A1F5002114
:102E300070BD19461046012851EB010418BFD4F5A6
:102E4000001484BF002001F0004170BD0808A0F507
:102E500000114FEA3101704710B591EA030F48BFE6
:102E600083F000433FF51AAE841A71EB030C07D2CE
:102E700012198CF0004C43EB0C03001B61EB0C01AE
:102E8000DFF8A4E14FEA1154A4EB135C1EEA430FF0
:102E900018BF9EEA445F00F0B08023EA6E035242FE
:102EA00021EA0451C3EB6E0338BF5B1EDCF1200E38
:102EB00025D322FA0CFE10EB0E0043FA0CFE41EB78
:102EC0000E01CCF1200E03FA0EFE10EB0E0051F1B4
:102ED0000001CCF1200E29D412FA0EF201EB0451BC
:102EE000BDE8104058BF7047401C1CBFB2F1004FF6
:102EF000704700280CBF491C20F00100704712EBFE
:102F0000020E43EB030218BF4FF0010E4EEA4202DD
:102F1000ACF1200CDCF11E0E54D943FA0CFE10EB80
:102F20000E0051F1FF31CCF11E0ED5D50EF1010E80
:102F300012FA0EFE404141EB010101EB445C5FEAF5
:102F40005C5C10D910EBDE7001EB045138BFBEF1B0
:102F5000004FBDE8104018BF704700280CBF491C47
:102F600020F00100704730D24FEAD42C11F5001147
:102F700024F400641BD0B1FA81F20B3AA41AA41E07
:102F8000D2F12003914030FA03F31943904001EB52
:102F9000CC71002C01EB0451BDE81040A8BF704774
:102FA00001F1C0414FF0000001F000417047B0FA5C
:102FB00080F310FA03F100D110BDE41A173C480564
:102FC000C90AE4E701EB045110BD491001EB0451BB
:102FD000BDE810404FEA300002E04FF000017047BA
:102FE0004A0008BF0042F8D0B2F5001F28BF704762
:102FF00001F000414FF0000070479EEA445F07D0A7
:1030000011EA5E0FBDE8104004BF002100207047A8
:10301000BDE8104070B5FFF7CBFE00BF40DFF63EC5
:1030200083F00041104670470000E0FF4FF0407011
:10303000E1EE100A70470000583000080000002040
:1030400074000000C4010008CC30000874000020A7
:10305000C4060000E00100080000000000000000BD
:103060000000000000000000000000000000000060
:103070000000000000000000000000000000000050
:103080000000000000000000000000000000000040
:103090000000000000000000000000000000000030
:1030A000000000000000000001000000000000001F
:1030B0000000000000000000000000000000000010
:0C30C000010203040102030406070809D2
:040000050800018965
:00000001FF
