:020000040800F2
:10000000D0080020F5050008C9030008CB0300084C
:10001000CF030008D3030008D70300080000000046
:10002000000000000000000000000000DB030008EA
:10003000DD03000800000000DF030008E103000802
:100040000F0600080F0600080F0600080F0600083C
:100050000F0600080F0600080F0600080F0600082C
:100060000F0600080F0600080F0600080F0600081C
:100070000F0600080F0600080F0600080F0600080C
:100080000F0600080F0600080F0600080F060008FC
:100090000F0600080F0600080F0600080F060008EC
:1000A0000F0600080F0600080F0600080F060008DC
:1000B000B95600080F0600080F0600080F060008D2
:1000C0000F0600080F0600080F0600080F060008BC
:1000D0000F060008CB2A00080F060008012C0008B4
:1000E0000F0600080F0600080F0600080F0600089C
:1000F0000F0600080F0600080F0600080F0600088C
:100100000F0600080F060008F95800080F0600083F
:100110000F0600080F0600080F0600080F0600086B
:100120000F0600080F0600080F0600080F0600085B
:100130000F0600080F0600080F0600080F0600084B
:100140000F0600080F0600080F0600080F0600083B
:100150000F0600080F0600080F0600080F0600082B
:100160000F0600080F0600080F0600080F0600081B
:100170000F0600080F0600080F0600080F0600080B
:100180000F0600080F06000800F002F800F03CF827
:100190000AA090E8000C82448344AAF10107DA45E2
:1001A00001D100F031F8AFF2090EBAE80F0013F0F8
:1001B000010F18BFFB1A43F0010318476C640000DD
:1001C0008C640000103A24BF78C878C1FAD852076E
:1001D00024BF30C830C144BF04680C6070470000C1
:1001E0000023002400250026103A28BF78C1FBD840
:1001F000520728BF30C148BF0B6070471FB506F0DB
:100200000DFA1FBD10B510BD05F0D5FE1146FFF764
:10021000F5FF00F052F805F0F3FE03B4FFF7F2FF2C
:1002200003BC02F0F3FB000010B54FF4A06000F037
:1002300001FA0121084601F097F90121022001F09D
:1002400093F90121042001F08FF90121082001F028
:100250008BF90121102001F087F9A82002F054FB4E
:1002600005F0C4FD04F037F804F09CF902F072FCCC
:1002700004F02AFC03F0FEFD05F04EFE532140F28F
:10028000E73005F06CF903F076FB02F0CDFC36A206
:100290000121002003F075FC35A20121042003F0A8
:1002A00070FC37A20121062003F06BFC4FF47A703A
:1002B00002F08CFB03F05FFB10BDFFF7B5FF51E0D0
:1002C000002005F0D3FD3249087008460078314916
:1002D000087031A20121002003F053FC31A201215A
:1002E000022003F04EFC32A20121042003F049FC5D
:1002F00032A20121062003F044FC002005F0B6FDE7
:10030000234908700846007818B10846007821494A
:10031000087020480078012802D102F024FF21E073
:100320001C480078022802D102F071FE1AE0194838
:100330000078032810D142F2CF01312005F036F9C0
:1003400003F019FB07E01F48006810B902F08EFCAB
:1003500001E003F0DFF8F6E70E480078042801D149
:1003600003F009FBACE70000BBB6D3ADC4FA000054
:10037000CAB9D3C3CCECE7E1B6D3B3CCD0F200001A
:10038000526967687420526576657273656400000F
:100390000000002001000020312EBCECB2E2C4A31A
:1003A000CABD0000322ED6F7B3CCD0F20000000058
:1003B000332EB5E7BBFABCECB2E20000342EB7B581
:1003C000BBD8000054000020704700BFFEE700BF0C
:1003D000FEE700BFFEE700BFFEE7704770477047CB
:1003E000704700000CB5002001900090764800682E
:1003F00040F480307449086000BF7348006800F41E
:10040000003000900198401C0190009818B90198A4
:10041000B0F5A04FF1D16C48006800F4003010B185
:100420000120009001E0002000900098012846D1B2
:1004300065484030006840F08050634940310860B2
:100440006248006840F44040604908605E480830F7
:1004500000685D49083108600846006840F40040C3
:1004600008600846006840F4A05008605848091F1A
:100470000860081F006840F08070091F086000BF16
:100480005148006800F000700028F9D040F2057073
:10049000504908604C480830006820F003004A4981
:1004A000083108600846006840F00200086000BF9C
:1004B00045480830006800F00C000828F8D10CBD51
:1004C00010B54548006840F47000434908603E4854
:1004D000006840F001003C49086000203A490831BA
:1004E0000860394800683D490840374908603C4881
:1004F000091D0860081F006820F48020091F08609B
:10050000002031490C310860FFF76CFF4FF00060AC
:1005100031498039086010BD70B5002000220223E7
:1005200000240221284D08352D6805F00C0020B16B
:10053000042806D0082834D107E02A4D2A4E356019
:1005400033E02A4D284E35602FE01F4D2D1D2D68BC
:10055000C5F380541C4D2D1D2D6805F03F0154B18D
:10056000224DB5FBF1F5184E361D3668C6F38816D8
:1005700005FB06F209E01B4DB5FBF1F5124E361DE9
:100580003668C6F3881605FB06F20F4D2D1D2D6843
:10059000C5F301456D1C6B00B2FBF3F5124E3560DF
:1005A00003E0104D104E356000BF00BF064D08350A
:1005B0002D68C5F303150E4E705D0B4D2D68C540BB
:1005C000094E356070BD00000038024000700040E8
:1005D00008544007003C024088ED00E0FFFFF6FEB3
:1005E000103000240024F4001400002000127A00CF
:1005F000180000200948804709480047FEE7FEE749
:10060000FEE7FEE7FEE7FEE7FEE7FEE7FEE7FEE7C2
:1006100004480549054A064B70470000C10400081C
:1006200089010008D0020020D0080020D00400205A
:10063000D004002032490143324A1160704770B53E
:10064000002100230F22C4781CB32E4C246804F42C
:10065000E064C4F5E064C4F30721C1F10404E3B22B
:100660000A4144789C40E1B28478144021430C074D
:10067000210E254C05786155047804F01F050124EE
:10068000AC4005786D11AD0005F1E025C5F80041DD
:1006900009E0047804F01F050124AC401B4D0678E6
:1006A000761145F8264070BD194A0A400243154BA1
:1006B0001B1F1A60704739B1124A121D126802439B
:1006C000104B1B1D1A6006E00E4A121D1268824371
:1006D0000C4B1B1D1A607047042808D14FF0E02115
:1006E000096941F004014FF0E022116107E04FF089
:1006F000E021096921F004014FF0E0221161704707
:100700000000FA050CED00E000E400E080E100E00C
:1007100080FFFF1F10B50121080200F0D4FF002167
:100720004FF4807000F0CFFF10BD30B502460020BE
:1007300000235068F84C20400D790C6844EA0524E9
:10074000204350609068F54C2040D1E903542C437D
:100750008D682C434D7944EA450420439060D06A6B
:1007600020F470000C7D641EE4B2234340EA035081
:10077000D06230BD00210160017141718160C160B2
:1007800001610121017570470021E54A1168E54AC0
:100790001140D0E900231A4383681A43C3681A43FF
:1007A0001143E14AC2F8041370470021016041601F
:1007B0008160C160704721B1826842F001028260AD
:1007C00003E0826822F00102826070470A4600213D
:1007D0004168D64B194011434160704741628262C3
:1007E00070470A460021416821F01F011143416012
:1007F000704738B1CA49096841F40001CA4AC2F8D1
:10080000041306E0C649096821F40001C64AC2F88B
:100810000413704738B1C249096841F48001C24AE3
:10082000C2F8041306E0BE49096821F48001BE4AFB
:10083000C2F804137047F0B504460D4600200021AD
:10084000092D11DDE068A5F10A0606EB460707262B
:1008500006FA07F18843A5F10A0606EB460603FAF5
:1008600006F10843E0600CE0206905EB4507072628
:1008700006FA07F1884305EB450603FA06F108433B
:100880002061072A0FDA606B561E06EB86071F26CB
:1008900006FA07F18843561E06EB860605FA06F1AE
:1008A0000843606322E00D2A0FDA206BD61F06EBA7
:1008B00086071F2606FA07F18843D61F06EB860631
:1008C00005FA06F10843206310E0E06AA2F10D0684
:1008D00006EB86071F2606FA07F18843A2F10D06EC
:1008E00006EB860605FA06F10843E062F0BD816872
:1008F00041F0804181607047014600208A6802F023
:1009000080420AB1012000E00020704721B18268D6
:1009100042F48062826003E0826822F48062826036
:10092000704721B1826842F00202826003E082686F
:1009300022F002028260704710B50A4600210023AF
:10094000416821F46041531E41EA4331416010BDCA
:1009500021B1426842F40062426003E0426822F43E
:100960000062426070470146C86C80B270476C48B4
:10097000001D0068704721B1826842F48072826075
:1009800003E0826822F480728260704721B182683D
:1009900042F40072826003E0826822F40072826096
:1009A000704738B15E49096841F400515E4AC2F8A7
:1009B000041306E05A49096821F400515A4AC2F862
:1009C00004137047F0B504461546002000220026A7
:1009D000092911DDE068A1F10A0707EB470C072799
:1009E00007FA0CF29043A1F10A0707EB470703FA55
:1009F00007F21043E0600CE0206901EB410C07278F
:100A000007FA0CF2904301EB410703FA07F2104397
:100A10002061A06BC0F30156EF1C06F1010CA7EB9F
:100A20000C0707EB870C1F2707FA0CF29043EF1C0B
:100A300006F1010CA7EB0C0707EB870701FA07F299
:100A40001043A063F0BD10B50A4600210023816B5E
:100A500021F44011531E41EA0351816310BD08B5D2
:100A6000002300930090009B0B440093009B1A60AE
:100A700008BD0A460021816821F47021114381607C
:100A800070470A460021816821F4401111438160BA
:100A90007047816841F48001816070470146002001
:100AA0008A6802F480020AB1012000E00020704749
:100AB00021B1426842F48062426003E0426822F45D
:100AC00080624260704721B1426842F480524260C5
:100AD00003E0426822F480524260704708B5024643
:100AE00000200090009201F12800009B1844009023
:100AF0000098006880B208BD10B50B460021D9B23D
:100B0000012404FA01F11AB144680C43446002E084
:100B100044688C43446010BDFFFEFFFCFDF7FFC03E
:100B200004230140E030FCFF00200140FFFD3FFFB7
:100B30000246002013680B400BB1012000E00020AA
:100B40007047CA430260704770B502460020002318
:100B500000240B12556801268E4005EA060415682C
:100B60001D4015B10CB1012000E0002070BD002235
:100B70000A12D34303607047016821F0010101604C
:100B80000021016041608160C160016121214161FA
:100B9000DB49884204D13D21D94A103A91608CE06A
:100BA000D7491831884205D14FF47461D44A103ABC
:100BB000916082E0D2493031884205D14FF47411FE
:100BC000CF4A103A916078E0CD494831884205D14A
:100BD0004FF07461CA4A103A91606EE0C8496031C2
:100BE000884204D1C749C64A103AD16065E0C44979
:100BF0007831884204D1C449C14A103AD1605CE0DE
:100C0000BF499031884204D1C049BD4A103AD160F1
:100C100053E0BB49A831884205D14FF03D51B84A55
:100C2000103AD16049E0BA49884204D13D21B84A1E
:100C3000083A116041E0B6491831884205D14FF4B5
:100C40007461B34A083A116037E0B14930318842E3
:100C500005D14FF47411AE4A083A11602DE0AC4949
:100C60004831884205D14FF07461A94A083A1160B1
:100C700023E0A7496031884204D1A249A44A121F47
:100C800011601AE0A2497831884204D19E49A04AF5
:100C9000121F116011E09E499031884204D19B4996
:100CA0009B4A121F116008E09949A831884204D17B
:100CB0004FF03D51964A121F1160704710B5002247
:100CC0000268944B1A40CC680B6823434C69234359
:100CD0008C692343CC6923430C6A23434C6A234326
:100CE0008C6A23434C6B23438C6B23431A4302606F
:100CF000426922F00702D1E90B3423431A434261CF
:100D00000B6943604B6883608B68C36010BD002132
:100D1000016041608160C160016141618161C161C7
:100D2000016241628162C162016341638163704714
:100D300021B1026842F00102026003E0026822F081
:100D400001020260704721B1026842F40042026071
:100D500003E0026822F400420260704721B1026899
:100D600042F02002026003E0026822F020020260EA
:100D70007047416070470146486880B2704722B1B1
:100D8000036843F40023036003E0036823F40023B3
:100D900003600161704721B1026842F48022026061
:100DA00003E0026822F48022026070470AB1016108
:100DB00000E0C1607047014600200A6802F400228A
:100DC0000AB1012000E000207047014600200A68B7
:100DD00002F001020AB1012000E000207047014644
:100DE00000204A6902F03800704730B503460A46D1
:100DF00000200024464DAB4202D24149103901E0A7
:100E00004349103902F000550DB14C6800E00C6800
:100E1000414D2C4004EA02050DB1012000E0002004
:100E200030BD02463A4B9A4202D23548103801E0B2
:100E30003748103801F000531BB1374B0B40C360EB
:100E400002E0354B0B408360704710B501F0800322
:100E50004BB122B1436943F08003436103E043692E
:100E600023F08003436180290BD02AB1036801F08D
:100E70001E042343036004E0036801F01E04A3433F
:100E8000036010BD70B50246002000240025204EEE
:100E9000B24202D21A4B103B01E01D4B103B1F4ED9
:100EA0000E4036B11E2606EAD124166806EA04056D
:100EB00002E0566906F0800501F000560EB15C684C
:100EC00000E01C68144E344004EA010616B10DB16E
:100ED000012000E0002070BD02460D4B9A4202D274
:100EE0000748103801E00A48103801F000531BB1E0
:100EF000094B0B40C36002E0074B0B408360704717
:100F0000106002403D000020400F002000003D2006
:100F1000106402403F801CF07D0F7D0F3C0F3C0FA2
:100F200010B504469848844208D10121084600F0D3
:100F300086FB0021012000F082FB76E0934884428A
:100F400008D10121022000F07AFB0021022000F0EC
:100F500076FB6AE08E48844208D10121042000F02B
:100F60006EFB0021042000F06AFB5EE089488442A9
:100F700008D10121082000F062FB0021082000F0C8
:100F80005EFB52E08448844208D10121102000F029
:100F900056FB0021102000F052FB46E07F488442BF
:100FA00008D10121202000F04AFB0021202000F080
:100FB00046FB3AE07A48844208D10121402000F003
:100FC0003EFB0021402000F03AFB2EE075488442B1
:100FD00008D10121802000F032FB0021802000F0A8
:100FE0002EFB22E07048844208D10121801500F0D8
:100FF00026FB0021A01500F022FB16E06B4884427E
:1010000008D10121401500F01AFB0021601500F005
:1010100016FB0AE06648844207D10121001500F062
:101020000EFB0021201500F00AFB10BDF0B50A46AA
:1010300000210023002400BF3DE0012505FA01F353
:10104000156805EA03049C4234D105684F00032665
:10105000BE40B543056015794E00B540066835437E
:1010600005601579012D02D01579022D16D18568FC
:101070004F000326BE40B543856055794E00B5400C
:10108000866835438560456801268E40B5434560D6
:10109000456896798E40B6B235434560C5684F00C5
:1010A0000326BE40B543C560D5794E00B540C6683D
:1010B0003543C560491C1029BFD3F0BD4FF6FF7101
:1010C00001600021017141718171C171704708B5E2
:1010D0004FF480320092009A0A430092009AC26153
:1010E000C161009AC261C2690092C269009208BDE2
:1010F0000246002013690B400BB1012000E00020E4
:1011000070470146086980B2704702460020536963
:101110000B400BB1012000E00020704701464869F8
:1011200080B2704701837047418370470AB10183E1
:1011300000E0418370474161704742694A40426123
:101140007047F0B5002300244D07ED0E02FA05F3B9
:10115000CE1000F1200555F826504E07F70E0F2649
:10116000BE40B543CF1000F1200646F82750CE1000
:1011700000F1200555F8265045EA0304CE1000F191
:10118000200545F82640F0BD000002400004024062
:1011900000080240000C024000100240001402400F
:1011A00000180240001C02400020024000240240BF
:1011B00000280240F948006840F00100F749086043
:1011C0000020F64908310860F4480068F4490840F6
:1011D000F2490860F348091D0860F348EF4984317B
:1011E0000860F0481038091D0860EC48006820F4D9
:1011F0008020EA4908600020E8490C310860E7498E
:101200008C31086070470021E44A921C117011462D
:101210000870704710B501460022002300204A11D3
:10122000012A02D1DD4C236808E0022A03D1DB4CFD
:101230007034236802E0D94C7434236801F01F0233
:10124000012494401C400CB1012000E0002010BD9E
:1012500038B5002000900024002500BF3120FFF7A2
:10126000D9FF05460098401C00900098B0F5A04FAB
:1012700001D0002DF2D03120FFF7CCFF08B10124BE
:1012800000E00024204638BD01460020C34A106813
:1012900020F0F80040EAC10010607047C3490860C0
:1012A00070470021BD4A703211701170012802D0C0
:1012B00004280AD104E00121B84A7032117005E017
:1012C0000521B64A7032117000E000BF00BF7047C0
:1012D000B7490860704770B5049C41EA8215012641
:1012E000C6EB530645EA0645054345EA0465AB4EA1
:1012F000361D356070BDAD4908667047820142EA0F
:101300000172A64B84331A607047A84988667047FB
:1013100010B5830143EA016343EA02739F4C8834AA
:10132000236010BDA14908677047A049C864704791
:1013300002460020994B0833186820F0EC6042EA1E
:1013400001031843954B083318607047024600208C
:10135000924B0833186820F0784042EA01031843A2
:101360008E4B083318607047014600208B4A0832C4
:10137000106820F003000843106070478748083069
:10138000006800F00C00704701460020834A0832D4
:10139000106820F0F00008431060704701460020FC
:1013A0007E4A0832106820F4E0500843106070470D
:1013B00001460020794A0832106820F4604040EA73
:1013C000C10010607047F0B5002100220024022502
:1013D00000260223714F08373F6807F00C0121B146
:1013E000042905D0082937D105E0724F076036E09F
:1013F000714F076033E0694F3F1D3F68C7F3805668
:10140000664F3F1D3F6807F03F036EB16A4FB7FB61
:10141000F3F7DFF888C10CF1040CDCF800C0CCF362
:10142000881C07FB0CF40CE0624FB7FBF3F7DFF806
:101430006CC10CF1040CDCF800C0CCF3881C07FB79
:101440000CF4564F3F1D3F68C7F301477F1C7D00DA
:10145000B4FBF5F7076002E0564F076000BF00BF1E
:101460004E4F08373F6807F0F0010909534F7A5C87
:101470000768D7404760494F08373F6807F4E05195
:10148000890A4E4F7A5C4768D7408760434F0837D8
:101490003F6807F46041490B484F7A5C4768D74082
:1014A000C760F0BD002100F44072B2F5407F0AD160
:1014B0003A4A0832116821F4F811414A02401143B6
:1014C000364A08321160354A70321268C0F30B0395
:1014D0001A43324B70331A607047354944390860FB
:1014E0007047334940390860704736490860704793
:1014F00001460020294A8C32106820F01F004A1E45
:101500001043264A8C321060704701460020234A5F
:101510008C32106820F4F8504A1E40EA02201F4A1C
:101520008C3210607047014600201C4A8C321068D3
:1015300020F4401008431060704701460020174A0D
:101540008C32106820F44000084310607047014658
:101550000020124A8C32106820F44030084310609A
:10156000704719490860704739B10C4A3032126827
:1015700002430A4B30331A6006E0084A30321268E0
:101580008243064B30331A607047F9B1034A343254
:1015900012680243014B34331A601CE000380240E9
:1015A000FFFFF6EA10300024003000200000474220
:1015B000800E47420024F40000127A002800002028
:1015C000FFFCFF0F5C014742E01147428F4A12685F
:1015D00082438E4B1A60704739B18C4A121D1268D3
:1015E00002438A4B1B1D1A6006E0884A121D1268CE
:1015F0008243864B1B1D1A60704739B1834A0C32F7
:1016000012680243814B0C331A6006E07F4A0C32A9
:10161000126882437D4B0C331A60704739B17B4AA4
:10162000103212680243794B10331A6006E0774A91
:10163000103212688243754B10331A60704739B10B
:10164000724A243A12680243704B243B1A6006E047
:101650006E4A243A126882436C4B243B1A607047EE
:1016600039B16A4A203A12680243684B203B1A603B
:1016700006E0664A203A12688243644B203B1A60B7
:10168000704739B1614A1C3A126802435F4B1C3BF8
:101690001A6006E05D4A1C3A126882435B4B1C3BB1
:1016A0001A60704739B1594A143A12680243574BCD
:1016B000143B1A6006E0554A143A12688243534BB1
:1016C000143B1A60704739B1504A103A126802430D
:1016D0004E4B103B1A6006E04C4A103A12688243A7
:1016E0004A4B103B1A60704739B1484A1C321268A5
:1016F0000243464B1C331A6006E0444A1C3212680F
:101700008243424B1C331A60704739B13F4A203242
:10171000126802433D4B20331A6006E03B4A2032F8
:1017200012688243394B20331A60704739B1374A07
:10173000243212680243354B24331A6006E0334AE0
:10174000243212688243314B24331A60704739B116
:101750002E4A2C32126802432C4B2C331A6006E0BE
:101760002A4A2C3212688243284B2C331A60704765
:1017700039B1264A303212680243244B30331A60A2
:1017800006E0224A303212688243204B30331A601E
:101790007047012808D11D493C31096841F0080112
:1017A0001A4A3C32116007E018493C31096821F0BF
:1017B0000801164A3C321160704739B1134A273A82
:1017C00012780243114B273B1A7006E00F4A273A62
:1017D000127882430D4B273B1A7070470B484030FC
:1017E000006840F080700949403108607047014648
:1017F0000020064A283A12680A400AB1012000E097
:10180000002070470149263908707047343802407B
:1018100010B50446FE48844208D101210846FFF76E
:1018200052FF00210120FFF74EFF9DE0B4F1804FF1
:1018300008D101210846FFF735FF00210120FFF7FD
:1018400031FF91E0F348844208D101210220FFF7E3
:1018500029FF00210220FFF725FF85E0EE488442A2
:1018600008D101210420FFF71DFF00210420FFF70C
:1018700019FF79E0E948844208D101210820FFF7E7
:1018800011FF00210820FFF70DFF6DE0E4488442BE
:1018900008D101211020FFF705FF00211020FFF7DC
:1018A00001FF61E0DF48844208D101212020FFF7D9
:1018B000F9FE00212020FFF7F5FE55E0DA488442CA
:1018C00008D101210220FFF7FEFE00210220FFF7D0
:1018D000FAFE49E0D548844209D101210804FFF706
:1018E000F2FE00214FF48030FFF7EDFE3CE0D048DF
:1018F000844209D101214804FFF7E5FE00214FF49D
:101900000030FFF7E0FE2FE0CA48844209D10121F0
:101910008804FFF7D8FE00214FF48020FFF7D3FEA4
:1019200022E0C548844208D101214020FFF7BAFED9
:1019300000214020FFF7B6FE16E0C048844208D1DF
:1019400001218020FFF7AEFE00218020FFF7AAFED4
:101950000AE0BB48844207D101218015FFF7A2FEAF
:101960000021A015FFF79EFE10BD00220288A84BA3
:1019700098420ED0AC4B98420BD0B0F1804F08D0BB
:10198000A44B984205D0A44B984202D0A34B984256
:1019900004D14FF68F731A404B881A43A04B9842DC
:1019A00007D0A04B984204D04FF6FF431A400B8952
:1019B0001A4302804B68C3620B880385944B98429C
:1019C00002D0994B984201D18B7A038601238382FE
:1019D00070474FF0FF31416000210180018141805B
:1019E000817270470185828270470A460021018812
:1019F0004FF68F7319401143018070474162704761
:101A0000C16270470146486A70470146088D7047B9
:101A100021B1028842F00202028004E002884FF6FF
:101A2000FD731A400280704721B1028842F004021F
:101A3000028004E002884FF6FB731A400280704770
:101A400021B1028842F08002028004E002884FF651
:101A50007F731A400280704702884FF6F7731A406E
:101A6000028002880A430280704702884FF6FF43D3
:101A70001A40028002880A430280704721B102881E
:101A800042F00102028004E002884FF6FE731A4021
:101A90000280704770B5002400220023058C4FF6A9
:101AA000FE7635400584028C8388048B4FF68F7553
:101AB0002C40B51E2C400D882C43751E2A408D8964
:101AC0002A434D882A43524DA84202D0564DA8427F
:101AD00013D14FF6F7752A40CD892A434FF6FB758F
:101AE0002A408D882A434FF6FF652B404FF6FF555D
:101AF0002B400D8A2B434D8A2B43838004838D68B2
:101B00004563028470BD70B5002400220023058C5B
:101B10004FF6EF7635400584028C8388048B48F6B7
:101B2000FF752C404FF6FF452C400D884FF6FF7691
:101B300006EA05252C434FF6DF752A408D8906EA13
:101B400005152A434D8806EA05152A43304DA8425B
:101B500002D0354DA8421DD14FF67F752A40CD8960
:101B60004FF6FF7606EA05152A434FF6BF752A4061
:101B70008D8806EA05152A434FF6FF352B404FF2B4
:101B8000FF752B400D8A06EA85052B434D8A06EA30
:101B900085052B43838004838D688563028470BD33
:101BA00070B5002400220023058C4FF6FF663540F7
:101BB0000584028C8388848B4FF68F752C404FF6FA
:101BC000FC752C400D882C434FF6FF552A408D891B
:101BD0004FF6FF7606EA05252A434D8806EA0525D5
:101BE0002A430B4DA84202D00F4DA84238D14FF2E4
:101BF000FF752A40CD894FF6FF7606EA05252A4370
:101C00004FF6FF352A408D8806EA05252A4319E05C
:101C1000000001400004004000080040000C0040AB
:101C2000001000400014004000040140004001404A
:101C3000004401400048014000180040001C0040E2
:101C4000002000404EF6FF752B404DF6FF752B40EF
:101C50000D8A06EA05152B434D8A06EA05152B4326
:101C6000838084838D68C563028470BD70B5002253
:101C700000230024058C4EF6FF7635400584038C46
:101C80008488828B48F6FF752A404FF6FF452A402C
:101C90000D884FF6FF7606EA05252A434DF6FF75B7
:101CA0002B408D8906EA05352B434D8806EA05351C
:101CB0002B43FE4DA84202D0FD4DA84208D14BF661
:101CC000FF752C400D8A4FF6FF7606EA85152C43EA
:101CD000848082838D680564038470BD0021018047
:101CE0004180818081608181C18101824182704710
:101CF00070B50346002000241846183001258D4099
:101D0000ACB21D8CA5431D8409B108290AD100EB92
:101D1000610005684FF68F7635400560056815430C
:101D200005600FE00D1FC5F34E052844056848F611
:101D3000FF763540056005684FF6FF7606EA022615
:101D40003543056070BD4163704781637047C1636F
:101D50007047016470470A460021018B4FF68F736C
:101D600019401143018370470A460021018B48F650
:101D7000FF7319404FF6FF7303EA022319430183EF
:101D800070470A460021818B4FF68F73194011432B
:101D9000818370470A460021818B48F6FF73194002
:101DA0004FF6FF7303EA02231943818370470A4603
:101DB0000021018B4FF6F7731940114301837047DF
:101DC0000A460021018B4FF2FF7319404FF6FF7353
:101DD00003EA02231943018370470A460021818BDD
:101DE0004FF6F77319401143818370470A4600216B
:101DF000818B4FF2FF7319404FF6FF7303EA022302
:101E00001943818370470A460021018B4FF6FB730B
:101E100019401143018370470A460021018B4FF698
:101E2000FF3319404FF6FF7303EA0223194301837E
:101E300070470A460021818B4FF6FB73194011430E
:101E4000818370470A460021818B4FF6FF3319408A
:101E50004FF6FF7303EA02231943818370470A4652
:101E60000021018B4FF67F731940114301837047A6
:101E70000A460021018BC1F30E014FF6FF7303EAFE
:101E800002231943018370470A460021818B4FF6D4
:101E90007F7319401143818370470A460021818B6B
:101EA000C1F30E014FF6FF7303EA02231943818346
:101EB00070470A460021018C4FF6FD73194011430B
:101EC000018470470A460021018C4FF6F7731940D0
:101ED0001143018470470A460021018C4FF6DF73DD
:101EE00019404FF6FF7303EA021319430184704748
:101EF0000A460021018C4FF67F7319404FF6FF739D
:101F000003EA02131943018470470A460021018C39
:101F10004FF6FF5319404FF6FF7303EA02231943AC
:101F2000018470470A460021018C4FF2FF7319406B
:101F30004FF6FF7303EA02231943018470470A46F0
:101F40000021018C4DF6FF7319404FF6FF7303EA31
:101F5000023319430184704730B5002301248C40BB
:101F6000A3B2048C9C430484048C02FA01F5ADB244
:101F70002C43048430BD30B5002304248C40A3B22C
:101F8000048C9C430484048C02FA01F5ADB22C430A
:101F9000048430BD828B4FF2FF331A408283828BE0
:101FA0004FF6FF7303EA01231A4382837047F0B5AB
:101FB0000C461546002100220026078C4EF6FF7CB9
:101FC00007EA0C070784818B028C4FF6FF7707EA3C
:101FD000043640F6FF4739404FF6FF7707EA0527FA
:101FE00039434FF6FF7707EA0337394345F6FF7762
:101FF0003A4046F480573A4381830284F0BD828B95
:102000004FF6F3731A408283828B0A4382837047B0
:10201000F0B50C461546002100220026078C4FF62D
:10202000FF6C07EA0C070784818B028C4FF6FF7761
:1020300007EA04264FF60C7739404FF6FF7707EA98
:1020400003172F4339434FF2FF573A4046F4807746
:102050003A4381830284F0BD028B4FF2FF331A4072
:102060000283028B4FF6FF7303EA01231A430283B4
:102070007047F0B50C461546002100220026078C5B
:102080004FF6EF7C07EA0C070784018B028C4FF6B2
:10209000FF7707EA041640F6FF4739404FF6FF770F
:1020A00007EA033739434FF6FF7703E000000140AA
:1020B0000004014007EA052739434FF65F773A40AD
:1020C00046F010073A4301830284F0BD028B4FF6BD
:1020D000F3731A400283028B0A4302837047F0B500
:1020E0000C46154600210022068C4FF6FE773E4036
:1020F0000684018B028C4FF60C7631407E1C06EA7A
:1021000003162E4331434FF6F576324044F0010674
:10211000324301830284F0BD70B505460C46208829
:1021200050B92389A28861882846FFF7D8FFE18843
:102130002846FFF7CBFF25E0208804280AD1238911
:10214000A28861882846FFF794FFE1882846FFF7B8
:1021500083FF17E0208808280AD12389A288618894
:102160002846FFF755FFE1882846FFF748FF09E0BA
:102170002389A28861882846FFF719FFE18828464D
:10218000FFF708FF70BD002101804180012181809F
:102190000021C180018170472DE9F04105460C46C0
:1021A00000260127608808B9022600E00026A088E2
:1021B000012801D1022700E001272088A0B9238946
:1021C000A28861882846FFF78AFFE1882846FFF742
:1021D0007DFF23893A4631462846FFF74AFFE188CA
:1021E0002846FFF739FF13E02389A2886188284633
:1021F000FFF73FFFE1882846FFF72EFF23893A4685
:1022000031462846FFF76BFFE1882846FFF75EFF5F
:10221000BDE8F0810146486B70470146886B704706
:102220000146C86B70470146086C70470A884B88A6
:102230001A438B881A43CB881A430B891A434B895C
:102240001A438B891A43A0F844207047002101806B
:1022500041808180C180018141818181704731B19C
:10226000B0F8442042F40042A0F8442005E0B0F861
:102270004420C2F30E02A0F84420704721B18288A6
:1022800042F00402828004E082884FF6FB731A4019
:102290008280704721B1828842F00102828004E08E
:1022A00082884FF6FE731A40828070471AB1838984
:1022B0000B43838102E083898B4383817047818252
:1022C000704702460020138A0B400BB1012000E04A
:1022D00000207047CA430282704730B50246002092
:1022E00000230024158A05EA0103958905EA010403
:1022F00013B10CB1012000E0002030BDCA430282BE
:10230000704741EA0203A0F8483070471AB1838948
:102310000B43838102E083898B438381704721B122
:10232000828842F00802828004E082884FF6F773C8
:102330001A408280704701894FF6F872114001817E
:1023400070470A46002101894FF68F7319401143E7
:102350000181704730B504460D4629462046FFF7F7
:10236000F0FF208940F00700208130BD2DE9F041C9
:1023700004460D4616461F46602D06D13B460122F7
:1023800031462046FFF775FE05E03B460122314607
:102390002046FFF7A4FE29462046FFF7D2FF2089FA
:1023A00040F007002081BDE8F08130B50C460021E7
:1023B0000189C9B24FF6FF7505EA03251543254388
:1023C0002943018130BD2DE9F04105460E461746EF
:1023D0009846002443463A4631462846FFF7E5FF33
:1023E0002C894FF6F870044044F007044FF68F70C4
:1023F000044044F070042C81BDE8F081F0B504463F
:102400000D4616461F463B46324629462046FFF7F4
:10241000CCFF208940F480402081F0BD82884FF6B7
:102420008F731A40828082880A43828070470289B3
:102430004FF6F8731A40028102890A4302817047FD
:1024400002894FF67F731A40028102890A43028192
:102450007047F0B50C4615461E46002100220023A9
:102460000189028B038C4FF6F877394021434FF6F0
:10247000FC473A4040F201173A434FF6DD773B40C4
:102480004FF6FF7707EA06172F433B43018102838C
:102490000384F0BD21B1828842F08002828004E092
:1024A00082884FF67F731A4082807047A0F85010E0
:1024B0007047000010B50446FA48844208D1012153
:1024C0001020FFF700F900211020FFF7FCF857E07B
:1024D000F548844209D101214804FFF7E3F80021BF
:1024E0004FF40030FFF7DEF84AE0F048844209D1AB
:1024F00001218804FFF7D6F800214FF48020FFF770
:10250000D1F83DE0EA48844209D10121C804FFF72F
:10251000C9F800214FF40020FFF7C4F830E0E54887
:10252000844209D101210805FFF7BCF800214FF4CE
:102530008010FFF7B7F823E0DF48844208D101217B
:102540002020FFF7C0F800212020FFF7BCF817E09B
:10255000DA48844209D101218807FFF7A3F8002156
:102560004FF08040FFF79EF80AE0D548844207D13B
:1025700001214005FFF796F800216005FFF792F86A
:1025800010BD2DE9FF4705460E460024A14600BFB9
:10259000A046B08900B100BF2C8A24F44054F088D2
:1025A00004432C82AC8941F20C608443B0883189A9
:1025B0000843718908430443AC81AC8A24F4407415
:1025C000B0890443AC826846FEF7FDFEB5488542FB
:1025D00002D0B948854202D1DDF80C9001E0DDF867
:1025E0000890A88900F4004040B109EBC90000EB55
:1025F000091031684900B0FBF1F707E009EBC900A9
:1026000000EB091031688900B0FBF1F76420B7FBDB
:10261000F0F004012009642101FB1078A88900F47E
:10262000004040B1322000EBC800B0FBF1F000F0F8
:102630000700044308E0322000EB08106421B0FBDF
:10264000F1F000F00F0004432C81BDE8FF874FF448
:102650001651016000218180C18001810C214181DE
:1026600000218181704710B502460020108A20F4B5
:1026700070600B884C8823438C882343CC88234389
:102680001843108210BD0021018041808180C180EB
:10269000704721B1828942F40052828104E082892C
:1026A0004DF6FF731A4082817047028B02F47F421D
:1026B0000283028B0A430283704721B1828942F46C
:1026C0000042828103E08289C2F30E028281704758
:1026D00021B1828A42F40062828204E0828A4FF24F
:1026E000FF731A4082827047C1F3080282807047EC
:1026F00001468888C0F308007047028A4FF6F073DD
:102700001A400282028A0A430282704721B18289FA
:1027100042F00202828104E082894FF6FD731A4082
:102720008281704782894FF2FF731A4082818289C9
:102730000A4382817047028A4FF6DF731A40028291
:10274000028A0A430282704721B1028A42F480421F
:10275000028204E0028A4BF6FF731A40028270473D
:10276000818941F001018181704721B1828A42F063
:102770000802828204E0828A4FF6F7731A4082824E
:102780007047028BD2B20283028B42EA012202839B
:10279000704721B1828A42F02002828204E0828A5C
:1027A0004FF6DF731A408282704721B1828A42F06D
:1027B0001002828204E0828A4FF6EF731A4082820E
:1027C0007047828A4FF6FB731A408282828A0A43DC
:1027D0008282704721B1828A42F00202828204E042
:1027E000828A4FF6FD731A40828270471AB1838A3B
:1027F0000B43838202E0838A8B4383827047F0B568
:102800000346002400260025002040F66A17B9423E
:1028100000D100BF1846C1F3421401F01F06012782
:1028200007FA06F5012C01D10C3004E0022C01D18D
:10283000103000E014301AB107682F43076002E03F
:102840000768AF430760F0BD02460020B1F5007F86
:1028500000D100BF13880B400BB1012000E0002025
:10286000704701F40072B2F5007F00D100BFCA4387
:102870000280704770B50246002400230025002026
:1028800040F66A16B14200D100BFC1F3421501F013
:102890001F03012606FA03F3012D13D19689334055
:1028A00017E00000001001400044004000480040D4
:1028B000004C0040005000400014014000780040EF
:1028C000007C0040022D02D1168A334001E0968A36
:1028D00033400C12012606FA04F41688344013B172
:1028E0000CB1012000E0002070BD10B500220023D3
:1028F00040F66A14A14200D100BF0A12012494409C
:10290000A3B2DC43048010BD10B504466FF0040090
:10291000FDF7E2FEE11704EB5171C1F3C701394A3B
:1029200011701046007800EB4001C1EBC0104FF66B
:10293000FF7101EAC0003449088010BD0146314AE8
:1029400012784A434FF0E0235A6100229A611A46F6
:10295000126942F001021A6100BF4FF0E0221069D3
:1029600000F001021AB100F48032002AF5D04FF0D5
:10297000E022126922F001024FF0E0231A610022E6
:102980009A6170470146204A12884A434FF0E0237B
:102990005A6100229A611A46126942F001021A61D4
:1029A00000BF4FF0E022106900F001021AB100F4FC
:1029B0008032002AF5D04FF0E022126922F00102A5
:1029C0004FF0E0231A6100229A61704770B5044607
:1029D0004FF4077094FBF0F0C6B24FF4077094FB0D
:1029E000F0F100FB114085B205E04FF40770FFF7EE
:1029F000C9FF701EC6B2002EF7D115B12846FFF7E9
:102A0000C1FF70BD380000203A00002000BF7047B1
:102A100000BF4C4A128802F04002002AF9D0C2B22C
:102A2000484B9A80704710B588B00446012108468B
:102A3000FEF79AFD01211020FEF7F0FD0722092183
:102A40004148FEF77EFB07220A213F48FEF779FB4B
:102A50004FF4C060069002208DF81C008DF81D0018
:102A600000208DF81E0001208DF81F0006A93648B1
:102A7000FEF7DCFA02940020ADF80C00ADF80E0071
:102A8000ADF81000ADF814000C20ADF8120002A94A
:102A90002C48FFF776FD01212A48FFF7FAFD0122B5
:102AA00040F225512748FFF7AAFE25208DF80400A3
:102AB00003208DF805008DF8060001208DF8070031
:102AC00001A8FDF7BCFD08B010BD10B540F22551BE
:102AD0001C48FFF7CFFE10B31A48FFF709FEC4B237
:102AE0001A48008800F40040C8B91848008800F46B
:102AF000804060B10A2C03D000201449088020E0F7
:102B00001248008840F400401049088019E00D2C5C
:102B100006D10E48008840F480400C49088010E03F
:102B20000A480088C0F30D0009490C540748008882
:102B3000401C0649088008460088C72801DD00209F
:102B4000088010BD0010014000000240400000203D
:102B5000F000002000B587B001218804FEF74DFD8C
:102B600001210420FEF700FD01212C48FFF791FD13
:102B70004FF4E13003900020ADF81000ADF81200E2
:102B8000ADF814000C20ADF816000020ADF81800C8
:102B900003A92248FFF7F5FC012240F225511F4806
:102BA000FFF72DFE07220A211D48FEF7CAFA072269
:102BB0000B211B48FEF7C5FA4FF44060019002203C
:102BC0008DF8080003208DF8090001208DF80B0016
:102BD00000208DF80A0001A91148FEF727FA2720E6
:102BE0008DF8000003208DF8010002208DF802000E
:102BF00001208DF803006846FDF721FD07B000BDF8
:102C000010B540F225510548FFF734FE20B10348C6
:102C1000FFF76EFD0349086010BD70470048004093
:102C2000000802404400002010B5022001F0FEFD23
:102C300078280ADA022001F0F9FD3C2805DD0120A0
:102C4000FD4908600020FD490860022001F0EEFD0A
:102C5000F0280ADA022001F0E9FD962805DD0020BF
:102C6000F54908600120F549086010BD10B5F44829
:102C7000006809287ED2DFE800F00513486A9BC689
:102C8000F3EEED0009E002F0C0F8ED48006820B175
:102C90000021084601F0A9FB00E0F4E700BF5EE177
:102CA0000021084601F0A1FBC820FFF78FFE02F0CB
:102CB000A8FCE4480068352807D102F0F5F94FF484
:102CC0009671084601F091FB1EE01BE0DE480168AA
:102CD000DE48006801F089FB002001F0A7FDDC4917
:102CE0000968884206DB012001F0A0FDD849096887
:102CF000884207DAD7A20121002000F042FF02F04B
:102D00005EF800E0E2E700BF29E102F07AFC1BE098
:102D10006FF06301642001F068FB002001F086FD84
:102D2000CB49096888420ADB012001F07FFDC849D0
:102D30000968884203DBC2480068012804D10021E9
:102D4000084601F052FB00E0E2E700BF07E102F0B5
:102D500058FC26E06FF06301642001F046FB002080
:102D600001F064FDBA49096888420CDB012001F0DA
:102D70005DFD00E0F2E0B6490968884203DBB04837
:102D80000068012804D10021084601F02EFB09E06B
:102D900002F042FCB0F57A6F03DD0020A84908601C
:102DA00000E0D7E700BF0021084601F01EFBD6E097
:102DB00002F027FC24E06FF06301642001F015FBB2
:102DC000002001F033FDA249096888420ADB012096
:102DD00001F02CFD9E490968884203DB9848006891
:102DE000012804D10021084601F0FFFA09E002F0B1
:102DF00013FCB0F57A6F03DD00209149086000E014
:102E0000D9E700BFABE002F0FCFB26E064214842BA
:102E100001F0EBFA002001F009FD8D4909688842B4
:102E20000ADB012001F002FD89490968884203DBC1
:102E300083480068012804D10021084601F0D5FA32
:102E40000CE002F0E9FBB0F57A6F06DD00207C496A
:102E5000086003E058E02DE002E0D7E700BF7EE025
:102E600002F0CFFB23E06421484201F0BEFA0020CB
:102E700001F0DCFC7649096888420ADB012001F098
:102E8000D5FC73490968884203DB6D480068012856
:102E900004D10021084601F0A8FA09E002F0BCFBC9
:102EA000B0F57A6F03DD00206549086000E0DAE7DD
:102EB00000BF54E002F0A5FB23E06421484201F08A
:102EC00094FA002001F0B2FC6149096888420ADBEB
:102ED000012001F0ABFC5E490968884203DB5848D9
:102EE0000068012804D10021084601F07EFA09E0BB
:102EF00002F092FBB0F57A6F03DD002050490860C4
:102F000000E0DAE700BF2AE002F07BFB23E0642167
:102F1000484201F06AFA002001F088FC4C49096837
:102F200088420ADB012001F081FC49490968884296
:102F300003DB43480068012804D10021084601F062
:102F400054FA09E002F068FBB0F57A6F03DD002067
:102F50003B49086000E0DAE700BF00E000BF00BFC7
:102F600010BD70B58AB0052001F060FC009006200D
:102F700001F05CFC0190072001F058FC0290082051
:102F800001F054FC0390092001F050FC04900A2049
:102F900001F04CFC05900B2001F048FC06900C2041
:102FA00001F044FC07900D2001F040FC08900E2039
:102FB00001F03CFC0990009D0026012008E05DF82E
:102FC0002010A94202DD5DF820500646741D401C09
:102FD0000A28F4DB20460AB070BD10B50C2001F0C1
:102FE00025FCB0F5FA6F0EDD02F0C8FF0A20FFF7EE
:102FF000EDFC0C2001F01AFCB0F5FA6F05DD02F0D3
:10300000C1FF012010BD0020FCE700BFFAE710B5AA
:10301000002400F0B0FCA3E010A20121002000F089
:10302000B0FD11A20121022000F0ABFD11A201218F
:10303000042000F0A6FD21E06000002064000020D4
:10304000A000002044000020C8000020C400002090
:1030500050000020B3F6CCA800000000CBB3CAB1EA
:10306000D5EB393000000000C4E6CAB1D5EB3930E9
:1030700000000000D6B1D0D031C3EB00F7A201218F
:10308000062000F07EFD002002F0F0FE0446012C38
:103090001CD102F0B6FA0DE0F249484201F0A5F960
:1030A00002F0BAFAB0F5FA7F04DD0021084601F01B
:1030B0009CF900E0F0E700BF002002F0D7FE0446D4
:1030C000042C4DD100F057FC00244AE0022C1DD105
:1030D00002F097FA0EE04FF49671084601F085F978
:1030E00002F09AFAB0F57A7F04DD0021084601F07B
:1030F0007CF900E0EFE700BF002002F0B7FE0446D5
:10310000042C2DD100F037FC00242AE0032C1DD123
:1031100002F077FA0EE04FF49671484201F065F93B
:1031200002F07AFAB0F5FA7F04DD0021084601F0DA
:103130005CF900E0EFE700BF002002F097FE0446D4
:10314000042C0DD100F017FC00240AE0042C07D158
:10315000002002F08BFE044600F00DFC002400E08D
:103160005AE700BF10BD70B5002400F004FC31E147
:10317000BDA20121002000F004FDBEA20121022019
:1031800000F0FFFCBFA20121042000F0FAFCC0A265
:103190000121062000F0F5FC002002F067FE044645
:1031A000012C51D100F0E7FB4CE0BB4800780A212C
:1031B00090FBF1F201FB120060BB002001F036FB36
:1031C00005462A461A21002000F0F6FE012001F0F3
:1031D0002DFB05462A464621002000F0EDFE022088
:1031E00001F093FE05462A461A21022000F0E4FE73
:1031F000032001F08AFE05462A464621022000F0FF
:10320000DBFE042001F081FE05462A461A21042037
:1032100000F0D2FE0A20FFF7D9FB9F480078401C3F
:103220009D49087008460078142801D100200870D4
:10323000002002F01BFE0446042C03D100F09BFB8F
:10324000002400E0B1E7C5E0032C30D100F093FB8F
:103250002BE092A20121002000F093FC8E48007820
:103260000A2190FBF1F201FB120030B98F4800886F
:1032700082B24621062000F09FFE0A20FFF7A6FB3F
:1032800085480078401C8449087008460078142856
:1032900001D100200870002002F0E8FD0446042C53
:1032A00003D100F068FB002400E0D2E792E0022C9A
:1032B0007ED100F060FB85E0774800780A2190FB22
:1032C000F1F201FB1200002862D1052001F01DFE81
:1032D00005462A460021084600F06EFE062001F051
:1032E00014FE05462A462821002000F065FE07202E
:1032F00001F00BFE05462A465021002000F05CFE3E
:10330000082001F002FE05462A460021022000F0B6
:1033100053FE092001F0F9FD05462A462821022026
:1033200000F04AFE0A2001F0F0FD05462A46502131
:10333000022000F041FE0B2001F0E7FD05462A4681
:103340000021042000F038FE0C2001F0DEFD0546CF
:103350002A462821042000F02FFE0D2001F0D5FD83
:1033600005462A465021042000F026FE0E2001F0DA
:10337000CCFD05462A460021062000F01DFE0F2048
:1033800001F0C3FD05462A462821062000F014FE60
:103390000A20FFF71BFB40480078401C3E4908709C
:1033A00008460078142801D100200870002000E0B1
:1033B0000AE002F05BFD0446042C03D100F0DBFAC6
:1033C000002400E078E705E0042C03D1002400F09D
:1033D000D2FA00E0CCE600BF70BD10B534A20121E6
:1033E000022000F0CEFB01F089FB02F0C7FD4FF494
:1033F0009670FFF7EBFA01F081FB02F0C3FD00F0DD
:10340000BAFA10BD70B50025052407E0E0B201F05E
:103410000DFAB0F5966F00DD6D1C641C0F2CF5DB0A
:10342000284670BD70B5052001F000FAB0F5967F12
:1034300044DA062001F0FAF9B0F5967F3EDA08206A
:1034400001F0F4F90446072001F0F0F905462146A1
:1034500001F05EFB502831DA012070BDB7B5BBD852
:1034600000000000D4FEFFFF312EBBD2B6C8BCEC7A
:10347000B2E20000322EC9E3CFF1CDB7BCECB2E22C
:1034800000000000332EBEE0C0EBBCECB2E2000056
:10349000342EB7B5BBD800005C000020C9E3CFF1E3
:1034A000CDB7BCECB2E2D6D02E2E2E0044000020C8
:1034B0002020202077656C636F6D6500002070BD53
:1034C00010B5F948008832281EDDF7480088B0F5AD
:1034D000967F19DAF5480088322815DDF348008810
:1034E000B0F5967F10DAF248008832280CDDF048FB
:1034F0000088B0F5967F07DAFFF784FF022803DD26
:103500000120EC49086002E00020EA49086000F070
:1035100032FA10BD70B5E748006801287ED1082056
:1035200001F084F90446072001F080F905462146A0
:1035300001F0EEFA50283DDA0F2001F077F9B0F5EE
:10354000967F37DA092001F071F9B0F57A7F31DA28
:103550000A2001F06BF9B0F57A7F2BDA062001F032
:1035600065F90446052001F061F90546214601F0A0
:10357000CFFA50281EDAD0A20121042000F001FB6E
:1035800002F03FF811E04FF4AF71084600F02DFF54
:1035900002F042F8B0F5FA7F07DD0021084600F09E
:1035A00024FF6420FFF712FA00E0ECE700BF01F00F
:1035B00019FB48E002F025F843E06421484200F09E
:1035C00014FF082001F032F90446072001F02EF91B
:1035D0000546214601F09CFA502828DA0F2001F018
:1035E00025F9B0F5967F22DA092001F01FF9B0F530
:1035F0007A7F1CDA0A2001F019F9B0F57A7F16DA21
:10360000062001F013F90446052001F00FF90546E4
:10361000214601F07DFA502809DA00E0CAE00021D5
:10362000084600F0E2FE6420FFF7D0F90AE001F05E
:10363000F3FF40F6B831884203DD0120A14908605C
:1036400000E0BAE700BF9F480068C8B901F0D9FFA1
:1036500011E04FF4AF71084600F0C7FE01F0DCFF47
:10366000B0F5FA7F07DD0021084600F0BEFE6420B9
:10367000FFF7ACF900E0ECE700BF01F0B3FA99E026
:1036800001F0BFFF1CE06421484200F0AEFEFFF7EE
:10369000C9FE012807D10021084600F0A6FE6420DB
:1036A000FFF794F90DE001F0B7FFB0F57A6F07DD91
:1036B0000021084600F099FE6420FFF787F900E03A
:1036C000E1E700BF4FF4FA71084600F08EFE4FF4B8
:1036D0007A70FFF77BF90021084600F086FE64202F
:1036E000FFF774F901F08DFF49E06421484200F0D2
:1036F0007CFE082001F09AF80446072001F096F8B5
:103700000546214601F004FA50282BDA0F2001F07B
:103710008DF8B0F5967F25DA092001F087F8B0F52D
:103720007A7F1FDA0A2001F081F8B0F57A7F19DA82
:10373000062001F07BF80446052001F077F80546E5
:10374000214601F0E5F950280CDA5BA201210420A2
:1037500000F017FA0021084600F047FE6420FFF74A
:1037600035F90DE001F058FFB0F57A6F07DD002163
:10377000084600F03AFE6420FFF728F900E0B4E7BD
:1037800000BF01F03EFF11E04FF4AF71084600F0BA
:103790002CFE01F041FFB0F5FA7F07DD002108465D
:1037A00000F023FE6420FFF711F900E0ECE700BF12
:1037B00001F018FA3F48006802282FD101F021FFDC
:1037C0002AE04149084600F010FE374800883228B8
:1037D00022DD35480088B0F5967F1DDA3348008831
:1037E000322819DD31480088B0F5967F14DA304868
:1037F0000088322810DD2E480088B0F5967F0BDA5D
:10380000FFF700FE022807DD0021084600F0EDFD6D
:103810006420FFF7DBF800E0D3E700BF254800682D
:1038200003283BD138E02849084600F0DEFD1E4859
:103830000088322822DD1C480088B0F5967F1DDA0A
:103840001A480088322819DD18480088B0F5967F9C
:1038500014DA17480088322810DD15480088B0F5C2
:10386000967F0BDAFFF7CEFD022807DD0021084620
:1038700000F0BBFD6420FFF7A9F80EE001F0CCFEDC
:1038800041F28831884207DD0021084600F0ADFD95
:103890006420FFF79BF800E0C5E700BF002009495E
:1038A00008600449086070BDD0000020D2000020EC
:1038B000D400002054000020CEB2B2BFB6D4C6EB74
:1038C00000000000580000203EFEFFFF70B50446D7
:1038D0000E4626B10821FE48FDF724FC03E008212E
:1038E000FB48FDF721FC0421F948FDF71DFC0025EC
:1038F00016E01021F648FDF717FC04F0800020B117
:103900002021F348FDF70EFC03E02021F048FDF7ED
:103910000BFC1021EE48FDF705FC6400681CC5B2E5
:10392000082DE6DB0821EA48FDF7FCFB70BD10B569
:1039300004461CB90021A620FFF7C8FF012C03D1C3
:103940000021A720FFF7C2FF10BD10B504463CB907
:103950000021C820FFF7BAFF0021A120FFF7B6FF22
:10396000012C07D10021C020FFF7B0FF0021A020CB
:10397000FFF7ACFF10BD70B5002418E004F1B000F3
:103980000021FFF7A3FF00211020FFF79FFF002178
:103990000846FFF79BFF002505E001210020FFF707
:1039A00095FF681CC5B2802DF7DB601CC4B2082CE3
:1039B000E4DB70BD70B504460D4605F1B000002192
:1039C000FFF784FF102141EA14100021FFF77EFF6A
:1039D00004F00F000021FFF779FF70BD70B50446B9
:1039E000002510E029460020FFF7E4FF002606E04E
:1039F00020780121FFF76AFF641C701CC6B2802E7C
:103A0000F6DB681CC5B2082DECDB70BD2DE9F0417A
:103A100006460C4615464FF0000813E0E1B2F0B23E
:103A2000FFF7C8FF002706E028780121FFF74EFFC7
:103A30006D1C781CC7B2102FF6DB641C08F1010066
:103A400000F0FF08B8F1020FE8DBBDE8F0812DE9D6
:103A5000F04180460C461546002711E0E1B2404691
:103A6000FFF7A8FF002606E028780121FFF72EFFC8
:103A70006D1C701CC6B2082EF6DB641C781CC7B225
:103A8000022FEBDBBDE8F0812DE9F04107460D4642
:103A90001446E9B23846FFF78DFF002606E020788D
:103AA0000121FFF713FF641C701CC6B2062EF6DB63
:103AB000BDE8F08170B50446002517E004F08000F1
:103AC00020B120218248FDF72DFB03E02021804812
:103AD000FDF72AFB6006040E10217D48FDF724FB4C
:103AE00010217B48FDF71EFB681CC5B2082DE5DBE5
:103AF00070BD70B506460024002512E01021744800
:103B0000FDF712FB6006040E02217148FDF7F0FA82
:103B100008B1601CC4B210216D48FDF703FB681C9E
:103B2000C5B2082DEADB204670BD2DE9F04780467E
:103B30000D4616461F46DDF8209004216448FDF727
:103B4000F1FA01216248FDF7EFFA0320FFF7B2FF17
:103B50004046FFF7AFFF2846FFF7ACFF3046FFF7C0
:103B6000A9FF002405E02046FFF7C3FF3855601C7D
:103B7000C4B24C45F7DB01215548FDF7D3FABDE847
:103B8000F0872DE9F0478EB007460E461546002413
:103B9000AFE0285DB02837DB285DF72834DC601CF7
:103BA000285CA12830DB285DB0385E2110FB01F0D5
:103BB00048490860601C285C00F2AD200968084490
:103BC00044490860084600684001086008460068EB
:103BD000C0F3074808460088C0F30729084690F854
:103BE00000A0202006AB5246494600904046FFF711
:103BF0009CFF06AA39463046FFF708FF06F1100081
:103C0000C6B2A01CC4B274E0285DA12836DB285DD2
:103C1000A32833DC601C285CA1282FDB285DA13899
:103C20005E2110FB01F02B490860601C285CA13864
:103C30000968084427490860084600684001086090
:103C400008460068C0F3074808460088C0F3072903
:103C5000084690F800A0202006AB52464946009046
:103C60004046FFF762FF06AA39463046FFF7CEFE10
:103C700006F11000C6B2A01CC4B23AE0285D2028AC
:103C800035DB285D7E2832DC285D2038114908604C
:103C90000846006800010860084600680E490844AC
:103CA0000C49086008460068C0F3074808460088C9
:103CB000C0F30729084690F800A0102002AB524636
:103CC000494600904046FFF730FF02AA394605E01A
:103CD000001002406800002080CF03003046FFF74C
:103CE000B6FE06F10800C6B2601CC4B201E0601C5A
:103CF000C4B2285D00283FF74CAF0EB0BDE8F08796
:103D00002DE9FE4F07460E461546002432E0285D99
:103D100020282DDB285D7E282ADC285D2038CD492F
:103D2000086008460068C000086008460068CA4984
:103D30000844C849086008460068C0F307480846B8
:103D40000088C0F30729084690F800A0082001ABBE
:103D50005246494600904046FFF7E7FE01AA394621
:103D60003046FFF791FEB01DC6B2601CC4B201E040
:103D7000601CC4B2285D0028C9DCBDE8FE8F2DE9B7
:103D8000F0472DED028B04468946B0EE408A154679
:103D900004EBC5000830C4B29FEDB00A28EE000A5B
:103DA000BCEEC00A10EE108AA4F11801C8B2ACA291
:103DB0004946FFF7E6FE002656E00A20B8FBF0F180
:103DC00000FB1187B8FBF0F8A4F10800C4B2022E82
:103DD00002D1A4F10800C4B20A2F42D2DFE807F0F2
:103DE000050B11171D23292F353B9EA2494620465E
:103DF000FFF7C7FE35E09CA249462046FFF7C1FE0B
:103E00002FE09AA249462046FFF7BBFE29E098A280
:103E100049462046FFF7B5FE23E096A249462046D4
:103E2000FFF7AFFE1DE094A249462046FFF7A9FE2A
:103E300017E092A249462046FFF7A3FE11E090A2A8
:103E400049462046FFF79DFE0BE08EA249462046DC
:103E5000FFF797FE05E08CA249462046FFF791FE4A
:103E600000BF00BF701CC6B2AE42A6DBBDEC028B29
:103E7000BDE8F0871CB501211020FDF775FB3F2040
:103E8000009001208DF8040000208DF8060003202A
:103E90008DF8050001208DF8070069467B48FDF785
:103EA000C5F80220009000208DF804008DF806006F
:103EB00003208DF8050001208DF80700694673483E
:103EC000FDF7B4F83F217148FDF72CF9C820FEF743
:103ED0007DFD0021AE20FFF7F9FC00210846FFF729
:103EE000F5FC00211020FFF7F1FC00214020FFF736
:103EF000EDFC00218120FFF7E9FC0021CF20FFF736
:103F0000E5FC0021A120FFF7E1FC0021C820FFF71C
:103F1000DDFC0021A620FFF7D9FC0021A820FFF737
:103F2000D5FC00213F20FFF7D1FC0021D320FFF773
:103F3000CDFC00210846FFF7C9FC0021D520FFF782
:103F4000C5FC00218020FFF7C1FC0021D920FFF72C
:103F5000BDFC0021F120FFF7B9FC0021DA20FFF7BA
:103F6000B5FC00211220FFF7B1FC0021DB20FFF798
:103F7000ADFC00214020FFF7A9FC00212020FFF725
:103F8000A5FC00210220FFF7A1FC00218D20FFF7F6
:103F90009DFC00211420FFF799FC0021A420FFF7CD
:103FA00095FC0021A620FFF791FC0021AF20FFF730
:103FB0008DFCFFF7E0FC1CBD7CB505460E461446A3
:103FC0004FF47A7094FBF0F03030C0B28DF80000FE
:103FD0004FF47A7094FBF0F100FB1140642190FBE8
:103FE000F1F03030C0B28DF80100642094FBF0F1A4
:103FF00000FB11400A2190FBF1F03030C0B28DF887
:1040000002000A2094FBF0F100FB11403030C0B2F6
:104010008DF8030000208DF804006A4631462846DA
:10402000FFF7AFFD7CBDF8B505460E4614460A20E5
:1040300094FBF0F100FB11403030C0B28DF800006D
:1040400000208DF801006A4631462846FFF799FDA9
:10405000F8BD000068000020C0BF03000000C84297
:104060002E0000003000000031000000320000008F
:10407000330000003400000035000000360000006E
:104080003700000038000000390000000010024036
:1040900030B58BB004460D4601210220FDF7ADFA84
:1040A00002220621FE48FDF74CF802220721FC48B7
:1040B000FDF747F802220821F948FDF742F80222ED
:1040C0000921F748FDF73DF84FF470700990022080
:1040D0008DF8280003208DF8290000208DF82A0093
:1040E00001208DF82B0009A9ED48FCF79FFFA8B22D
:1040F000ADF818000020ADF81A000794ADF82000C4
:1041000006A9E848FDF731FC6020ADF80400012065
:10411000ADF806000020ADF8100001A9E148FDF758
:10412000B9FC6020ADF804000120ADF806000020C5
:10413000ADF8100001A9DB48FDF7E5FC6020ADF803
:1041400004000120ADF806000020ADF8100001A920
:10415000D448FDF725FD6020ADF804000120ADF83E
:1041600006000020ADF8100001A9CE48FDF77EFD45
:104170000821CC48FDF71BFE0821CA48FDF720FEA8
:104180000821C848FDF729FE0821C648FDF72EFE84
:104190000121C448FDF754FC0121C248FDF76EFC23
:1041A0000BB030BD30B58BB004460D460121042064
:1041B000FDF723FA02220C21BB48FCF7C2FF0222C2
:1041C0000D21B948FCF7BDFF02220E21B648FCF7CD
:1041D000B8FF02220F21B448FCF7B3FF4FF4704040
:1041E000099002208DF8280003208DF82900002076
:1041F0008DF82A0001208DF82B0009A9AA48FCF7A8
:1042000015FFA8B2ADF818000020ADF81A00079409
:10421000ADF8200006A9A548FDF7A7FB6020ADF882
:1042200004000120ADF806000020ADF8100001A93F
:104230009E48FDF72FFC6020ADF804000120ADF88A
:1042400006000020ADF8100001A99848FDF75BFCBE
:104250006020ADF804000120ADF806000020ADF8A4
:10426000100001A99148FDF79BFC6020ADF8040007
:104270000120ADF806000020ADF8100001A98B4820
:10428000FDF7F4FC08218948FDF791FD08218748D6
:10429000FDF796FD08218548FDF79FFD082183481D
:1042A000FDF7A4FD01218148FDF7CAFB01217F48EC
:1042B000FDF7E4FB0BB030BD10B50446012C04D172
:1042C00001217A48FDF7DAFB04E01CB900217748A8
:1042D000FDF7D4FB10BD10B5532140F2E730FFF7D6
:1042E000D7FE532140F2E730FFF75CFF0120FFF7D4
:1042F000E3FF10BD70B505460C46B4F5E17F01DD66
:104300004FF4E17414F5E17F00DA694C9DB9002C9B
:1043100008DB21466548FDF716FD00216348FDF7DF
:1043200014FD49E061426148FDF70FFD00215F483F
:10433000FDF709FD40E0012D13D1002C08DB2146DB
:104340005A48FDF704FD00215848FDF702FD33E00F
:1043500061425648FDF7FDFC00215448FDF7F7FC8B
:104360002AE0022D13D1002C08DB21464D48FDF731
:10437000EAFC00214B48FDF7E8FC1DE0614249489A
:10438000FDF7E3FC00214748FDF7DDFC14E0032DB9
:1043900012D1002C08DB21464248FDF7D8FC002151
:1043A0004048FDF7D6FC07E061423E48FDF7D1FCEE
:1043B00000213C48FDF7CBFC70BD2DE9F0410446DF
:1043C0000F4615461E4621460020FFF793FF39464B
:1043D0000120FFF78FFF29460220FFF78BFF3146B0
:1043E0000320FFF787FFBDE8F08170B504460D4656
:1043F0006BE030480068201A002805DD2D48006871
:1044000019302C4908600DE02A480068201A05D5AB
:104410002848006819382749086003E025480068E3
:104420002449086024480068281A002805DD22482D
:1044300000681930204908600DE01F480068281AFC
:1044400005D51D48006819381B49086003E01A4863
:1044500000681949086017480068B0F5167F03DD49
:104460004FF416701349086013480068B0F5167FC2
:1044700003DD4FF41670104908600E4801680020F3
:10448000FFF738FF0B48006841420120FFF732FF79
:104490000948006841420220FFF72CFF06480DE062
:1044A0000008024000040040000C024000080040E8
:1044B0003EFEFFFF7400002078000020016803200A
:1044C000FFF718FF0A20FEF781FA33480068A04280
:1044D0008FD132480068A8428BD170BD10B500233F
:1044E0001A4619461846FFF768FF10BD10B5044676
:1044F00034B1012C09D0022C0CD0032C14D10EE0C5
:1045000000210846FFF7F6FE0EE000210120FFF72C
:10451000F1FE09E000210220FFF7ECFE04E000219B
:104520000320FFF7E7FE00BF00BF10BD70B50546D2
:104530000C46012D23D0022D17D0032D0BD0042DB6
:1045400027D104EB440000EB0410C0F57B61144854
:10455000FDF7F9FB1DE004EB440000EB0410C0F58F
:104560007B610F48FDF7F1FB13E004EB440000EB27
:104570000410C0F57B610A48FDF7E9FB09E004EB94
:10458000440000EB0410C0F57B610548FDF7E1FB3A
:1045900000BF00BF70BD0000740000207800002044
:1045A0000008004000B59BB001218805FCF7DCFF46
:1045B0003F20199003208DF8680000208DF86B00D3
:1045C00019A9F848FCF732FDFF20199003208DF857
:1045D000680000208DF86B0019A9F348FCF726FD50
:1045E000032019908DF8680000208DF86B0019A940
:1045F000EE48FCF71BFD01210802FDF764F80021DD
:104600004FF48070FDF75FF8E948FCF7B5FA002039
:104610000090E8480190E8480290002003901020A4
:104620000490002005904FF48060069040000790B1
:10463000800008904011099040020A9000200B90E1
:1046400001200C9000200D900E906946D848FCF790
:1046500035FB0121D648FCF76BFB01210802FCF772
:10466000DDFF01210802FDF72EF800214FF48070D4
:10467000FDF729F8FCF74EF80020159017904FF43D
:10468000803016900020189015A8FCF77DF80020C7
:104690000F9001208DF840008DF84100002011900E
:1046A000139010208DF850000FA9C2484C38FCF729
:1046B0003CF8032301220021BE484C38FCF7BBF82C
:1046C000032302220121BB484C38FCF7B4F8032332
:1046D0001A460221B7484C38FCF7ADF803230422F0
:1046E0001946B4484C38FCF7A6F8032305220421E8
:1046F000B0484C38FCF79FF8032306220521AD484B
:104700004C38FCF798F8032307220621A9484C38B7
:10471000FCF791F8032308220721A6484C38FCF740
:104720008AF8032309220821A2484C38FCF783F8B1
:1047300003230A2209219F484C38FCF77CF8032305
:104740000B220A219B484C38FCF775F803230C22F6
:104750000B2198484C38FCF76EF803230D220C21EE
:1047600094484C38FCF767F803230E220D2191483A
:104770004C38FCF760F803230F220E218D484C388B
:10478000FCF759F8032310220F218A484C38FCF714
:1047900052F8012187484C38FCF7F8F80121854888
:1047A0004C38FCF7E8F8012182484C38FCF703F854
:1047B00080484C38FCF79BF81BB000BD70B52DED60
:1047C000088B04467D4830F814007D4921F8140018
:1047D000084630F81460784830F81450304601F03C
:1047E00022FD41EC1B0B9FED770B53EC102B01F0DE
:1047F0002DFD41EC190B284601F015FD41EC1B0B7A
:104800009FED720B53EC102B01F020FD41EC1A0BC5
:1048100053EC192B01F002FC41EC180B01F0D6FC13
:10482000664921F81400BDEC088B70BD70B50446D4
:104830000025102C29D2DFE804F0080A0C0E101213
:104840001416181A1C1E202224260A251DE00B25EA
:104850001BE00C2519E00D2517E0002515E00125CA
:1048600013E0022511E003250FE004250DE00525E6
:104870000BE0062509E0072507E00E2505E00F25DA
:1048800003E0082501E0092500BF00BF2846FFF727
:1048900095FF4A4830F8150070BD014600201A29DE
:1048A00015D2DFE801F00D151D262F1438414A53AB
:1048B0005C656E779DA5AEB6BFC8D0D8E1EAF5FEBF
:1048C000444A1268012A01D1012000E00020F1E0F1
:1048D000414A1268012A01D1012000E00020E9E0EC
:1048E0003D4A121D1268012A01D1012000E000207A
:1048F000E0E0394A08321268012A01D1012000E0C3
:104900000020D7E0344A0C321268012A01D101207C
:1049100000E00020CEE0304A14321268012A01D1B2
:10492000012000E00020C5E02B4A18321268012A5D
:1049300001D1012000E00020BCE0274A1C321268AF
:10494000012A01D1012000E00020B3E0224A2032F8
:104950001268012A01D1012000E00020AAE01D4ACE
:1049600020321268012A01D1012000E00020A1E0DC
:10497000184A24321268012A01D1012000E00020E7
:1049800098E0144A28321268012A01D1012000E07F
:1049900000208FE00F4A2C321268012A1ED101201C
:1049A0001DE0000000080240000002400004024038
:1049B000106402404C200140B8010020D8010020C2
:1049C000F8010020333333333333E33F9A99999915
:1049D0009999D93F088240421C024242002069E076
:1049E000354A1268012A01D1012000E0002061E06F
:1049F000314A121D1268012A01D1012000E0002075
:104A000058E02E4A1268012A01D1012000E000205E
:104A100050E02A4A121D1268012A01D1012000E04B
:104A2000002047E0254A08321268012A01D10120FE
:104A300000E000203EE0224A1268012A01D1012054
:104A400000E0002036E01F4A1268012A01D101204F
:104A500000E000202EE0194A203A1268012A01D114
:104A6000012000E0002025E0144A1C3A1268012AC7
:104A700001D1012000E000201CE0104A183A126821
:104A8000012A03D1012002E00BE001E0002011E047
:104A90000A4A143A1268012A01D1012000E00020DC
:104AA00008E0064A103A1268012A01D1012000E00C
:104AB000002000BF00BF7047388240422082414240
:104AC0003C024042300241421CB54FF4006000906D
:104AD00001208DF8040000208DF8060003208DF8D9
:104AE000050001208DF8070069460848FCF79EFA8A
:104AF0004FF400610548FCF715FB1CBD10B500F034
:104B0000A8FD10BD10B500F0AAFD10BD000C0240BC
:104B10000246501A01D4501A7047881AFCE710B5A3
:104B20000FE00920FFF782FEB0F5966F09DD0A203D
:104B3000FDF74CFF0920FFF779FEB0F5966F00DD19
:104B400000E0EEE700BF10BD10B500F05AFD0DE02B
:104B5000AF214842FFF749FC00F05EFDB0F5D77F7A
:104B600004DD00210846FFF740FC00E0F0E700BF4D
:104B700010BD10B5FEF7FFFEFCA205210220FFF7D5
:104B800000F84FF47A70FDF721FFFEF7F4FEFAA269
:104B900005210220FEF7F5FFFA490846FFF725FC3C
:104BA0004FF49660FDF712FF00210846FFF71DFC49
:104BB0006420FDF70BFFFFF7C7FF10BD10B500F035
:104BC00020FD0CE0AF214842FFF70FFC00F024FD70
:104BD000DC2804DD00210846FFF707FC00E0F1E7D0
:104BE00000BF10BD10B5FEF7C6FEE6490846FFF748
:104BF000FCFB4FF47A70FDF7E9FE00210846FFF751
:104C0000F4FB6420FDF7E2FEFFF7D8FF10BD10B5FE
:104C1000FEF7B1FEDCA205210220FEF7B2FF002460
:104C20002CE000F0EEFC00F0F7FCC82804DAD549CF
:104C300032390846FFF7D9FB00210846FFF7D5FBBC
:104C40006420FDF7C3FE0FE04FF4FA710846FFF74A
:104C5000CCFB0020FFF7EAFD322804DB0120FFF740
:104C6000E5FD322800DA00E0EEE700BF002108464B
:104C7000FFF7BBFB6420FDF7A9FE641C062CD0DB0C
:104C800010BD10B514E0C2A205210220FEF779FF85
:104C90004FF4E1710846FFF7A8FB0020FFF7C6FDBF
:104CA000322804DB0120FFF7C1FD322800DA00E0E2
:104CB000E9E700BF00210846FFF797FB6420FDF7F6
:104CC00085FE002431E0B0A205210220FEF759FF45
:104CD00000F097FC00F0A0FCC82804DAA94932399A
:104CE0000846FFF782FB00210846FFF77EFB6420A1
:104CF000FDF76CFE0FE04FF4FA710846FFF775FB05
:104D00000020FFF793FD322804DB0120FFF78EFD22
:104D1000322800DA00E0EEE700BF00210846FFF786
:104D200064FB6420FDF752FE641C062CCBDB00F014
:104D300068FC00F071FCC82804DA92493239084650
:104D4000FFF753FB10BD10B500F05BFC09E0AF218D
:104D50004842FFF74AFB00F05FFCB0F5C87F00DD7A
:104D600000E0F4E700BF10BD10B500F04AFC0DE014
:104D700084490846FFF739FB00F04EFCB0F5FA7F96
:104D800004DD00210846FFF730FB00E0F0E700BF3C
:104D900010BD10B500F035FC0EE07A4932314842C2
:104DA000FFF723FB00F038FCB0F5D77F04DD0021CE
:104DB0000846FFF71AFB00E0EFE700BF10BD10B593
:104DC00075480088C82803DB74480088C82802DAC0
:104DD000FFF7CAFF18E070480088C82808DA6F4853
:104DE0000088C82804DDFFF7BFFFFFF7D2FF0BE004
:104DF00069480088C82807DD68480088C82803DAA1
:104E0000FFF7B2FFFFF7A0FE10BD10B564480068C1
:104E100030B1012814D0022825D003285FD136E014
:104E20000BE0C8210846FFF7E0FA5D48006820B1B2
:104E300000210846FFF7D9FA00E0F2E700BF62E080
:104E400000F0DFFB0CE0C8214842FFF7CEFA00F08B
:104E5000E3FBC82804DD00210846FFF7C6FA00E09E
:104E6000F1E700BF4FE000F0CCFB0DE06FF0C701B1
:104E7000C820FFF7BAFA00F0CFFBC82804DD0021F4
:104E80000846FFF7B2FA00E0F0E700BF3BE000F0B1
:104E9000B8FB0EE03B4996310846FFF7A6FA00F052
:104EA000BBFBB0F5C87F04DD00210846FFF79DFA83
:104EB00000E0EFE700BF00F0A4FB0DE031499631C0
:104EC0004842FFF792FA00F0A7FBE62804DD002134
:104ED0000846FFF78AFA00E0F0E700BF13E000F0B1
:104EE00090FB0DE06FF0C7010846FFF77EFA002047
:104EF0002B49086020B100210846FFF776FA00E050
:104F0000F0E700BF00BF00BF10BD2DE9F04104462F
:104F10000525002604E0E0B2FFF788FC0744761C74
:104F2000AE42F8DB97FBF5F080B2BDE8F081FEB54C
:104F30000220FFF7EAFF00900320FFF7E6FF019051
:104F40000420FFF7E2FF0290009D0024012008E00A
:104F50005DF82010A94202DA5DF820500446A61C34
:104F6000401C0328F4DB2046FEBD00005374616E34
:104F70006420427900000000B3F5CABCC9CFCCA8B8
:104F8000000000003EFEFFFFB2B9B5B6D6D000006B
:104F9000B9A5BBF7D6D00000CC000020CE00002081
:104FA000AC0000203EB50220FFF7AFFF00900320C9
:104FB000FFF7ABFF01900420FFF7A7FF0290009CD2
:104FC0000025012007E05DF82010A14202DA5DF81B
:104FD00020400546401C0328F5DB20463EBDFEB5BB
:104FE0000220FFF792FF00900320FFF78EFF019051
:104FF0000420FFF78AFF0290009D0026012008E0B0
:105000005DF82010A94202DD5DF820500646B41C70
:10501000401C0328F4DB2046FEBD3EB50220FFF70E
:1050200074FF00900320FFF770FF01900420FFF74A
:105030006CFF0290009C0025012007E05DF8201025
:10504000A14202DD5DF820400546401C0328F5DB47
:1050500020463EBD10B500F0D4FA0EE04FF4C87102
:105060000846FFF7C2F900F0D7FAB0F5C87F04DDB3
:1050700000210846FFF7B9F900E0EFE700BF10BDD7
:1050800010B500F0BEFA0CE0C1490846FFF7ADF9D3
:1050900000F0C2FAC82804DD00210846FFF7A5F990
:1050A00000E0F1E700BF10BD10B500F0AAFA0EE075
:1050B0006FF0AE01AF20FFF798F900F0ADFAB0F550
:1050C000917F04DD00210846FFF78FF900E0EFE74C
:1050D00000BF10BD10B500F094FA0DE0AF214842BA
:1050E000FFF783F900F098FAB0F5917F04DD002115
:1050F0000846FFF77AF900E0F0E700BF10BD10B5F1
:1051000000F07FFA0DE06FF0AE01AF20FFF76DF910
:1051100000F082FADC2804DD00210846FFF765F97B
:1051200000E0F0E700BF10BD10B500F06AFA0FE034
:105130006FF0AE01AF20FFF758F900F06DFA40F2C2
:105140006631884204DD00210846FFF74EF900E091
:10515000EEE700BF10BD10B500F053FA12E08D4924
:105160000968C1F164008B4909684942FFF73DF9BC
:1051700000F052FAB0F5967F04DD00210846FFF7F3
:1051800034F900E0EBE700BF824801680068FFF7F0
:105190002CF90020FFF74AFBB0F5617F05DB012009
:1051A000FFF744FBB0F5617F01DAFFF708FE00F07E
:1051B00028FA10E07748006841427648006840428B
:1051C000FFF713F900F028FAC82804DD002108468B
:1051D000FFF70BF900E0EDE700BF6E4801680068DB
:1051E000FFF703F90020FFF721FBB0F5617F05DB36
:1051F0000120FFF71BFBB0F5617F01DAFFF7DFFD50
:1052000000F0FFF912E063480068C0F164016148F2
:1052100000684042FFF7E9F800F0FEF9B0F5967F2C
:1052200004DD00210846FFF7E0F800E0EBE700BFEF
:10523000584801680068FFF7D8F80020FFF7F6FA31
:10524000B0F5617F05DB0120FFF7F0FAB0F5617F73
:1052500001DAFFF7B4FD10BD70B595E00620FFF749
:10526000E5FA04460520FFF7E1FA05462146FFF777
:105270004FFC502804DA474801680068FFF7B5F88A
:105280000620FFF7D3FA04460520FFF7CFFA0546BC
:105290002146FFF73DFC502869DD0520FFF7C6FADF
:1052A00004460620FFF7C2FA84422BDD00203A496B
:1052B00008601AE03848006836490968884203DD0A
:1052C0003448006834490860324A1268324B1B681F
:1052D000D118304A1268304B1B68D01AFFF785F896
:1052E0002D48006864302C4908600620FFF79EFABC
:1052F00004460520FFF79AFA05462146FFF708FC09
:105300005028D7DB0520FFF791FA04460620FFF767
:105310008DFA84422BDA00201F4908601AE01D4AEA
:1053200012681D4B1B68D11A1A4A12681A4B1B6867
:10533000D018FFF75AF818480068164909688842DB
:1053400003DD14480068144908601348006864309D
:10535000114908600620FFF769FA04460520FFF7A7
:1053600065FA05462146FFF7D3FB5028D7DB00201E
:10537000FFF75CFA3C2804DB0120FFF757FA3C28D2
:1053800002DAFFF71CFD00E068E700BF70BD000017
:1053900070FEFFFF4C0000208000002010B50120AF
:1053A000FFF744FAFB49496888420ADA0020FFF710
:1053B0003DFAF8490968884203DD0120F649086092
:1053C00026E00020FFF732FAF249096888420ADA3B
:1053D0000120FFF72BFAEF494968884203DD0220DC
:1053E000ED49086014E00020FFF720FAE949096858
:1053F00088420ADA0120FFF719FAE649496888422B
:1054000003DA0320E449086002E00020E249086072
:1054100010BD10B5E1480188E1480088FFF778FB2E
:1054200050281ADADF480188DF480088FFF770FB50
:10543000502812DADD480088B0F5967F0DDADC4896
:105440000088B0F5967F04DBDA480088B0F5967FD7
:1054500003DA0120D849086002E00020D64908603C
:1054600010BDD1480088B0F5966F08DDCD480088A2
:10547000B0F5966F03DD0120D049086002E00020FE
:10548000CE490860704710B5C4480188C4480088F8
:10549000FFF73EFB502819DAC2480188C24800884D
:1054A000FFF736FB502811DAC0480088B0F5967F28
:1054B0000CDAC0480088B0F5967F07DABC4800884F
:1054C000B0F5967F02DD0120BD490860B348018830
:1054D000B3480088FFF71CFB502819DAB14801884F
:1054E000B1480088FFF714FB502811DAAF48008854
:1054F000B0F5967F0CDAAE480088B0F5967F07DAF3
:10550000AC480088B0F5967F02DD0220AC49086007
:10551000A2480188A2480088FFF7FAFA50281ADA50
:10552000A0480188A0480088FFF7F2FA502812DA54
:105530009E480088B0F5967F0DDA9E480088B0F549
:10554000967F08DA9A480088B0F5967F03DA032040
:105550009B49086002E000209949086010BD7FB5B2
:1055600005460C4601210846FCF747F80295ADF8C0
:1055700004400020ADF80600ADF80C0001A94FF082
:105580008040FCF7F2F9012211469007FCF78EFEED
:105590001C208DF8000001208DF801008DF802001C
:1055A0008DF803006846FBF74AF87FBD7FB50546D6
:1055B0000C4601210820FCF720F80295ADF80440C4
:1055C0000020ADF80600ADF80C0001A97D48FCF7FD
:1055D000CCF9012211467B48FCF768FE012179488D
:1055E000FCF74CFA32208DF8000002208DF8010003
:1055F00001208DF802008DF803006846FBF71FF8C4
:105600007FBD10B5002070490880704908800121D5
:105610008807FCF733FA10BD6B48008870476B4869
:105620000088704768480088684909884FF47A7292
:1056300002FB010080B2704710B500214FF080409E
:10564000FCF71CFA10BD00205F4908805F49088004
:10565000704701205E4908705E490860704700206D
:105660005B4908705B490860704710B500205A49D3
:1056700008805A49088001215248FCF7FFF910BD03
:105680005548008870475548008870475248008840
:10569000524909884FF47A7202FB010080B27047C8
:1056A00010B500214748FCF7E9F910BD00204A4930
:1056B00008804A490880704710B501218807FCF727
:1056C0000CFE01280ED140480088401C3E4908804D
:1056D00008460088B0F57A7F04D13C480088401C19
:1056E0003A49088001218807FCF708FE10BD10B573
:1056F000024642BB0023002400210CE0384830F869
:105700001100322806DD364830F81100B0F5967FDA
:1057100000DA5B1C491C0529F0DB0020014607E08C
:105720002F4830F81100322800DA641C481C01466A
:105730000529F5DB052B01D1012010BD052C01D178
:105740000220FAE700BF012A53D1002300240021E0
:105750000CE0244830F81100322806DD214830F8EA
:105760001100B0F5967F00DA5B1C491C0529F0DBBF
:105770000020014607E01B4830F81100322800DA0B
:10578000641C481C01460529F5DB052B2CD10120A2
:10579000D3E70000B0000020AC000020DC000020B7
:1057A000DA000020D8000020D6000020EA00002007
:1057B000DE000020E0000020940000209C0000207B
:1057C00098000020000C004084000020860000208B
:1057D0008C000020AC824142880000208A0000201A
:1057E0003802002042020020052C01D10220A4E74B
:1057F00000BF022A28D10024002300210CE0F64833
:1058000030F81100322806DDF34830F81100B0F509
:10581000967F00DA641C491C0529F0DB0020014654
:1058200007E0ED4830F81100322800DA5B1C481C14
:1058300001460529F5DB052C01D101207DE7052B6B
:1058400001D1022079E700BF032A28D100230024D8
:1058500000210CE0E14830F81100322806DDDF4875
:1058600030F81100B0F5967F00DA5B1C491C052961
:10587000F0DB0020014607E0D84830F8110032285C
:1058800000DA641C481C01460529F5DB052B01D113
:10589000012052E7052C01D102204EE700BF042A67
:1058A00028D10023002400210CE0CD4830F811005D
:1058B000322806DDCA4830F81100B0F5967F00DACC
:1058C0005B1C491C0529F0DB0020014607E0C448A9
:1058D00030F81100322800DA641C481C0146052902
:1058E000F5DB052B01D1012027E7052C01D1022092
:1058F00023E700BF00BF20E7F0B52DED048B8BB090
:105900000121B848FCF7E9FC01287DD10020B64907
:1059100008600DE0B4490878FEF788FFB349B24A41
:10592000126821F81200B0480068401CAE490860B7
:10593000AD4800681028EDDBAC480088AC49088011
:10594000AA484088AB490880A8488088AA490880AE
:10595000A648C088A9490880A4480089A8490880A9
:105960000020A14908602EE0A6499F480068401C1D
:1059700031F81010A3489C4A126820F81210A2496E
:1059800099480068401C31F81000974A126821F8C5
:105990001200914994480068401C31F81000924A66
:1059A000126821F812008D498F480068401C31F8B8
:1059B00010108A488C4A126820F812108A48006831
:1059C000401C89490860884800680528CCDB874866
:1059D00000888C490881854840888B490881834824
:1059E00080887D4908818148C0887C4908817F483A
:1059F00000897B4908817D484089844908807B482B
:105A000080898349088000E0DAE17848C0898149CB
:105A100008807648008A804908807448408A7F4917
:105A200008807248808A7E4908807048C08A7D4913
:105A300008806E48008B7C4908806C48408B7B490D
:105A400008806A48808B7A4908806848C08B794909
:105A500008806C480089322813DA6B4800893228A4
:105A60000FDA5D48008932280BDA5C480089322859
:105A700007DA5B480089322803DA00210846FEF77E
:105A8000B4FCFDF71DFD0520FEF7D0FE01900620B9
:105A9000FEF7CCFE02900720FEF7C8FE0390082018
:105AA000FEF7C4FE04900920FEF7C0FE05900A2010
:105AB000FEF7BCFE06900B20FEF7B8FE07900C2008
:105AC000FEF7B4FE08900D20FEF7B0FE09900E2000
:105AD000FEF7ACFE0A90019C002501200AE001A916
