:020000040800F2
:10000000A8080020FD050008D1030008D30300085C
:10001000D7030008DB030008DF030008000000002E
:10002000000000000000000000000000E3030008E2
:10003000E503000800000000E7030008E9030008EA
:10004000170600081706000817060008170600081C
:10005000170600081706000817060008170600080C
:1000600017060008170600081706000817060008FC
:1000700017060008170600081706000817060008EC
:1000800017060008170600081706000817060008DC
:1000900017060008170600081706000817060008CC
:1000A00017060008170600081706000817060008BC
:1000B000235900081706000817060008170600084D
:1000C000170600081706000817060008170600089C
:1000D00017060008D32A000817060008092C000894
:1000E000170600081706000817060008170600087C
:1000F000170600081706000817060008170600086C
:1001000017060008170600085F5B000817060008BE
:10011000170600081706000817060008170600084B
:10012000170600081706000817060008170600083B
:10013000170600081706000817060008170600082B
:10014000170600081706000817060008170600081B
:10015000170600081706000817060008170600080B
:1001600017060008170600081706000817060008FB
:1001700017060008170600081706000817060008EB
:10018000170600081706000800F002F800F03CF817
:100190000AA090E8000C82448344AAF10107DA45E2
:1001A00001D100F031F8AFF2090EBAE80F0013F0F8
:1001B000010F18BFFB1A43F001031847FC6400004D
:1001C0001C650000103A24BF78C878C1FAD85207DD
:1001D00024BF30C830C144BF04680C6070470000C1
:1001E0000023002400250026103A28BF78C1FBD840
:1001F000520728BF30C148BF0B6070471FB506F0DB
:1002000055FA1FBD10B510BD05F04DFF1146FFF7A3
:10021000F5FF00F052F805F06BFF03B4FFF7F2FFB3
:1002200003BC02F0F7FB000010B54FF4A06000F033
:1002300005FA0121084601F09BF90121022001F095
:1002400097F90121042001F093F90121082001F020
:100250008FF90121102001F08BF9A82002F058FB42
:1002600005F03CFE04F007F804F056F902F076FCC5
:1002700004F0E4FB03F0CEFD05F0C6FE532140F28E
:10028000E73005F0A1FA03F046FB02F0D1FC38A2FA
:100290000121002003F045FC37A20121042003F0D6
:1002A00040FC39A20121062003F03BFC4FF47A7098
:1002B00002F090FB03F02FFB10BDFFF7B5FF55E0F8
:1002C000002005F04BFE3449087008460078334999
:1002D000087033A20121002003F023FC33A2012186
:1002E000022003F01EFC34A20121042003F019FCBB
:1002F00034A20121062003F014FC002005F02EFE9C
:10030000254908700846007818B108460078234946
:10031000087022480078012802D102F0F0FE25E0A2
:100320001E480078022802D102F03DFE1EE01B4864
:100330000078032814D104F0ACFB04F0D4FB42F2A3
:10034000CF01312005F067FA03F0E5FA07E01F4816
:10035000006810B902F08EFC01E003F077F8F6E7D0
:100360000E480078042801D103F0D5FAA8E7000070
:10037000BBB6D3ADC4FA0000CAB9D3C3CCECC8A88D
:10038000B6D3B3CCD0F200005269676874205265CE
:100390007665727365640000000000200100002093
:1003A000312EBCECB2E2C4A3CABD0000322ED6F797
:1003B000B3CCD0F200000000332EB5E7BBFABCECA2
:1003C000B2E20000342EB7B5BBD8000054000020C4
:1003D000704700BFFEE700BFFEE700BFFEE700BFBB
:1003E000FEE7704770477047704700000CB500206B
:1003F000019000907648006840F4803074490860AD
:1004000000BF7348006800F4003000900198401C61
:100410000190009818B90198B0F5A04FF1D16C483F
:10042000006800F4003010B10120009001E00020CD
:1004300000900098012846D165484030006840F09F
:1004400080506349403108606248006840F4404091
:10045000604908605E48083000685D4908310860FE
:100460000846006840F4004008600846006840F410
:10047000A05008605848091F0860081F006840F035
:100480008070091F086000BF5148006800F00070CC
:100490000028F9D040F20570504908604C480830F7
:1004A000006820F003004A490831086008460068E7
:1004B00040F00200086000BF45480830006800F0C6
:1004C0000C000828F8D10CBD10B54548006840F470
:1004D0007000434908603E48006840F001003C4914
:1004E000086000203A4908310860394800683D49F1
:1004F0000840374908603C48091D0860081F00682B
:1005000020F48020091F0860002031490C31086068
:10051000FFF76CFF4FF0006031498039086010BD73
:1005200070B500200022022300240221284D083546
:100530002D6805F00C0020B1042806D0082834D11D
:1005400007E02A4D2A4E356033E02A4D284E3560AB
:100550002FE01F4D2D1D2D68C5F380541C4D2D1D02
:100560002D6805F03F0154B1224DB5FBF1F5184E51
:10057000361D3668C6F3881605FB06F209E01B4DEA
:10058000B5FBF1F5124E361D3668C6F3881605FB2D
:1005900006F20F4D2D1D2D68C5F301456D1C6B0036
:1005A000B2FBF3F5124E356003E0104D104E35608E
:1005B00000BF00BF064D08352D68C5F303150E4E6C
:1005C000705D0B4D2D68C540094E356070BD000053
:1005D000003802400070004008544007003C0240D0
:1005E00088ED00E0FFFFF6FE103000240024F40048
:1005F0001400002000127A001800002009488047EB
:1006000009480047FEE7FEE7FEE7FEE7FEE7FEE7F4
:10061000FEE7FEE7FEE7FEE704480549054A064B0C
:1006200070470000C904000889010008A8020020E2
:10063000A8080020A8040020A80400203249014393
:10064000324A1160704770B5002100230F22C47830
:100650001CB32E4C246804F4E064C4F5E064C4F3D5
:100660000721C1F10404E3B20A4144789C40E1B29D
:100670008478144021430C07210E254C05786155E0
:10068000047804F01F050124AC4005786D11AD001D
:1006900005F1E025C5F8004109E0047804F01F05E4
:1006A0000124AC401B4D0678761145F8264070BDFC
:1006B000194A0A400243154B1B1F1A60704739B193
:1006C000124A121D12680243104B1B1D1A6006E0ED
:1006D0000E4A121D126882430C4B1B1D1A60704794
:1006E000042808D14FF0E021096941F004014FF0DE
:1006F000E022116107E04FF0E021096921F00401D7
:100700004FF0E022116170470000FA050CED00E0A7
:1007100000E400E080E100E080FFFF1F10B5012150
:10072000080200F0D4FF00214FF4807000F0CFFFEA
:1007300010BD30B50246002000235068F84C204020
:100740000D790C6844EA0524204350609068F54C0C
:100750002040D1E903542C438D682C434D7944EA61
:10076000450420439060D06A20F470000C7D641E24
:10077000E4B2234340EA0350D06230BD002101605F
:10078000017141718160C160016101210175704792
:100790000021E54A1168E54A1140D0E900231A43D7
:1007A00083681A43C3681A431143E14AC2F8041329
:1007B00070470021016041608160C160704721B1D4
:1007C000826842F00102826003E0826822F0010246
:1007D000826070470A4600214168D64B1940114398
:1007E000416070474162826270470A460021416859
:1007F00021F01F0111434160704738B1CA490968AF
:1008000041F40001CA4AC2F8041306E0C649096867
:1008100021F40001C64AC2F80413704738B1C24936
:10082000096841F48001C24AC2F8041306E0BE49D7
:10083000096821F48001BE4AC2F804137047F0B57C
:1008400004460D4600200021092D11DDE068A5F1C8
:100850000A0606EB4607072606FA07F18843A5F1C4
:100860000A0606EB460603FA06F10843E0600CE0D0
:10087000206905EB4507072606FA07F1884305EBD3
:10088000450603FA06F108432061072A0FDA606B78
:10089000561E06EB86071F2606FA07F18843561EEA
:1008A00006EB860605FA06F10843606322E00D2A8E
:1008B0000FDA206BD61F06EB86071F2606FA07F114
:1008C0008843D61F06EB860605FA06F10843206327
:1008D00010E0E06AA2F10D0606EB86071F2606FA75
:1008E00007F18843A2F10D0606EB860605FA06F12C
:1008F0000843E062F0BD816841F08041816070474B
:10090000014600208A6802F080420AB1012000E01E
:100910000020704721B1826842F48062826003E067
:10092000826822F480628260704721B1826842F05E
:100930000202826003E0826822F002028260704755
:1009400010B50A4600210023416821F46041531E7E
:1009500041EA4331416010BD21B1426842F4006276
:10096000426003E0426822F4006242607047014640
:10097000C86C80B270476C48001D0068704721B198
:10098000826842F48072826003E0826822F480729E
:100990008260704721B1826842F40072826003E095
:1009A000826822F400728260704738B15E4909683B
:1009B00041F400515E4AC2F8041306E05A4909683E
:1009C00021F400515A4AC2F804137047F0B50446A6
:1009D0001546002000220026092911DDE068A1F15A
:1009E0000A0707EB470C072707FA0CF29043A1F11F
:1009F0000A0707EB470703FA07F21043E0600CE031
:100A0000206901EB410C072707FA0CF2904301EB38
:100A1000410703FA07F210432061A06BC0F30156AF
:100A2000EF1C06F1010CA7EB0C0707EB870C1F2747
:100A300007FA0CF29043EF1C06F1010CA7EB0C0730
:100A400007EB870701FA07F21043A063F0BD10B56A
:100A50000A4600210023816B21F44011531E41EA14
:100A60000351816310BD08B5002300930090009BE3
:100A70000B440093009B1A6008BD0A460021816860
:100A800021F470211143816070470A46002181687A
:100A900021F44011114381607047816841F4800165
:100AA00081607047014600208A6802F480020AB122
:100AB000012000E00020704721B1426842F48062CA
:100AC000426003E0426822F480624260704721B1D4
:100AD000426842F48052426003E0426822F480524D
:100AE0004260704708B5024600200090009201F174
:100AF0002800009B184400900098006880B208BD50
:100B000010B50B460021D9B2012404FA01F11AB143
:100B100044680C43446002E044688C43446010BD68
:100B2000FFFEFFFCFDF7FFC004230140E030FCFFA7
:100B300000200140FFFD3FFF0246002013680B40EC
:100B40000BB1012000E000207047CA4302607047EB
:100B500070B502460020002300240B1255680126C0
:100B60008E4005EA060415681D4015B10CB1012040
:100B700000E0002070BD00220A12D34303607047DA
:100B8000016821F001010160002101604160816084
:100B9000C160016121214161DB49884204D13D21CD
:100BA000D94A103A91608CE0D7491831884205D172
:100BB0004FF47461D44A103A916082E0D2493031E6
:100BC000884205D14FF47411CF4A103A916078E011
:100BD000CD494831884205D14FF07461CA4A103A74
:100BE00091606EE0C8496031884204D1C749C64A65
:100BF000103AD16065E0C4497831884204D1C449D3
:100C0000C14A103AD1605CE0BF499031884204D1BA
:100C1000C049BD4A103AD16053E0BB49A83188426F
:100C200005D14FF03D51B84A103AD16049E0BA4978
:100C3000884204D13D21B84A083A116041E0B649E2
:100C40001831884205D14FF47461B34A083A1160F3
:100C500037E0B1493031884205D14FF47411AE4AC2
:100C6000083A11602DE0AC494831884205D14FF077
:100C70007461A94A083A116023E0A74960318842AB
:100C800004D1A249A44A121F11601AE0A249783186
:100C9000884204D19E49A04A121F116011E09E496A
:100CA0009031884204D19B499B4A121F116008E091
:100CB0009949A831884204D14FF03D51964A121FFC
:100CC0001160704710B500220268944B1A40CC683E
:100CD0000B6823434C6923438C692343CC6923432A
:100CE0000C6A23434C6A23438C6A23434C6B234393
:100CF0008C6B23431A430260426922F00702D1E958
:100D00000B3423431A4342610B6943604B68836091
:100D10008B68C36010BD0021016041608160C160CB
:100D2000016141618161C161016241628162C162AF
:100D3000016341638163704721B1026842F001029F
:100D4000026003E0026822F001020260704721B1F4
:100D5000026842F40042026003E0026822F40042AA
:100D60000260704721B1026842F02002026003E095
:100D7000026822F02002026070474160704701461D
:100D8000486880B2704722B1036843F400230360CF
:100D900003E0036823F4002303600161704721B17D
:100DA000026842F48022026003E0026822F480229A
:100DB000026070470AB1016100E0C16070470146FE
:100DC00000200A6802F400220AB1012000E000209D
:100DD0007047014600200A6802F001020AB10120B2
:100DE00000E000207047014600204A6902F0380008
:100DF000704730B503460A4600200024464DAB42FA
:100E000002D24149103901E04349103902F000553E
:100E10000DB14C6800E00C68414D2C4004EA02051D
:100E20000DB1012000E0002030BD02463A4B9A424D
:100E300002D23548103801E03748103801F000532D
:100E40001BB1374B0B40C36002E0354B0B40836056
:100E5000704710B501F080034BB122B1436943F0F4
:100E60008003436103E0436923F0800343618029E9
:100E70000BD02AB1036801F01E042343036004E091
:100E8000036801F01E04A343036010BD70B5024661
:100E9000002000240025204EB24202D21A4B103B03
:100EA00001E01D4B103B1F4E0E4036B11E2606EAD8
:100EB000D124166806EA040502E0566906F08005AA
:100EC00001F000560EB15C6800E01C68144E34401E
:100ED00004EA010616B10DB1012000E0002070BD4A
:100EE00002460D4B9A4202D20748103801E00A48E8
:100EF000103801F000531BB1094B0B40C36002E0F6
:100F0000074B0B4083607047106002403D0000209B
:100F1000400F002000003D20106402403F801CF084
:100F20007D0F7D0F3C0F3C0F10B50446984884425E
:100F300008D10121084600F086FB0021012000F0C5
:100F400082FB76E09348844208D10121022000F020
:100F50007AFB0021022000F076FB6AE08E48844292
:100F600008D10121042000F06EFB0021042000F0D4
:100F70006AFB5EE08948844208D10121082000F024
:100F800062FB0021082000F05EFB52E084488442AE
:100F900008D10121102000F056FB0021102000F0A4
:100FA00052FB46E07F48844208D10121202000F016
:100FB0004AFB0021202000F046FB3AE07A488442B8
:100FC00008D10121402000F03EFB0021402000F02C
:100FD0003AFB2EE07548844208D10121802000F0C0
:100FE00032FB0021802000F02EFB22E0704884427A
:100FF00008D10121801500F026FB0021A01500F08A
:1010000022FB16E06B48844208D10121401500F014
:101010001AFB0021601500F016FB0AE066488442C6
:1010200007D10121001500F00EFB0021201500F072
:101030000AFB10BDF0B50A4600210023002400BFC2
:101040003DE0012505FA01F3156805EA03049C4219
:1010500034D105684F000326BE40B54305601579BD
:101060004E00B5400668354305601579012D02D064
:101070001579022D16D185684F000326BE40B54371
:10108000856055794E00B540866835438560456872
:1010900001268E40B5434560456896798E40B6B2CC
:1010A00035434560C5684F000326BE40B543C56063
:1010B000D5794E00B540C6683543C560491C102936
:1010C000BFD3F0BD4FF6FF71016000210171417186
:1010D0008171C171704708B54FF480320092009A57
:1010E0000A430092009AC261C161009AC261C2695A
:1010F0000092C269009208BD0246002013690B40AD
:101100000BB1012000E0002070470146086980B261
:1011100070470246002053690B400BB1012000E0EC
:10112000002070470146486980B2704701837047CC
:10113000418370470AB1018300E0418370474161F8
:10114000704742694A4042617047F0B5002300246D
:101150004D07ED0E02FA05F3CE1000F1200555F80B
:1011600026504E07F70E0F26BE40B543CF1000F1B4
:10117000200646F82750CE1000F1200555F82650DD
:1011800045EA0304CE1000F1200545F82640F0BDE5
:10119000000002400004024000080240000C02402F
:1011A000001002400014024000180240001C0240DF
:1011B000002002400024024000280240F948006854
:1011C00040F00100F74908600020F6490831086046
:1011D000F4480068F4490840F2490860F348091DE2
:1011E0000860F348EF4984310860F0481038091D61
:1011F0000860EC48006820F48020EA49086000207C
:10120000E8490C310860E7498C31086070470021DB
:10121000E44A921C117011460870704710B50146DF
:101220000022002300204A11012A02D1DD4C23684C
:1012300008E0022A03D1DB4C7034236802E0D94C69
:101240007434236801F01F02012494401C400CB147
:10125000012000E0002010BD38B5002000900024DF
:10126000002500BF3120FFF7D9FF05460098401C3C
:1012700000900098B0F5A04F01D0002DF2D03120A1
:10128000FFF7CCFF08B1012400E00024204638BD60
:1012900001460020C34A106820F0F80040EAC1006F
:1012A00010607047C349086070470021BD4A703222
:1012B00011701170012802D004280AD104E0012124
:1012C000B84A7032117005E00521B64A70321170CB
:1012D00000E000BF00BF7047B7490860704770B5B5
:1012E000049C41EA82150126C6EB530645EA0645F1
:1012F000054345EA0465AB4E361D356070BDAD490A
:1013000008667047820142EA0172A64B84331A6074
:101310007047A8498866704710B5830143EA0163A6
:1013200043EA02739F4C8834236010BDA1490867CB
:101330007047A049C864704702460020994B0833A3
:10134000186820F0EC6042EA01031843954B08331B
:101350001860704702460020924B0833186820F04E
:10136000784042EA010318438E4B083318607047F7
:10137000014600208B4A0832106820F00300084321
:101380001060704787480830006800F00C00704714
:1013900001460020834A0832106820F0F00008431C
:1013A00010607047014600207E4A0832106820F421
:1013B000E05008431060704701460020794A083227
:1013C000106820F4604040EAC10010607047F0B53A
:1013D000002100220024022500260223714F083735
:1013E0003F6807F00C0121B1042905D0082937D145
:1013F00005E0724F076036E0714F076033E0694FD8
:101400003F1D3F68C7F38056664F3F1D3F6807F09A
:101410003F036EB16A4FB7FBF3F7DFF888C10CF1F9
:10142000040CDCF800C0CCF3881C07FB0CF40CE0C7
:10143000624FB7FBF3F7DFF86CC10CF1040CDCF87A
:1014400000C0CCF3881C07FB0CF4564F3F1D3F68CF
:10145000C7F301477F1C7D00B4FBF5F7076002E08E
:10146000564F076000BF00BF4E4F08373F6807F078
:10147000F0010909534F7A5C0768D7404760494F2C
:1014800008373F6807F4E051890A4E4F7A5C476895
:10149000D7408760434F08373F6807F46041490BE6
:1014A000484F7A5C4768D740C760F0BD002100F420
:1014B0004072B2F5407F0AD13A4A0832116821F4ED
:1014C000F811414A02401143364A08321160354A48
:1014D00070321268C0F30B031A43324B70331A6038
:1014E00070473549443908607047334940390860CE
:1014F000704736490860704701460020294A8C32FF
:10150000106820F01F004A1E1043264A8C321060DB
:10151000704701460020234A8C32106820F4F850AE
:101520004A1E40EA02201F4A8C3210607047014672
:1015300000201C4A8C32106820F4401008431060D0
:10154000704701460020174A8C32106820F4400092
:1015500008431060704701460020124A8C32106820
:1015600020F4403008431060704719490860704704
:1015700039B10C4A3032126802430A4B30331A60D8
:1015800006E0084A303212688243064B30331A6054
:101590007047F9B1034A343212680243014B3433C5
:1015A0001A601CE000380240FFFFF6EA1030002409
:1015B0000030002000004742800E47420024F40023
:1015C00000127A0028000020FFFCFF0F5C01474258
:1015D000E01147428F4A126882438E4B1A6070476F
:1015E00039B18C4A121D126802438A4B1B1D1A60C6
:1015F00006E0884A121D12688243864B1B1D1A6042
:10160000704739B1834A0C3212680243814B0C3364
:101610001A6006E07F4A0C32126882437D4B0C331D
:101620001A60704739B17B4A103212680243794B15
:1016300010331A6006E0774A103212688243754B05
:1016400010331A60704739B1724A243A1268024363
:10165000704B243B1A6006E06E4A243A12688243BB
:101660006C4B243B1A60704739B16A4A203A1268C1
:101670000243684B203B1A6006E0664A203A126833
:101680008243644B203B1A60704739B1614A1C3A6F
:10169000126802435F4B1C3B1A6006E05D4A1C3A2D
:1016A000126882435B4B1C3B1A60704739B1594A40
:1016B000143A12680243574B143B1A6006E0554A2D
:1016C000143A12688243534B143B1A60704739B185
:1016D000504A103A126802434E4B103B1A6006E023
:1016E0004C4A103A126882434A4B103B1A607047CA
:1016F00039B1484A1C3212680243464B1C331A6007
:1017000006E0444A1C3212688243424B1C331A6082
:10171000704739B13F4A2032126802433D4B2033B3
:101720001A6006E03B4A203212688243394B20336C
:101730001A60704739B1374A243212680243354B78
:1017400024331A6006E0334A243212688243314B54
:1017500024331A60704739B12E4A2C321268024382
:101760002C4B2C331A6006E02A4A2C321268824332
:10177000284B2C331A60704739B1264A3032126830
:101780000243244B30331A6006E0224A303212689A
:101790008243204B30331A607047012808D11D491D
:1017A0003C31096841F008011A4A3C32116007E0F7
:1017B00018493C31096821F00801164A3C32116091
:1017C000704739B1134A273A12780243114B273B2D
:1017D0001A7006E00F4A273A127882430D4B273BD6
:1017E0001A7070470B484030006840F0807009491B
:1017F00040310860704701460020064A283A1268C6
:101800000A400AB1012000E0002070470149263952
:10181000087070473438024010B50446FE488442D0
:1018200008D101210846FFF752FF00210120FFF7F0
:101830004EFF9DE0B4F1804F08D101210846FFF72B
:1018400035FF00210120FFF731FF91E0F34884428A
:1018500008D101210220FFF729FF00210220FFF714
:1018600025FF85E0EE48844208D101210420FFF7DE
:101870001DFF00210420FFF719FF79E0E9488442A9
:1018800008D101210820FFF711FF00210820FFF7F0
:101890000DFF6DE0E448844208D101211020FFF7DC
:1018A00005FF00211020FFF701FF61E0DF488442BF
:1018B00008D101212020FFF7F9FE00212020FFF7A9
:1018C000F5FE55E0DA48844208D101210220FFF7F5
:1018D000FEFE00210220FFF7FAFE49E0D5488442CF
:1018E00009D101210804FFF7F2FE00214FF48030F6
:1018F000FFF7EDFE3CE0D048844209D101214804C5
:10190000FFF7E5FE00214FF40030FFF7E0FE2FE087
:10191000CA48844209D101218804FFF7D8FE00217A
:101920004FF48020FFF7D3FE22E0C548844208D15F
:1019300001214020FFF7BAFE00214020FFF7B6FE4C
:1019400016E0C048844208D101218020FFF7AEFE96
:1019500000218020FFF7AAFE0AE0BB48844207D19D
:1019600001218015FFF7A2FE0021A015FFF79EFEC2
:1019700010BD00220288A84B98420ED0AC4B984272
:101980000BD0B0F1804F08D0A44B984205D0A44BA7
:10199000984202D0A34B984204D14FF68F731A405D
:1019A0004B881A43A04B984207D0A04B984204D0D2
:1019B0004FF6FF431A400B891A4302804B68C362FB
:1019C0000B880385944B984202D0994B984201D1E1
:1019D0008B7A03860123838270474FF0FF31416089
:1019E00000210180018141808172704701858282DE
:1019F00070470A46002101884FF68F731940114342
:101A00000180704741627047C16270470146486A71
:101A100070470146088D704721B1028842F00202EA
:101A2000028004E002884FF6FD731A40028070477E
:101A300021B1028842F00402028004E002884FF6DD
:101A4000FB731A400280704721B1028842F0800285
:101A5000028004E002884FF67F731A4002807047CC
:101A600002884FF6F7731A40028002880A43028008
:101A7000704702884FF6FF431A40028002880A43EB
:101A80000280704721B1028842F00102028004E026
:101A900002884FF6FE731A400280704770B500242A
:101AA00000220023058C4FF6FE7635400584028C1B
:101AB0008388048B4FF68F752C40B51E2C400D8803
:101AC0002C43751E2A408D892A434D882A43524D46
:101AD000A84202D0564DA84213D14FF6F7752A40BE
:101AE000CD892A434FF6FB752A408D882A434FF64D
:101AF000FF652B404FF6FF552B400D8A2B434D8A37
:101B00002B43838004838D684563028470BD70B568
:101B1000002400220023058C4FF6EF763540058423
:101B2000028C8388048B48F6FF752C404FF6FF45E6
:101B30002C400D884FF6FF7606EA05252C434FF61C
:101B4000DF752A408D8906EA05152A434D8806EA85
:101B500005152A43304DA84202D0354DA8421DD16B
:101B60004FF67F752A40CD894FF6FF7606EA0515B8
:101B70002A434FF6BF752A408D8806EA05152A4389
:101B80004FF6FF352B404FF2FF752B400D8A06EACA
:101B900085052B434D8A06EA85052B438380048304
:101BA0008D688563028470BD70B500240022002317
:101BB000058C4FF6FF6635400584028C8388848B44
:101BC0004FF68F752C404FF6FC752C400D882C433A
:101BD0004FF6FF552A408D894FF6FF7606EA052518
:101BE0002A434D8806EA05252A430B4DA84202D018
:101BF0000F4DA84238D14FF2FF752A40CD894FF6DC
:101C0000FF7606EA05252A434FF6FF352A408D88E0
:101C100006EA05252A4319E00000014000040040BF
:101C200000080040000C004000100040001400407C
:101C300000040140004001400044014000480140D0
:101C400000180040001C0040002000404EF6FF75C8
:101C50002B404DF6FF752B400D8A06EA05152B43E8
:101C60004D8A06EA05152B43838084838D68C563FE
:101C7000028470BD70B5002200230024058C4EF64E
:101C8000FF7635400584038C8488828B48F6FF7587
:101C90002A404FF6FF452A400D884FF6FF7606EAA8
:101CA00005252A434DF6FF752B408D8906EA05353B
:101CB0002B434D8806EA05352B43FE4DA84202D042
:101CC000FD4DA84208D14BF6FF752C400D8A4FF60A
:101CD000FF7606EA85152C43848082838D6805642F
:101CE000038470BD002101804180818081608181F9
:101CF000C18101824182704770B5034600200024F3
:101D00001846183001258D40ACB21D8CA5431D84AA
:101D100009B108290AD100EB610005684FF68F76FA
:101D2000354005600568154305600FE00D1FC5F3DC
:101D30004E052844056848F6FF763540056005687D
:101D40004FF6FF7606EA02263543056070BD416313
:101D5000704781637047C1637047016470470A46EA
:101D60000021018B4FF68F73194011430183704797
:101D70000A460021018B48F6FF7319404FF6FF73A6
:101D800003EA02231943018370470A460021818B2D
:101D90004FF68F7319401143818370470A46002123
:101DA000818B48F6FF7319404FF6FF7303EA022355
:101DB0001943818370470A460021018B4FF6F77360
:101DC00019401143018370470A460021018B4FF2ED
:101DD000FF7319404FF6FF7303EA0223194301838F
:101DE00070470A460021818B4FF6F7731940114363
:101DF000818370470A460021818B4FF2FF7319409F
:101E00004FF6FF7303EA02231943818370470A46A2
:101E10000021018B4FF6FB7319401143018370477A
:101E20000A460021018B4FF6FF3319404FF6FF732E
:101E300003EA02231943018370470A460021818B7C
:101E40004FF6FB7319401143818370470A46002106
:101E5000818B4FF6FF3319404FF6FF7303EA0223DD
:101E60001943818370470A460021018B4FF67F7327
:101E700019401143018370470A460021018BC1F3C9
:101E80000E014FF6FF7303EA0223194301837047E3
:101E90000A460021818B4FF67F73194011438183DD
:101EA00070470A460021818BC1F30E014FF6FF7384
:101EB00003EA02231943818370470A460021018CFB
:101EC0004FF6FD7319401143018470470A46002103
:101ED000018C4FF6F77319401143018470470A468D
:101EE0000021018C4FF6DF7319404FF6FF7303EAB0
:101EF00002131943018470470A460021018C4FF6F2
:101F00007F7319404FF6FF7303EA021319430184EC
:101F100070470A460021018C4FF6FF5319404FF6D7
:101F2000FF7303EA02231943018470470A46002124
:101F3000018C4FF2FF7319404FF6FF7303EA02233F
:101F40001943018470470A460021018C4DF6FF7346
:101F500019404FF6FF7303EA0233194301847047B7
:101F600030B5002301248C40A3B2048C9C4304842C
:101F7000048C02FA01F5ADB22C43048430BD30B5B7
:101F8000002304248C40A3B2048C9C430484048C5E
:101F900002FA01F5ADB22C43048430BD828B4FF2BE
:101FA000FF331A408283828B4FF6FF7303EA0123CB
:101FB0001A4382837047F0B50C4615460021002273
:101FC0000026078C4EF6FF7C07EA0C070784818BFE
:101FD000028C4FF6FF7707EA043640F6FF47394098
:101FE0004FF6FF7707EA052739434FF6FF7707EAF1
:101FF0000337394345F6FF773A4046F480573A4372
:1020000081830284F0BD828B4FF6F3731A40828382
:10201000828B0A4382837047F0B50C461546002137
:1020200000220026078C4FF6FF6C07EA0C07078496
:10203000818B028C4FF6FF7707EA04264FF60C7768
:1020400039404FF6FF7707EA03172F4339434FF222
:10205000FF573A4046F480773A4381830284F0BDCB
:10206000028B4FF2FF331A400283028B4FF6FF734D
:1020700003EA01231A4302837047F0B50C46154664
:10208000002100220026078C4FF6EF7C07EA0C07A0
:102090000784018B028C4FF6FF7707EA041640F69F
:1020A000FF4739404FF6FF7707EA033739434FF6CA
:1020B000FF7703E0000001400004014007EA052724
:1020C00039434FF65F773A4046F010073A430183B1
:1020D0000284F0BD028B4FF6F3731A400283028B29
:1020E0000A4302837047F0B50C46154600210022D2
:1020F000068C4FF6FE773E400684018B028C4FF62D
:102100000C7631407E1C06EA03162E4331434FF60F
:10211000F576324044F00106324301830284F0BD7B
:1021200070B505460C46208850B92389A28861887D
:102130002846FFF7D8FFE1882846FFF7CBFF25E0C8
:10214000208804280AD12389A28861882846FFF7BD
:1021500094FFE1882846FFF783FF17E020880828CE
:102160000AD12389A28861882846FFF755FFE188B4
:102170002846FFF748FF09E02389A288618828469E
:10218000FFF719FFE1882846FFF708FF70BD00211F
:1021900001804180012181800021C180018170473F
:1021A0002DE9F04105460C4600260127608808B954
:1021B000022600E00026A088012801D1022700E0C5
:1021C00001272088A0B92389A28861882846FFF7C3
:1021D0008AFFE1882846FFF77DFF23893A4631468A
:1021E0002846FFF74AFFE1882846FFF739FF13E04A
:1021F0002389A28861882846FFF73FFFE1882846A7
:10220000FFF72EFF23893A4631462846FFF76BFF3A
:10221000E1882846FFF75EFFBDE8F0810146486B84
:1022200070470146886B70470146C86B704701468E
:10223000086C70470A884B881A438B881A43CB88EE
:102240001A430B891A434B891A438B891A43A0F806
:10225000442070470021018041808180C18001813C
:1022600041818181704731B1B0F8442042F400428D
:10227000A0F8442005E0B0F84420C2F30E02A0F814
:102280004420704721B1828842F00402828004E039
:1022900082884FF6FB731A408280704721B1828892
:1022A00042F00102828004E082884FF6FE731A40F9
:1022B000828070471AB183890B43838102E083894E
:1022C0008B43838170478182704702460020138AC6
:1022D0000B400BB1012000E000207047CA4302828E
:1022E000704730B50246002000230024158A05EA15
:1022F0000103958905EA010413B10CB1012000E046
:10230000002030BDCA430282704741EA0203A0F8B0
:10231000483070471AB183890B43838102E0838977
:102320008B438381704721B1828842F0080282800A
:1023300004E082884FF6F7731A4082807047018963
:102340004FF6F8721140018170470A460021018959
:102350004FF68F73194011430181704730B5044621
:102360000D4629462046FFF7F0FF208940F0070080
:10237000208130BD2DE9F04104460D4616461F462A
:10238000602D06D13B46012231462046FFF775FEFF
:1023900005E03B46012231462046FFF7A4FE2946D0
:1023A0002046FFF7D2FF208940F007002081BDE8DA
:1023B000F08130B50C4600210189C9B24FF6FF7596
:1023C00005EA0325154325432943018130BD2DE945
:1023D000F04105460E4617469846002443463A46C5
:1023E00031462846FFF7E5FF2C894FF6F870044088
:1023F00044F007044FF68F70044044F070042C81C1
:10240000BDE8F081F0B504460D4616461F463B4632
:10241000324629462046FFF7CCFF208940F4804011
:102420002081F0BD82884FF68F731A4082808288A7
:102430000A438280704702894FF6F8731A4002817E
:1024400002890A430281704702894FF67F731A405E
:10245000028102890A4302817047F0B50C46154695
:102460001E460021002200230189028B038C4FF6B7
:10247000F877394021434FF6FC473A4040F20117C4
:102480003A434FF6DD773B404FF6FF7707EA0617F2
:102490002F433B43018102830384F0BD21B1828835
:1024A00042F08002828004E082884FF67F731A40F7
:1024B00082807047A0F850107047000010B50446A5
:1024C000FA48844208D101211020FFF700F90021C9
:1024D0001020FFF7FCF857E0F548844209D10121AC
:1024E0004804FFF7E3F800214FF40030FFF7DEF86F
:1024F0004AE0F048844209D101218804FFF7D6F868
:1025000000214FF48020FFF7D1F83DE0EA488442F3
:1025100009D10121C804FFF7C9F800214FF40020B8
:10252000FFF7C4F830E0E548844209D101210805ED
:10253000FFF7BCF800214FF48010FFF7B7F823E055
:10254000DF48844208D101212020FFF7C0F8002194
:102550002020FFF7BCF817E0DA48844209D10121B6
:102560008807FFF7A3F800214FF08040FFF79EF89F
:102570000AE0D548844207D101214005FFF796F8CB
:1025800000216005FFF792F810BD2DE9FF470546D1
:102590000E460024A14600BFA046B08900B100BF8E
:1025A0002C8A24F44054F08804432C82AC8941F2F4
:1025B0000C608443B088318908437189084304431F
:1025C000AC81AC8A24F44074B0890443AC82684680
:1025D000FEF7FDFEB548854202D0B948854202D1DA
:1025E000DDF80C9001E0DDF80890A88900F40040C7
:1025F00040B109EBC90000EB091031684900B0FB9C
:10260000F1F707E009EBC90000EB09103168890018
:10261000B0FBF1F76420B7FBF0F00401200964215E
:1026200001FB1078A88900F4004040B1322000EB93
:10263000C800B0FBF1F000F00700044308E03220CE
:1026400000EB08106421B0FBF1F000F00F00044330
:102650002C81BDE8FF874FF4165101600021818075
:10266000C18001810C21418100218181704710B519
:1026700002460020108A20F470600B884C882343A7
:102680008C882343CC8823431843108210BD00213B
:10269000018041808180C180704721B1828942F4EC
:1026A0000052828104E082894DF6FF731A408281D4
:1026B0007047028B02F47F420283028B0A4302833B
:1026C000704721B1828942F40042828103E082890D
:1026D000C2F30E028281704721B1828A42F4006205
:1026E000828204E0828A4FF2FF731A40828270472E
:1026F000C1F308028280704701468888C0F3080051
:102700007047028A4FF6F0731A400282028A0A4327
:102710000282704721B1828942F00202828104E084
:1027200082894FF6FD731A408281704782894FF289
:10273000FF731A40828182890A4382817047028A2C
:102740004FF6DF731A400282028A0A430282704700
:1027500021B1028A42F48042028204E0028A4BF6EE
:10276000FF731A4002827047818941F00101818123
:10277000704721B1828A42F00802828204E0828A94
:102780004FF6F7731A4082827047028BD2B20283EF
:10279000028B42EA01220283704721B1828A42F011
:1027A0002002828204E0828A4FF6DF731A4082821E
:1027B000704721B1828A42F01002828204E0828A4C
:1027C0004FF6EF731A4082827047828A4FF6FB738E
:1027D0001A408282828A0A438282704721B1828AA9
:1027E00042F00202828204E0828A4FF6FD731A40B0
:1027F000828270471AB1838A0B43838202E0838A04
:102800008B4383827047F0B50346002400260025E1
:10281000002040F66A17B94200D100BF1846C1F344
:10282000421401F01F06012707FA06F5012C01D119
:102830000C3004E0022C01D1103000E014301AB149
:1028400007682F43076002E00768AF430760F0BDE9
:1028500002460020B1F5007F00D100BF13880B4075
:102860000BB1012000E00020704701F40072B2F5C6
:10287000007F00D100BFCA430280704770B5024696
:10288000002400230025002040F66A16B14200D142
:1028900000BFC1F3421501F01F03012606FA03F33E
:1028A000012D13D19689334017E00000001001403C
:1028B0000044004000480040004C004000500040F0
:1028C0000014014000780040007C0040022D02D13D
:1028D000168A334001E0968A33400C12012606FA2C
:1028E00004F41688344013B10CB1012000E000203C
:1028F00070BD10B50022002340F66A14A14200D139
:1029000000BF0A1201249440A3B2DC43048010BD2E
:1029100010B504466FF00400FDF7E2FEE11704EB8A
:102920005171C1F3C701394A11701046007800EBAC
:102930004001C1EBC0104FF6FF7101EAC0003449FD
:10294000088010BD0146314A12784A434FF0E02317
:102950005A6100229A611A46126942F001021A6114
:1029600000BF4FF0E022106900F001021AB100F43C
:102970008032002AF5D04FF0E022126922F00102E5
:102980004FF0E0231A6100229A6170470146204A05
:1029900012884A434FF0E0235A6100229A611A4696
:1029A000126942F001021A6100BF4FF0E022106983
:1029B00000F001021AB100F48032002AF5D04FF085
:1029C000E022126922F001024FF0E0231A61002296
:1029D0009A61704770B504464FF4077094FBF0F0AD
:1029E000C6B24FF4077094FBF0F100FB114085B2C2
:1029F00005E04FF40770FFF7C9FF701EC6B2002E46
:102A0000F7D115B12846FFF7C1FF70BD380000208F
:102A10003A00002000BF704700BF4C4A128802F005
:102A20004002002AF9D0C2B2484B9A80704710B5D4
:102A300088B0044601210846FEF79AFD01211020C6
:102A4000FEF7F0FD072209214148FEF77EFB072231
:102A50000A213F48FEF779FB4FF4C0600690022040
:102A60008DF81C008DF81D0000208DF81E0001203F
:102A70008DF81F0006A93648FEF7DCFA0294002004
:102A8000ADF80C00ADF80E00ADF81000ADF8140074
:102A90000C20ADF8120002A92C48FFF776FD0121A9
:102AA0002A48FFF7FAFD012240F225512748FFF797
:102AB000AAFE25208DF8040003208DF805008DF86E
:102AC000060001208DF8070001A8FDF7BCFD08B045
:102AD00010BD10B540F225511C48FFF7CFFE10B3D2
:102AE0001A48FFF709FEC4B21A48008800F40040F3
:102AF000C8B91848008800F4804060B10A2C03D09F
:102B000000201449088020E01248008840F400406A
:102B10001049088019E00D2C06D10E48008840F4B9
:102B200080400C49088010E00A480088C0F30D007E
:102B300009490C5407480088401C0649088008468B
:102B40000088C72801DD0020088010BD001001406A
:102B50000000024040000020CC00002000B587B0FB
:102B600001218804FEF74DFD01210420FEF700FD40
:102B700001212C48FFF791FD4FF4E1300390002034
:102B8000ADF81000ADF81200ADF814000C20ADF84F
:102B900016000020ADF8180003A92248FFF7F5FC45
:102BA000012240F225511F48FFF72DFE07220A217E
:102BB0001D48FEF7CAFA07220B211B48FEF7C5FA8B
:102BC0004FF44060019002208DF8080003208DF83A
:102BD000090001208DF80B0000208DF80A0001A9E2
:102BE0001148FEF727FA27208DF8000003208DF802
:102BF000010002208DF8020001208DF803006846D4
:102C0000FDF721FD07B000BD10B540F22551054884
:102C1000FFF734FE20B10348FFF76EFD034908605B
:102C200010BD7047004800400008024044000020EA
:102C300010B5022001F0B4FD78280ADA022001F074
:102C4000AFFD3C2805DD0120F74908600020F74969
:102C50000860022001F0A4FDF0280ADA022001F049
:102C60009FFD962805DD0020EF4908600120EF490F
:102C7000086010BD10B5EE48006809287ED2DFE874
:102C800000F0051342648CAECFF2EE0009E002F0D2
:102C9000ABF9E748006820B10021084601F075FB58
:102CA00000E0F4E700BF26E10021084601F06DFBDB
:102CB000C820FFF78FFE02F0D9FDDE4800683528F6
:102CC00007D102F04CFB4FF49671084601F05DFB12
:102CD00018E015E0D8480168006801F056FB0020B4
:102CE00001F05EFDD5490968884206DB012001F04C
:102CF00057FDD2490968884202DA02F01AF800E06A
:102D0000E8E700BFF7E002F0B1FD1BE06FF0630100
:102D1000642001F03AFB002001F042FDC749096838
:102D200088420ADB012001F03BFDC4490968884262
:102D300003DBBF480068012804D10021084601F0E8
:102D400024FB00E0E2E700BFD5E002F08FFD1DE0CC
:102D50006FF06301642001F018FB002001F020FDFA
:102D6000B649096888420CDB012001F019FDB3491E
:102D70000968884205DBAE48006800E0B5E001283C
:102D800004D10021084601F000FB00E0E0E700BFAD
:102D90000021084601F0F9FAADE002F067FD1BE002
:102DA0006FF06301642001F0F0FA002001F0F8FCFC
:102DB000A249096888420ADB012001F0F1FC9F4921
:102DC0000968884203DB9A480068012804D1002181
:102DD000084601F0DAFA00E0E2E700BF8BE002F01B
:102DE00045FD1AE06421484201F0CFFA002001F0CD
:102DF000D7FC9249096888420ADB012001F0D0FC27
:102E00008E490968884203DB89480068012804D19B
:102E10000021084601F0B9FA00E0E3E700BF6AE0EC
:102E200002F024FD1AE06421484201F0AEFA0020CD
:102E300001F0B6FC8149096888420ADB012001F0F3
:102E4000AFFC7E490968884203DB794800680128A5
:102E500004D10021084601F098FA02E0E3E723E0FC
:102E600001E000BF47E002F001FD1AE064214842A2
:102E700001F08BFA002001F093FC70490968884248
:102E80000ADB012001F08CFC6C490968884203DBF5
:102E900067480068012804D10021084601F075FA4E
:102EA00000E0E3E700BF26E002F0E0FC1AE0642166
:102EB000484201F06AFA002001F072FC5F4909689B
:102EC00088420ADB012001F06BFC5C4909688842FA
:102ED00003DB57480068012804D10021084601F0AF
:102EE00054FA00E0E3E700BF05E04FF4C87108467C
:102EF00001F04BFA00BF00BF10BD70B58AB00520CD
:102F000001F04EFC0090062001F04AFC01900720E1
:102F100001F046FC0290082001F042FC03900920D9
:102F200001F03EFC04900A2001F03AFC05900B20D1
:102F300001F036FC06900C2001F032FC07900D20C9
:102F400001F02EFC08900E2001F02AFC0990009D53
:102F50000026012008E05DF82010A94202DD5DF89E
:102F600020500646741D401C0A28F4DB20460AB097
:102F700070BD10B50C2001F013FCB0F5FA6F0EDD3A
:102F800003F074F80A20FFF725FD0C2001F008FC7F
:102F9000B0F5FA6F05DD03F06DF8012010BD0020DB
:102FA000FCE700BFFAE710B5002400F0B4FCA3E092
:102FB00023A20121002000F0B4FD24A2012102205F
:102FC00000F0AFFD24A20121042000F0AAFD24A2FC
:102FD0000121062000F0A5FD002002F0BFFF0446FD
:102FE000012C1CD102F042FC0DE01F49484201F0C7
:102FF000CCF902F046FCB0F5FA7F04DD002108466A
:1030000001F0C3F900E0F0E700BF002002F0A6FFE6
:103010000446042C70D100F07EFC00246DE0022CEC
:103020003FD102F023FC30E060000020640000206B
:10303000A0000020440000204C0000205000002090
:10304000CBB3CAB1D5EB393000000000C4E6CAB139
:10305000D5EB393000000000D6B1D0D031C3EB0041
:10306000B7B5BBD800000000D4FEFFFF4FF4967147
:10307000084601F08AF902F004FCB0F57A7F04DD1D
:103080000021084601F081F900E0EFE700BF0020D1
:1030900002F064FF0446042C2ED100F03CFC002416
:1030A0002BE0032C1DD102F0E1FB0EE04FF49671F2
:1030B000484201F06AF902F0E4FBB0F5FA7F04DD62
:1030C0000021084601F061F900E0EFE700BF0020B1
:1030D00002F044FF0446042C0ED100F01CFC002436
:1030E0000BE0042C08D1002002F038FF044600F069
:1030F00012FC002401E0FFE75AE700BF10BD70B5E5
:10310000002400F008FC31E1F6A20121002000F0CB
:1031100008FDF7A20121022000F003FDF8A2012121
:10312000042000F0FEFCF9A20121062000F0F9FCC9
:10313000002002F013FF0446012C51D100F0EBFBFC
:103140004CE0F44800780A2190FBF1F201FB1200F8
:1031500060BB002001F024FB05462A461A2100200E
:1031600000F0FAFE012001F01BFB05462A4646212D
:10317000002000F0F1FE022001F024FE05462A4660
:103180001A21022000F0E8FE032001F01BFE054694
:103190002A464621022000F0DFFE042001F012FE44
:1031A00005462A461A21042000F0D6FE0A20FFF721
:1031B00011FCD8480078401CD649087008460078B1
:1031C000142801D100200870002002F0C7FE044638
:1031D000042C03D100F09FFB002400E0B1E7C5E020
:1031E000032C30D100F097FB2BE0CBA20121002073
:1031F00000F097FCC74800780A2190FBF1F201FB30
:10320000120030B9C848008882B24621062000F07A
:10321000A3FE0A20FFF7DEFBBE480078401CBD4934
:10322000087008460078142801D10020087000209A
:1032300002F094FE0446042C03D100F06CFB002441
:1032400000E0D2E792E0022C7ED100F064FB85E042
:10325000B04800780A2190FBF1F201FB120000282F
:1032600062D1052001F0AEFD05462A460021084640
:1032700000F072FE062001F0A5FD05462A46282131
:10328000002000F069FE072001F09CFD05462A465B
:103290005021002000F060FE082001F093FD05465B
:1032A0002A460021022000F057FE092001F08AFD85
:1032B00005462A462821022000F04EFE0A2001F091
:1032C00081FD05462A465021022000F045FE0B20D4
:1032D00001F078FD05462A460021042000F03CFE5E
:1032E0000C2001F06FFD05462A462821042000F03D
:1032F00033FE0D2001F066FD05462A4650210420CC
:1033000000F02AFE0E2001F05DFD05462A46002150
:10331000062000F021FE0F2001F054FD05462A464C
:103320002821062000F018FE0A20FFF753FB7948F9
:103330000078401C7749087008460078142801D1AD
:1033400000200870002000E00AE002F007FE0446BA
:10335000042C03D100F0DFFA002400E078E705E058
:10336000042C03D1002400F0D6FA00E0CCE600BF24
:1033700070BD10B56DA20121022000F0D2FB01F05A
:1033800077FB02F073FE4FF49670FFF723FB01F01A
:103390006FFB02F06FFE00F0BEFA10BD70B50025A5
:1033A000052407E0E0B201F0FBF9B0F5966F00DD0F
:1033B0006D1C641C0F2CF5DB284670BD70B5052014
:1033C00001F0EEF9B0F5967F14DA062001F0E8F985
:1033D000B0F5967F0EDA082001F0E2F904460720E6
:1033E00001F0DEF90546214601F04CFB502801DAD8
:1033F000012070BD0020FCE710B54F48008832283E
:103400001EDD4D480088B0F5967F19DA4B480088DC
:10341000322815DD49480088B0F5967F10DA484813
:10342000008832280CDD46480088B0F5967F07DA20
:10343000FFF7B4FF022803DD01204249086002E0E3
:1034400000204049086000F066FA10BD70B53D48A4
:103450000068012845D1082001F0A2F904460720A0
:1034600001F09EF90546214601F00CFB502877DA61
:103470000F2001F095F9B0F5967F71DA092001F07F
:103480008FF9B0F57A7F6BDA0A2001F089F9B0F58F
:103490007A7F65DA062001F083F90446052001F001
:1034A0007FF90546214601F0EDFA502858DA26A2A8
:1034B0000121042000F035FB02F0D8F94BE04FF475
:1034C000AF71084600F061FF02F0DBF9B0F5FA7F5A
:1034D00041DD0021084600F058FF6420FFF77AFA2A
:1034E0003AE03CE1312EBBD2B6C8BCECB2E20000FF
:1034F000322EC9E3CFF1CDB7BCECB2E20000000040
:10350000332EBEE0C0EBBCECB2E20000342EB7B507
:10351000BBD800005C000020C9E3CFF1CDB7BCEC04
:10352000B2E2D6D02E2E2E004400002020202020F3
:1035300077656C636F6D6500AC000020AE00002005
:10354000B000002054000020CEB2B2BFB6D4C6EB0B
:103550000000000004E0B2E700BF01F0FDFA46E021
:1035600002F084F941E06421484200F00EFF082097
:1035700001F016F90446072001F012F9054621462C
:1035800001F080FA502826DA0F2001F009F9B0F591
:10359000967F20DA092001F003F9B0F57A7F1ADA74
:1035A0000A2001F0FDF8B0F57A7F14DA062001F068
:1035B000F7F80446052001F0F3F80546214601F02E
:1035C00061FA502807DA0021084600F0DEFE642088
:1035D000FFF700FA0AE002F054F940F6B8318842E9
:1035E00003DD01209B49086000E0BCE700BF99486B
:1035F0000068C8B902F03AF911E04FF4AF7108461B
:1036000000F0C3FE02F03DF9B0F5FA7F07DD0021BE
:10361000084600F0BAFE6420FFF7DCF900E0ECE7B2
:1036200000BF01F099FA9AE002F020F91CE0642151
:10363000484200F0AAFEFFF7C1FE012807D1002191
:10364000084600F0A2FE6420FFF7C4F90DE002F086
:1036500018F9B0F57A6F07DD0021084600F095FEF5
:103660006420FFF7B7F900E0E1E700BF4FF4FA711B
:10367000084600F08AFE4FF47A70FFF7ABF900219C
:10368000084600F082FE6420FFF7A4F902F0EEF88D
:103690004AE06421484200F078FE082001F080F8FA
:1036A0000446072001F07CF80546214601F0EAF9BE
:1036B00050282CDA0F2001F073F8B0F5967F26DA47
:1036C000092001F06DF8B0F57A7F20DA0A2001F0C8
:1036D00067F8B0F57A7F1ADA062001F061F804463F
:1036E000052001F05DF80546214601F0CBF9502890
:1036F0000DDAAFF2AC120121042000F012FA002121
:10370000084600F042FE6420FFF764F90DE002F085
:10371000B8F8B0F57A6F07DD0021084600F035FEF5
:103720006420FFF757F900E0B3E700BF02F09EF80E
:1037300011E04FF4AF71084600F027FE02F0A1F847
:10374000B0F5FA7F07DD0021084600F01EFE642078
:10375000FFF740F900E0ECE700BF01F0FDF93E485B
:10376000006802282FD102F081F82AE03B49084680
:1037700000F00BFE3A480088322822DD38480088E5
:10378000B0F5967F1DDA37480088322819DD3548B4
:103790000088B0F5967F14DA33480088322810DDAF
:1037A00031480088B0F5967F0BDAFFF7F7FD022865
:1037B00007DD0021084600F0E8FD6420FFF70AF964
:1037C00000E0D3E700BF2448006803283BD138E07D
:1037D0002249084600F0D9FD21480088322822DD20
:1037E0001F480088B0F5967F1DDA1E4800883228F1
:1037F00019DD1C480088B0F5967F14DA1A48008855
:10380000322810DD18480088B0F5967F0BDAFFF7F4
:10381000C5FD022807DD0021084600F0B6FD642042
:10382000FFF7D8F80EE002F02CF841F28831884218
:1038300007DD0021084600F0A8FD6420FFF7CAF864
:1038400000E0C5E700BF00200249086002490860A7
:1038500070BD000058000020540000203EFEFFFF15
:10386000AC000020AE000020B000002070B504467F
:103870000E4626B10821FE48FDF758FC03E008215A
:10388000FB48FDF755FC0421F948FDF751FC0025E4
:1038900016E01021F648FDF74BFC04F0800020B143
:1038A0002021F348FDF742FC03E02021F048FDF71A
:1038B0003FFC1021EE48FDF739FC6400681CC5B2DE
:1038C000082DE6DB0821EA48FDF730FC70BD10B595
:1038D00004461CB90021A620FFF7C8FF012C03D124
:1038E0000021A720FFF7C2FF10BD10B504463CB968
:1038F0000021C820FFF7BAFF0021A120FFF7B6FF83
:10390000012C07D10021C020FFF7B0FF0021A0202B
:10391000FFF7ACFF10BD70B5002418E004F1B00053
:103920000021FFF7A3FF00211020FFF79FFF0021D8
:103930000846FFF79BFF002505E001210020FFF767
:1039400095FF681CC5B2802DF7DB601CC4B2082C43
:10395000E4DB70BD70B504460D4605F1B0000021F2
:10396000FFF784FF102141EA14100021FFF77EFFCA
:1039700004F00F000021FFF779FF70BD70B5044619
:10398000002510E029460020FFF7E4FF002606E0AE
:1039900020780121FFF76AFF641C701CC6B2802EDC
:1039A000F6DB681CC5B2082DECDB70BD2DE9F041DB
:1039B00006460C4615464FF0000813E0E1B2F0B29F
:1039C000FFF7C8FF002706E028780121FFF74EFF28
:1039D0006D1C781CC7B2102FF6DB641C08F10100C7
:1039E00000F0FF08B8F1020FE8DBBDE8F0812DE937
:1039F000F04180460C461546002711E0E1B24046F2
:103A0000FFF7A8FF002606E028780121FFF72EFF28
:103A10006D1C701CC6B2082EF6DB641C781CC7B285
:103A2000022FEBDBBDE8F0812DE9F04107460D46A2
:103A30001446E9B23846FFF78DFF002606E02078ED
:103A40000121FFF713FF641C701CC6B2062EF6DBC3
:103A5000BDE8F08170B50446002517E004F0800051
:103A600020B120218248FDF761FB03E0202180483E
:103A7000FDF75EFB6006040E10217D48FDF758FB44
:103A800010217B48FDF752FB681CC5B2082DE5DB11
:103A900070BD70B506460024002512E01021744860
:103AA000FDF746FB6006040E02217148FDF724FB7A
:103AB00008B1601CC4B210216D48FDF737FB681CCB
:103AC000C5B2082DEADB204670BD2DE9F0478046DF
:103AD0000D4616461F46DDF8209004216448FDF788
:103AE00025FB01216248FDF723FB0320FFF7B2FF0E
:103AF0004046FFF7AFFF2846FFF7ACFF3046FFF721
:103B0000A9FF002405E02046FFF7C3FF3855601CDD
:103B1000C4B24C45F7DB01215548FDF707FBBDE872
:103B2000F0872DE9F0478EB007460E461546002473
:103B3000AFE0285DB02837DB285DF72834DC601C57
:103B4000285CA12830DB285DB0385E2110FB01F035
:103B500048490860601C285C00F2AD2009680844F0
:103B6000444908600846006840010860084600684B
:103B7000C0F3074808460088C0F30729084690F8B4
:103B800000A0202006AB5246494600904046FFF771
:103B90009CFF06AA39463046FFF708FF06F11000E1
:103BA000C6B2A01CC4B274E0285DA12836DB285D33
:103BB000A32833DC601C285CA1282FDB285DA138FA
:103BC0005E2110FB01F02B490860601C285CA138C5
:103BD00009680844274908600846006840010860F1
:103BE00008460068C0F3074808460088C0F3072964
:103BF000084690F800A0202006AB524649460090A7
:103C00004046FFF762FF06AA39463046FFF7CEFE70
:103C100006F11000C6B2A01CC4B23AE0285D20280C
:103C200035DB285D7E2832DC285D203811490860AC
:103C30000846006800010860084600680E4908440C
:103C40000C49086008460068C0F307480846008829
:103C5000C0F30729084690F800A0102002AB524696
:103C6000494600904046FFF730FF02AA394605E07A
:103C7000001002406800002080CF03003046FFF7AC
:103C8000B6FE06F10800C6B2601CC4B201E0601CBA
:103C9000C4B2285D00283FF74CAF0EB0BDE8F087F6
:103CA0002DE9FE4F07460E461546002432E0285DFA
:103CB00020282DDB285D7E282ADC285D2038CD4990
:103CC000086008460068C000086008460068CA49E5
:103CD0000844C849086008460068C0F30748084619
:103CE0000088C0F30729084690F800A0082001AB1F
:103CF0005246494600904046FFF7E7FE01AA394682
:103D00003046FFF791FEB01DC6B2601CC4B201E0A0
:103D1000601CC4B2285D0028C9DCBDE8FE8F2DE917
:103D2000F0472DED028B04468946B0EE408A1546D9
:103D300004EBC5000830C4B29FEDB00A28EE000ABB
:103D4000BCEEC00A10EE108AA4F11801C8B2ACA2F1
:103D50004946FFF7E6FE002656E00A20B8FBF0F1E0
:103D600000FB1187B8FBF0F8A4F10800C4B2022EE2
:103D700002D1A4F10800C4B20A2F42D2DFE807F052
:103D8000050B11171D23292F353B9EA249462046BE
:103D9000FFF7C7FE35E09CA249462046FFF7C1FE6B
:103DA0002FE09AA249462046FFF7BBFE29E098A2E1
:103DB00049462046FFF7B5FE23E096A24946204635
:103DC000FFF7AFFE1DE094A249462046FFF7A9FE8B
:103DD00017E092A249462046FFF7A3FE11E090A209
:103DE00049462046FFF79DFE0BE08EA2494620463D
:103DF000FFF797FE05E08CA249462046FFF791FEAB
:103E000000BF00BF701CC6B2AE42A6DBBDEC028B89
:103E1000BDE8F0871CB501211020FDF7A9FB3F206C
:103E2000009001208DF8040000208DF8060003208A
:103E30008DF8050001208DF8070069467B48FDF7E5
:103E4000F9F80220009000208DF804008DF806009B
:103E500003208DF8050001208DF80700694673489E
:103E6000FDF7E8F83F217148FDF760F9C820FEF73B
:103E7000B1FD0021AE20FFF7F9FC00210846FFF755
:103E8000F5FC00211020FFF7F1FC00214020FFF796
:103E9000EDFC00218120FFF7E9FC0021CF20FFF796
:103EA000E5FC0021A120FFF7E1FC0021C820FFF77D
:103EB000DDFC0021A620FFF7D9FC0021A820FFF798
:103EC000D5FC00213F20FFF7D1FC0021D320FFF7D4
:103ED000CDFC00210846FFF7C9FC0021D520FFF7E3
:103EE000C5FC00218020FFF7C1FC0021D920FFF78D
:103EF000BDFC0021F120FFF7B9FC0021DA20FFF71B
:103F0000B5FC00211220FFF7B1FC0021DB20FFF7F8
:103F1000ADFC00214020FFF7A9FC00212020FFF785
:103F2000A5FC00210220FFF7A1FC00218D20FFF756
:103F30009DFC00211420FFF799FC0021A420FFF72D
:103F400095FC0021A620FFF791FC0021AF20FFF790
:103F50008DFCFFF7E0FC1CBD7CB505460E46144603
:103F60004FF47A7094FBF0F03030C0B28DF800005E
:103F70004FF47A7094FBF0F100FB1140642190FB48
:103F8000F1F03030C0B28DF80100642094FBF0F104
:103F900000FB11400A2190FBF1F03030C0B28DF8E7
:103FA00002000A2094FBF0F100FB11403030C0B257
:103FB0008DF8030000208DF804006A46314628463B
:103FC000FFF7AFFD7CBDF8B505460E4614460A2046
:103FD00094FBF0F100FB11403030C0B28DF80000CE
:103FE00000208DF801006A4631462846FFF799FD0A
:103FF000F8BD000068000020C0BF03000000C842F8
:104000002E000000300000003100000032000000EF
:1040100033000000340000003500000036000000CE
:104020003700000038000000390000000010024096
:1040300030B58BB004460D4601210220FDF7E1FAB0
:1040400002220621FD48FDF780F802220721FB48E5
:10405000FDF77BF802220821F848FDF776F80222E6
:104060000921F648FDF771F84FF4707009900220AD
:104070008DF8280003208DF8290000208DF82A00F3
:1040800001208DF82B0009A9EC48FCF7D3FFA8B25A
:10409000ADF818000020ADF81A000794ADF8200024
:1040A00006A9E748FDF765FC6020ADF80400012093
:1040B000ADF806000020ADF8100001A9E048FDF7BA
:1040C000EDFC6020ADF804000120ADF806000020F2
:1040D000ADF8100001A9DA48FDF719FD6020ADF830
:1040E00004000120ADF806000020ADF8100001A981
:1040F000D348FDF759FD6020ADF804000120ADF86C
:1041000006000020ADF8100001A9CD48FDF7B2FD72
:104110000821CB48FDF74FFE0821C948FDF754FEA2
:104120000821C748FDF75DFE0821C548FDF762FE7E
:104130000121C348FDF788FC0121C148FDF7A2FC1D
:104140000BB030BD30B58BB004460D4601210420C4
:10415000FDF757FA02220C21BA48FCF7F6FF0222BB
:104160000D21B848FCF7F1FF02220E21B548FCF7FB
:10417000ECFF02220F21B348FCF7E7FF4FF4704039
:10418000099002208DF8280003208DF829000020D6
:104190008DF82A0001208DF82B0009A9A948FCF709
:1041A00049FFA8B2ADF818000020ADF81A00079436
:1041B000ADF8200006A9A448FDF7DBFB6020ADF8B0
:1041C00004000120ADF806000020ADF8100001A9A0
:1041D0009D48FDF763FC6020ADF804000120ADF8B8
:1041E00006000020ADF8100001A99748FDF78FFCEC
:1041F0006020ADF804000120ADF806000020ADF805
:10420000100001A99048FDF7CFFC6020ADF8040034
:104210000120ADF806000020ADF8100001A98A4881
:10422000FDF728FD08218848FDF7C5FD08218648CF
:10423000FDF7CAFD08218448FDF7D3FD0821824817
:10424000FDF7D8FD01218048FDF7FEFB01217E48E6
:10425000FDF718FC0BB030BD10B50446012C04D19D
:1042600001217948FDF70EFC04E01CB900217648D5
:10427000FDF708FC10BD10B5532140F2E730FFF701
:10428000D7FE532140F2E730FFF75CFF0120FFF734
:10429000E3FF10BD70B505460C46B4F5E17F01DDC6
:1042A0004FF4E17414F5E17F00DA684C9DB9002CFD
:1042B00008DB21466448FDF74AFD00216248FDF70E
:1042C00048FD49E061426048FDF743FD00215E483A
:1042D000FDF73DFD40E0012D13D1002C08DB214608
:1042E0005948FDF738FD00215748FDF736FD33E00A
:1042F00061425548FDF731FD00215348FDF72BFD84
:104300002AE0022D13D1002C08DB21464C48FDF792
:104310001EFD00214A48FDF71CFD1DE06142484892
:10432000FDF717FD00214648FDF711FD14E0032DB0
:1043300012D1002C08DB21464148FDF70CFD00217D
:104340003F48FDF70AFD07E061423D48FDF705FDE6
:1043500000213B48FDF7FFFC70BD2DE9F04104460C
:104360000F4615461E4621460020FFF793FF3946AB
:104370000120FFF78FFF29460220FFF78BFF314610
:104380000320FFF787FFBDE8F08170B504460D46B6
:104390004AE02F480068201A002805DD2C480068F4
:1043A00019302B4908600DE029480068201A05D50E
:1043B0002748006819382649086003E02448006847
:1043C0002349086023480068281A002805DD214891
:1043D000006819301F4908600DE01E480068281A5F
:1043E00005D51C48006819381A49086003E01948C7
:1043F000006818490860164801680020FFF74AFF66
:104400001348006841420120FFF744FF114800684B
:1044100041420220FFF73EFF0E4801680320FFF7EC
:1044200039FF0A20FEF7D6FA09480068A042B0D149
:1044300008480068A842ACD170BD000000080240E6
:1044400000040040000C0240000800403EFEFFFF58
:10445000740000207800002010B500231A46194689
:104460001846FFF77AFF10BD10B5044634B1012C91
:1044700009D0022C0CD0032C14D10EE000210846E8
:10448000FFF708FF0EE000210120FFF703FF09E01E
:1044900000210220FFF7FEFE04E000210320FFF7C9
:1044A000F9FE00BF00BF10BD70B505460C46012DDA
:1044B00023D0022D17D0032D0BD0042D27D104EBD0
:1044C000440000EB0410C0F57B611248FDF73FFC8F
:1044D0001DE004EB440000EB0410C0F57B610D48C7
:1044E000FDF737FC13E004EB440000EB0410C0F5CB
:1044F0007B610848FDF72FFC09E004EB440000EB6A
:104500000410C0F57B610348FDF727FC00BF00BF26
:1045100070BD00000008004000B59BB00121880577
:10452000FDF726F83F20199003208DF86800002041
:104530008DF86B0019A9F848FCF77CFDFF20199055
:1045400003208DF8680000208DF86B0019A9F3484E
:10455000FCF770FD032019908DF8680000208DF89D
:104560006B0019A9EE48FCF765FD01210802FDF773
:10457000AEF800214FF48070FDF7A9F8E948FCF788
:10458000FFFA00200090E8480190E84802900020DF
:10459000039010200490002005904FF48060069056
:1045A00040000790800008904011099040020A9056
:1045B00000200B9001200C9000200D900E90694679
:1045C000D848FCF77FFB0121D648FCF7B5FB012159
:1045D0000802FDF727F801210802FDF778F800210D
:1045E0004FF48070FDF773F8FCF798F800201590F1
:1045F00017904FF4803016900020189015A8FCF703
:10460000C7F800200F9001208DF840008DF8410080
:1046100000201190139010208DF850000FA9C2486F
:104620004C38FCF786F8032301220021BE484C38A1
:10463000FCF705F9032302220121BB484C38FCF7A3
:10464000FEF803231A460221B7484C38FCF7F7F866
:10465000032304221946B4484C38FCF7F0F803232E
:1046600005220421B0484C38FCF7E9F80323062260
:104670000521AD484C38FCF7E2F803230722062158
:10468000A9484C38FCF7DBF8032308220721A64889
:104690004C38FCF7D4F8032309220821A2484C38EF
:1046A000FCF7CDF803230A2209219F484C38FCF778
:1046B000C6F803230B220A219B484C38FCF7BFF8AD
:1046C00003230C220B2198484C38FCF7B8F803233D
:1046D0000D220C2194484C38FCF7B1F803230E222C
:1046E0000D2191484C38FCF7AAF803230F220E2124
:1046F0008D484C38FCF7A3F8032310220F218A4879
:104700004C38FCF79CF8012187484C38FCF742F9FB
:10471000012185484C38FCF732F9012182484C3898
:10472000FCF74DF880484C38FCF7E5F81BB000BDAD
:1047300070B52DED088B04467D4830F814007D4996
:1047400021F81400084630F81460784830F8145006
:10475000304601F0B0FD41EC1B0B9FED770B53ECA5
:10476000102B01F0BBFD41EC190B284601F0A3FD15
:1047700041EC1B0B9FED720B53EC102B01F0AEFDC7
:1047800041EC1A0B53EC192B01F0C0FC41EC180B57
:1047900001F064FD664921F81400BDEC088B70BD82
:1047A00070B504460025102C29D2DFE804F0080A71
:1047B0000C0E10121416181A1C1E202224260A256C
:1047C0001DE00B251BE00C2519E00D2517E0002549
:1047D00015E0012513E0022511E003250FE0042573
:1047E0000DE005250BE0062509E0072507E00E256D
:1047F00005E00F2503E0082501E0092500BF00BF03
:104800002846FFF795FF4A4830F8150070BD01466D
:1048100000201A2915D2DFE801F00D151D262F14EE
:1048200038414A535C656E779DA5AEB6BFC8D0D8F7
:10483000E1EAF5FE444A1268012A01D1012000E0B4
:104840000020F1E0414A1268012A01D1012000E074
:104850000020E9E03D4A121D1268012A01D1012021
:1048600000E00020E0E0394A08321268012A01D154
:10487000012000E00020D7E0344A0C321268012AFF
:1048800001D1012000E00020CEE0304A143212684D
:10489000012A01D1012000E00020C5E02B4A183296
:1048A0001268012A01D1012000E00020BCE0274A63
:1048B0001C321268012A01D1012000E00020B3E07F
:1048C000224A20321268012A01D1012000E0002092
:1048D000AAE01D4A20321268012A01D1012000E01D
:1048E0000020A1E0184A24321268012A01D10120D7
:1048F00000E0002098E0144A28321268012A01D111
:10490000012000E000208FE00F4A2C321268012ABB
:104910001ED101201DE000000008024000000240FE
:1049200000040240106402404C2001409401002029
:10493000B4010020D4010020333333333333E33F59
:104940009A9999999999D93F088240421C0242420A
:10495000002069E0354A1268012A01D1012000E0F7
:10496000002061E0314A121D1268012A01D10120A4
:1049700000E0002058E02E4A1268012A01D10120EF
:1049800000E0002050E02A4A121D1268012A01D1DD
:10499000012000E0002047E0254A08321268012A81
:1049A00001D1012000E000203EE0224A1268012AE5
:1049B00001D1012000E0002036E01F4A1268012AE0
:1049C00001D1012000E000202EE0194A203A1268AF
:1049D000012A01D1012000E0002025E0144A1C3A00
:1049E0001268012A01D1012000E000201CE0104AD9
:1049F000183A1268012A03D1012002E00BE001E01D
:104A0000002011E00A4A143A1268012A01D101205B
:104A100000E0002008E0064A103A1268012A01D19D
:104A2000012000E0002000BF00BF704738824042F4
:104A3000208241423C024042300241421CB54FF4C8
:104A40000060009001208DF8040000208DF8060021
:104A500003208DF8050001208DF8070069460848FD
:104A6000FCF7E8FA4FF400610548FCF75FFB1CBD5A
:104A700010B500F023FF10BD10B500F025FF10BDEC
:104A8000000C02400246501A01D4501A7047881A8E
:104A9000FCE710B50FE00920FFF782FEB0F5966F36
:104AA00009DD0A20FDF796FF0920FFF779FEB0F532
:104AB000966F00DD00E0EEE700BF10BD10B500F01E
:104AC000D5FE0DE0AF214842FFF75FFC00F0D9FEB4
:104AD000B0F5D77F04DD00210846FFF756FC00E063
:104AE000F0E700BF10BD10B5FEF715FFF8A20521D5
:104AF0000220FFF716F84FF47A70FDF76BFFFEF710
:104B00000AFFF6A205210220FFF70BF8F649084636
:104B1000FFF73BFC4FF49660FDF75CFF0021084671
:104B2000FFF733FC6420FDF755FFFFF7C7FF10BD0B
:104B300010B500F09BFE0CE0AF214842FFF725FCCA
:104B400000F09FFEDC2804DD00210846FFF71DFC75
:104B500000E0F1E700BF10BD10B5FEF7DCFEE24952
:104B60000846FFF712FC4FF47A70FDF733FF00217F
:104B70000846FFF70AFC6420FDF72CFFFFF7D8FF7B
:104B800010BD10B5FEF7C7FED8A205210220FEF722
:104B9000C8FF00242CE000F069FE00F072FEC82877
:104BA00004DAD14932390846FFF7EFFB0021084605
:104BB000FFF7EBFB6420FDF70DFF0FE04FF4FA71F8
:104BC0000846FFF7E2FB0020FFF7EAFD322804DB8E
:104BD0000120FFF7E5FD322800DA00E0EEE700BF34
:104BE00000210846FFF7D1FB6420FDF7F3FE641CAB
:104BF000062CD0DB10BD10B514E0BEA205210220AA
:104C0000FEF78FFF4FF4E1710846FFF7BEFB00206F
:104C1000FFF7C6FD322804DB0120FFF7C1FD322873
:104C200000DA00E0E9E700BF00210846FFF7ADFB2E
:104C30006420FDF7CFFE002431E0ACA20521022064
:104C4000FEF76FFF00F012FE00F01BFEC82804DA2A
:104C5000A54932390846FFF798FB00210846FFF7BF
:104C600094FB6420FDF7B6FE0FE04FF4FA7108469E
:104C7000FFF78BFB0020FFF793FD322804DB0120B8
:104C8000FFF78EFD322800DA00E0EEE700BF0021DA
:104C90000846FFF77AFB6420FDF79CFE641C062C97
:104CA000CBDB00F0E3FD00F0ECFDC82804DA8E4910
:104CB00032390846FFF769FB10BD10B500F0D6FD8C
:104CC00009E0AF214842FFF760FB00F0DAFDB0F5E4
:104CD000C87F00DD00E0F4E700BF10BD10B500F0B4
:104CE000C5FD0DE080490846FFF74FFB00F0C9FD08
:104CF000B0F5FA7F04DD00210846FFF746FB00E02F
:104D0000F0E700BF10BD10B500F0B0FD0EE0764931
:104D100032314842FFF739FB00F0B3FDB0F5D77FE1
:104D200004DD00210846FFF730FB00E0EFE700BF9D
:104D300010BD10B571480088B0F5617F0ADD70487C
:104D40000088B0F5617F05DD4FF496710846FFF7E6
:104D50001CFB21E069480088B0F5617F09DA6848EA
:104D60000088B0F5617F04DDFFF7B8FFFFF7CBFFE8
:104D700012E062480088B0F5617F09DD6048008874
:104D8000B0F5617F04DAFFF7A9FFFFF797FE03E0B4
:104D9000FFF7A4FFFFF791FF10BD10B500F066FD0F
:104DA0000DE06FF0AE01AF20FFF7EFFA00F069FD04
:104DB000DC2803DD00210846FFF7E7FA00E0F0E712
:104DC00000BF10BD2DE9F04104460525002604E092
:104DD000E0B2FFF7E5FC0744761CAE42F8DB97FB38
:104DE000F5F080B2BDE8F0813EB50220FFF7EAFFA2
:104DF00000900320FFF7E6FF01900420FFF7E2FF99
:104E00000290009C0025012007E05DF82010A142DF
:104E100002DA5DF820400546401C0328F5DB2046F9
:104E20003EBD10B500F022FD0FE06FF0AE01AF20E7
:104E3000FFF7ABFA00F025FD40F26631884204DD51
:104E400000210846FFF7A1FA00E0EEE700BF10BD21
:104E5000FEB50220FFF7B6FF00900320FFF7B2FF78
:104E600001900420FFF7AEFF0290009D0026012074
:104E700008E05DF82010A94202DD5DF820500646EA
:104E8000B41C401C0328F4DB2046FEBD70B5FFF7C0
:104E9000DFFF022804D003283BD0042878D156E055
:104EA00030E0AF214842FFF770FA0420FFF78AFF95
:104EB00004460320FFF786FF05462146FFF7E2FD83
:104EC000C8281FDAFFF7C4FF02281BD11BE000002F
:104ED0005374616E6420427900000000B3F5CABCCF
:104EE000C9CFCCA8000000003EFEFFFFB2B9B5B6A6
:104EF000D6D00000B9A5BBF7D6D00000A80000208E
:104F0000AA000020CDE700BFAF210846FFF73DFA19
:104F10003EE015E0AF214842FFF737FA0420FFF7E3
:104F200051FF04460320FFF74DFF05462146FFF7DA
:104F3000A9FDC82804DAFFF78BFF022800D100E0A2
:104F4000E8E700BFAF210846FFF71FFA20E016E0B0
:104F50006FF0AE01AF20FFF718FA0420FFF732FF21
:104F600004460320FFF72EFF05462146FFF78AFD82
:104F7000C82804DAFFF76CFF022800D100E0E7E759
:104F800000BFFFF74EFFAF210846FFF7FEF900BF55
:104F900000BF70BD10B500F069FC0EE04FF4C871A1
:104FA0000846FFF7F2F900F06CFCB0F5C87F03DDAE
:104FB00000210846FFF7E9F900E0EFE700BF10BD68
:104FC00010B500F053FC0CE0F9490846FFF7DDF995
:104FD00000F057FCC82803DD00210846FFF7D5F98B
:104FE00000E0F1E700BF10BD70B5FFF7FDFEB0F5C2
:104FF0002F7F71DA0220FFF7E5FEB0F52F7F29DA67
:105000000320FFF7DFFEB0F52F7F23DD0420FFF73D
:10501000D9FEB0F52F7F1DDD12E06FF0AE01AF209D
:10502000FFF7B3F90420FFF7CDFE04460320FFF796
:10503000C9FE05462146FFF725FDC82800DA00E035
:10504000EBE700BFFFF7BCFFFFF7EBFEAF21084621
:10505000FFF79BF90220FFF7B5FEB0F52F7F28DDA3
:105060000320FFF7AFFEB0F52F7F22DD0420FFF70E
:10507000A9FEB0F52F7F1CDA11E0AF214842FFF7FF
:1050800084F90420FFF79EFE04460320FFF79AFEF2
:1050900005462146FFF7F6FCC82800DA00E0ECE7F9
:1050A00000BFFFF7BEFEAF210846FFF76EF9FEF71F
:1050B00032FC0220FFF786FEB0F52F7F28DA0320AE
:1050C000FFF780FEB0F52F7F22DA0420FFF77AFE8B
:1050D000B0F52F7F1CDD13E0BAE06FF0AE01AF201A
:1050E000FFF753F90420FFF76DFE04460320FFF796
:1050F00069FE05462146FFF7C5FCC82800DA00E036
:10510000EBE700BFAF210846FFF73FF9FEF703FCCE
:105110000220FFF757FEB0F52F7F26DA0320FFF7B6
:1051200051FEB0F52F7F20DD0420FFF74BFEB0F5D8
:105130002F7F1ADA11E0AF214842FFF726F9042049
:10514000FFF740FE04460320FFF73CFE05462146DC
:10515000FFF798FCC82800DA00E0ECE700BFAF21B9
:105160000846FFF712F9FEF7D6FB0220FFF72AFEEA
:10517000B0F52F7F29DD0320FFF724FEB0F52F7F48
:1051800023DA0420FFF71EFEB0F52F7F1DDA12E0B0
:105190006FF0AE01AF20FFF7F8F80420FFF712FE22
:1051A00004460320FFF70EFE05462146FFF76AFC82
:1051B000C82800DA00E0EBE700BFFFF7EBFEFFF7DF
:1051C000ECFDAF210846FFF7E0F80220FFF7FAFDFB
:1051D000B0F52F7F26DD0320FFF7F4FDB0F52F7F1C
:1051E00020DA0420FFF7EEFDB0F52F7F1ADD11E085
:1051F000AF214842FFF7C9F80420FFF7E3FD04465A
:105200000320FFF7DFFD05462146FFF73BFCC828DA
:1052100000DA00E0ECE700BFAF210846FFF7B5F881
:10522000FEF779FB0220FFF7CDFDB0F52F7F0FDAF7
:105230000320FFF7C7FDB0F52F7F09DA0420FFF741
:10524000C1FDB0F52F7F03DAFFF720FEFEF763FB09
:10525000FFF7CAFDB0F52F7F05DDFFF79EFDAF21FB
:105260000846FFF792F870BDFEB50220FFF7AAFDD1
:1052700000900320FFF7A6FD01900420FFF7A2FD98
:105280000290009D0024012008E05DF82010A94252
:1052900002DA5DF820500446A61C401C0328F4DB0B
:1052A0002046FEBD3EB50220FFF78CFD0090032096
:1052B000FFF788FD01900420FFF784FD0290009C19
:1052C0000025012007E05DF82010A14202DD5DF815
:1052D00020400546401C0328F5DB20463EBD10B5A6
:1052E00000F0C4FA0EE04FF4C8710846FFF74DF81D
:1052F00000F0C7FAB0F5C87F04DD00210846FFF7CB
:1053000044F800E0EFE700BF10BD10B500F0AEFAC2
:105310000CE027490846FFF738F800F0B2FAC82831
:1053200004DD00210846FFF730F800E0F1E700BF98
:1053300010BD10B500F09AFA0EE01D49323908464A
:10534000FFF723F800F09DFAB0F5FA7F03DD0021A6
:105350000846FFF71AF800E0EFE700BF10BD10B5F0
:1053600000F084FA0EE06FF0AE01AF20FFF70DF809
:1053700000F087FAB0F5917F04DD00210846FFF7C1
:1053800004F800E0EFE700BF10BD10B500F06EFAC2
:1053900010E0AF214842FEF7F8FF00F072FAB0F5D6
:1053A000917F07DD00210846FEF7EFFF03E00000D4
:1053B00070FEFFFFEDE700BF10BD10B500F056FA1C
:1053C0000DE06FF0AE01AF20FEF7DFFF00F059FAFD
:1053D000DC2804DD00210846FEF7D7FF00E0F0E7F7
:1053E00000BF10BD10B500F041FA0CE0AF214842FB
:1053F000FEF7CBFF00F045FADC2803DD002108466C
:10540000FEF7C3FF00E0F1E700BF10BD10B500F0EC
:105410002DFA0FE06FF0AE01AF20FEF7B6FF00F0FF
:1054200030FA40F26631884204DD00210846FEF77A
:10543000ACFF00E0EEE700BF10BD10B500F016FABB
:1054400012E08C490968C1F164008A49096849423F
:10545000FEF79BFF00F015FAB0F5967F04DD002102
:105460000846FEF792FF00E0EBE700BF81480168C5
:105470000068FEF78AFF0020FFF792F9B0F5617F20
:1054800005DB0120FFF78CF9B0F5617F01DAFFF74A
:1054900050FC00F0EBF910E0764800684142754896
:1054A00000684042FEF771FF00F0EBF9C82804DD08
:1054B00000210846FEF769FF00E0EDE700BF6D48F8
:1054C00001680068FEF761FF0020FFF769F9B0F599
:1054D000617F05DB0120FFF763F9B0F5617F01DA39
:1054E000FFF727FC00F0C2F912E062480068C0F143
:1054F0006401604800684042FEF747FF00F0C1F9D0
:10550000B0F5967F04DD00210846FEF73EFF00E07F
:10551000EBE700BF574801680068FEF736FF002040
:10552000FFF73EF9B0F5617F05DB0120FFF738F9A1
:10553000B0F5617F01DAFFF7FCFB10BD70B595E0B7
:105540000620FFF72DF904460520FFF729F9054647
:105550002146FFF797FA502804DA464801680068A8
:10556000FEF713FF0620FFF71BF904460520FFF79F
:1055700017F905462146FFF785FA502869DD052011
:10558000FFF70EF904460620FFF70AF984422BDDE7
:105590000020394908601AE0374800683549096831
:1055A000884203DD3348006833490860314A126895
:1055B000314B1B68D1182F4A12682F4B1B68D01A29
:1055C000FEF7E3FE2C48006864302B490860062093
:1055D000FFF7E6F804460520FFF7E2F80546214606
:1055E000FFF750FA5028D7DB0520FFF7D9F804461B
:1055F0000620FFF7D5F884422BDA00201E49086008
:105600001AE01C4A12681C4B1B68D11A194A12680E
:10561000194B1B68D018FEF7B8FE174800681549EB
:105620000968884203DD134800681349086012487E
:1056300000686430104908600620FFF7B1F804469E
:105640000520FFF7ADF805462146FFF71BFA502865
:10565000D7DB0020FFF7A4F83C2804DB0120FFF78C
:105660009FF83C2802DAFFF764FB00E068E700BF20
:1056700070BD00004C0000208000002010B5F748ED
:105680000188F7480088FFF7FDF950281ADAF54835
:105690000188F5480088FFF7F5F9502812DAF34839
:1056A0000088B0F5967F0DDAF1480088B0F5967F56
:1056B00004DBF0480088B0F5967F03DA0120EE495C
:1056C000086002E00020EC49086010BDE648008850
:1056D000B0F5966F08DDE3480088B0F5966F03DDFE
:1056E0000120E649086002E00020E44908607047B4
:1056F00010B5DA480188DA480088FFF7C3F9502866
:1057000019DAD8480188D8480088FFF7BBF9502833
:1057100011DAD6480088B0F5967F0CDAD5480088B3
:10572000B0F5967F07DAD2480088B0F5967F02DDA3
:105730000120D3490860C9480188C9480088FFF79B
:10574000A1F9502819DAC7480188C7480088FFF72F
:1057500099F9502811DAC5480088B0F5967F0CDA1F
:10576000C3480088B0F5967F07DAC2480088B0F5D4
:10577000967F02DD0220C2490860B8480188B84817
:105780000088FFF77FF950281ADAB6480188B64832
:105790000088FFF777F9502812DAB4480088B0F58E
:1057A000967F0DDAB3480088B0F5967F08DAB048E6
:1057B0000088B0F5967F03DA0320B149086002E063
:1057C0000020AF49086010BD7FB505460C46012199
:1057D0000846FBF716FF0295ADF804400020ADF82F
:1057E0000600ADF80C0001A94FF08040FCF7C1F8AD
:1057F000012211469007FCF75DFD1C208DF800008A
:1058000001208DF801008DF802008DF80300684634
:10581000FAF719FF7FBD7FB505460C460121082028
:10582000FBF7EFFE0295ADF804400020ADF806004E
:10583000ADF80C0001A99348FCF79BF80122114632
:105840009048FCF737FD01218E48FCF71BF9322008
:105850008DF8000002208DF8010001208DF8020073
:105860008DF803006846FAF7EEFE7FBD10B5002004
:10587000854908808549088001218807FCF702F9DD
:1058800010BD8148008870478048008870477E4876
:1058900000887E4909884FF47A7202FB010080B2C9
:1058A000704710B500214FF08040FCF7EBF810BDB9
:1058B00000207549088075490880704701207449A7
:1058C0000870744908607047002071490870714978
:1058D0000860704710B500206F4908806F49088044
:1058E00001216848FCF7CEF810BD6B48008870476E
:1058F0006A480088704768480088684909884FF4FA
:105900007A7202FB010080B2704710B500215D4839
:10591000FCF7B8F810BD00205F4908805F49088097
:10592000704710B501218807FCF7DBFC01280ED178
:1059300055480088401C5449088008460088B0F546
:105940007A7F04D151480088401C504908800121C9
:105950008807FCF7D7FC10BD10B5024642BB0023F8
:10596000002400210CE04E4830F81100322806DDFA
:105970004B4830F81100B0F5967F00DA5B1C491CEB
:105980000529F0DB0020014607E0454830F811000A
:10599000322800DA641C481C01460529F5DB052B7A
:1059A00001D1012010BD052C01D10220FAE700BF72
:1059B000012A28D10023002400210CE0394830F8C6
:1059C0001100322806DD374830F81100B0F5967F17
:1059D00000DA5B1C491C0529F0DB0020014607E0CA
:1059E000304830F81100322800DA641C481C0146A7
:1059F0000529F5DB052B01D10120D3E7052C01D1C9
:105A00000220CFE700BF022A51D100240023002149
:105A10000CE0254830F81100322806DD224830F825
:105A20001100B0F5967F00DA641C491C0529F0DBF3
:105A30000020014607E01C4830F81100322800DA47
:105A40005B1C481C01460529F5DB052C01D1012012
:105A5000A8E7052B2AD10220A4E70000B800002007
:105A6000B6000020B4000020B2000020C6000020D4
:105A7000BA000020BC000020940000209C00002000
:105A800098000020000C00408400002086000020C8
:105A90008C000020AC824142880000208A00002057
:105AA000140200201E0200202802002000BF032A4A
:105AB00028D10023002400210CE0EF4830F8110029
:105AC000322806DDEC4830F81100B0F5967F00DA98
:105AD0005B1C491C0529F0DB0020014607E0E64875
