:020000040800F2
:10000000D0080020F5050008C9030008CB0300084C
:10001000CF030008D3030008D70300080000000046
:10002000000000000000000000000000DB030008EA
:10003000DD03000800000000DF030008E103000802
:100040000F0600080F0600080F0600080F0600083C
:100050000F0600080F0600080F0600080F0600082C
:100060000F0600080F0600080F0600080F0600081C
:100070000F0600080F0600080F0600080F0600080C
:100080000F0600080F0600080F0600080F060008FC
:100090000F0600080F0600080F0600080F060008EC
:1000A0000F0600080F0600080F0600080F060008DC
:1000B000455600080F0600080F0600080F06000846
:1000C0000F0600080F0600080F0600080F060008BC
:1000D0000F060008CB2A00080F060008012C0008B4
:1000E0000F0600080F0600080F0600080F0600089C
:1000F0000F0600080F0600080F0600080F0600088C
:100100000F0600080F060008855800080F060008B3
:100110000F0600080F0600080F0600080F0600086B
:100120000F0600080F0600080F0600080F0600085B
:100130000F0600080F0600080F0600080F0600084B
:100140000F0600080F0600080F0600080F0600083B
:100150000F0600080F0600080F0600080F0600082B
:100160000F0600080F0600080F0600080F0600081B
:100170000F0600080F0600080F0600080F0600080B
:100180000F0600080F06000800F002F800F03CF827
:100190000AA090E8000C82448344AAF10107DA45E2
:1001A00001D100F031F8AFF2090EBAE80F0013F0F8
:1001B000010F18BFFB1A43F001031847B862000093
:1001C000D8620000103A24BF78C878C1FAD8520724
:1001D00024BF30C830C144BF04680C6070470000C1
:1001E0000023002400250026103A28BF78C1FBD840
:1001F000520728BF30C148BF0B6070471FB506F0DB
:1002000033F91FBD10B510BD05F02BFE1146FFF7E9
:10021000F5FF00F052F805F049FE03B4FFF7F2FFD6
:1002200003BC02F0F3FB000010B54FF4A06000F037
:1002300001FA0121084601F097F90121022001F09D
:1002400093F90121042001F08FF90121082001F028
:100250008BF90121102001F087F9A82002F054FB4E
:1002600005F01AFD04F007F804F056F902F072FCEC
:1002700004F0E4FB03F0CEFD05F0A4FD532140F2B1
:10028000E73005F032F903F046FB02F0CDFC36A270
:100290000121002003F045FC35A20121042003F0D8
:1002A00040FC37A20121062003F03BFC4FF47A709A
:1002B00002F08CFB03F02FFB10BDFFF7B5FF51E000
:1002C000002005F029FD32490870084600783149C0
:1002D000087031A20121002003F023FC31A201218A
:1002E000022003F01EFC32A20121042003F019FCBD
:1002F00032A20121062003F014FC002005F00CFDC1
:10030000234908700846007818B10846007821494A
:10031000087020480078012802D102F0F0FE21E0A8
:100320001C480078022802D102F03AFE1AE019486F
:100330000078032810D142F2CF01312005F0FCF8FB
:1003400003F0E9FA07E01F48006810B902F08EFCDC
:1003500001E003F07BF8F6E70E480078042801D1AD
:1003600003F0D9FAACE70000BBB6D3ADC4FA000085
:10037000CAB9D3C3CCECC8A8B6D3B3CCD0F2000072
:10038000526967687420526576657273656400000F
:100390000000002001000020312EBCECB2E2C4A31A
:1003A000CABD0000322ED6F7B3CCD0F20000000058
:1003B000332EB5E7BBFABCECB2E20000342EB7B581
:1003C000BBD8000054000020704700BFFEE700BF0C
:1003D000FEE700BFFEE700BFFEE7704770477047CB
:1003E000704700000CB5002001900090764800682E
:1003F00040F480307449086000BF7348006800F41E
:10040000003000900198401C0190009818B90198A4
:10041000B0F5A04FF1D16C48006800F4003010B185
:100420000120009001E0002000900098012846D1B2
:1004300065484030006840F08050634940310860B2
:100440006248006840F44040604908605E480830F7
:1004500000685D49083108600846006840F40040C3
:1004600008600846006840F4A05008605848091F1A
:100470000860081F006840F08070091F086000BF16
:100480005148006800F000700028F9D040F2057073
:10049000504908604C480830006820F003004A4981
:1004A000083108600846006840F00200086000BF9C
:1004B00045480830006800F00C000828F8D10CBD51
:1004C00010B54548006840F47000434908603E4854
:1004D000006840F001003C49086000203A490831BA
:1004E0000860394800683D490840374908603C4881
:1004F000091D0860081F006820F48020091F08609B
:10050000002031490C310860FFF76CFF4FF00060AC
:1005100031498039086010BD70B5002000220223E7
:1005200000240221284D08352D6805F00C0020B16B
:10053000042806D0082834D107E02A4D2A4E356019
:1005400033E02A4D284E35602FE01F4D2D1D2D68BC
:10055000C5F380541C4D2D1D2D6805F03F0154B18D
:10056000224DB5FBF1F5184E361D3668C6F38816D8
:1005700005FB06F209E01B4DB5FBF1F5124E361DE9
:100580003668C6F3881605FB06F20F4D2D1D2D6843
:10059000C5F301456D1C6B00B2FBF3F5124E3560DF
:1005A00003E0104D104E356000BF00BF064D08350A
:1005B0002D68C5F303150E4E705D0B4D2D68C540BB
:1005C000094E356070BD00000038024000700040E8
:1005D00008544007003C024088ED00E0FFFFF6FEB3
:1005E000103000240024F4001400002000127A00CF
:1005F000180000200948804709480047FEE7FEE749
:10060000FEE7FEE7FEE7FEE7FEE7FEE7FEE7FEE7C2
:1006100004480549054A064B70470000C10400081C
:1006200089010008D0020020D0080020D00400205A
:10063000D004002032490143324A1160704770B53E
:10064000002100230F22C4781CB32E4C246804F42C
:10065000E064C4F5E064C4F30721C1F10404E3B22B
:100660000A4144789C40E1B28478144021430C074D
:10067000210E254C05786155047804F01F050124EE
:10068000AC4005786D11AD0005F1E025C5F80041DD
:1006900009E0047804F01F050124AC401B4D0678E6
:1006A000761145F8264070BD194A0A400243154BA1
:1006B0001B1F1A60704739B1124A121D126802439B
:1006C000104B1B1D1A6006E00E4A121D1268824371
:1006D0000C4B1B1D1A607047042808D14FF0E02115
:1006E000096941F004014FF0E022116107E04FF089
:1006F000E021096921F004014FF0E0221161704707
:100700000000FA050CED00E000E400E080E100E00C
:1007100080FFFF1F10B50121080200F0D4FF002167
:100720004FF4807000F0CFFF10BD30B502460020BE
:1007300000235068F84C20400D790C6844EA0524E9
:10074000204350609068F54C2040D1E903542C437D
:100750008D682C434D7944EA450420439060D06A6B
:1007600020F470000C7D641EE4B2234340EA035081
:10077000D06230BD00210160017141718160C160B2
:1007800001610121017570470021E54A1168E54AC0
:100790001140D0E900231A4383681A43C3681A43FF
:1007A0001143E14AC2F8041370470021016041601F
:1007B0008160C160704721B1826842F001028260AD
:1007C00003E0826822F00102826070470A4600213D
:1007D0004168D64B194011434160704741628262C3
:1007E00070470A460021416821F01F011143416012
:1007F000704738B1CA49096841F40001CA4AC2F8D1
:10080000041306E0C649096821F40001C64AC2F88B
:100810000413704738B1C249096841F48001C24AE3
:10082000C2F8041306E0BE49096821F48001BE4AFB
:10083000C2F804137047F0B504460D4600200021AD
:10084000092D11DDE068A5F10A0606EB460707262B
:1008500006FA07F18843A5F10A0606EB460603FAF5
:1008600006F10843E0600CE0206905EB4507072628
:1008700006FA07F1884305EB450603FA06F108433B
:100880002061072A0FDA606B561E06EB86071F26CB
:1008900006FA07F18843561E06EB860605FA06F1AE
:1008A0000843606322E00D2A0FDA206BD61F06EBA7
:1008B00086071F2606FA07F18843D61F06EB860631
:1008C00005FA06F10843206310E0E06AA2F10D0684
:1008D00006EB86071F2606FA07F18843A2F10D06EC
:1008E00006EB860605FA06F10843E062F0BD816872
:1008F00041F0804181607047014600208A6802F023
:1009000080420AB1012000E00020704721B18268D6
:1009100042F48062826003E0826822F48062826036
:10092000704721B1826842F00202826003E082686F
:1009300022F002028260704710B50A4600210023AF
:10094000416821F46041531E41EA4331416010BDCA
:1009500021B1426842F40062426003E0426822F43E
:100960000062426070470146C86C80B270476C48B4
:10097000001D0068704721B1826842F48072826075
:1009800003E0826822F480728260704721B182683D
:1009900042F40072826003E0826822F40072826096
:1009A000704738B15E49096841F400515E4AC2F8A7
:1009B000041306E05A49096821F400515A4AC2F862
:1009C00004137047F0B504461546002000220026A7
:1009D000092911DDE068A1F10A0707EB470C072799
:1009E00007FA0CF29043A1F10A0707EB470703FA55
:1009F00007F21043E0600CE0206901EB410C07278F
:100A000007FA0CF2904301EB410703FA07F2104397
:100A10002061A06BC0F30156EF1C06F1010CA7EB9F
:100A20000C0707EB870C1F2707FA0CF29043EF1C0B
:100A300006F1010CA7EB0C0707EB870701FA07F299
:100A40001043A063F0BD10B50A4600210023816B5E
:100A500021F44011531E41EA0351816310BD08B5D2
:100A6000002300930090009B0B440093009B1A60AE
:100A700008BD0A460021816821F47021114381607C
:100A800070470A460021816821F4401111438160BA
:100A90007047816841F48001816070470146002001
:100AA0008A6802F480020AB1012000E00020704749
:100AB00021B1426842F48062426003E0426822F45D
:100AC00080624260704721B1426842F480524260C5
:100AD00003E0426822F480524260704708B5024643
:100AE00000200090009201F12800009B1844009023
:100AF0000098006880B208BD10B50B460021D9B23D
:100B0000012404FA01F11AB144680C43446002E084
:100B100044688C43446010BDFFFEFFFCFDF7FFC03E
:100B200004230140E030FCFF00200140FFFD3FFFB7
:100B30000246002013680B400BB1012000E00020AA
:100B40007047CA430260704770B502460020002318
:100B500000240B12556801268E4005EA060415682C
:100B60001D4015B10CB1012000E0002070BD002235
:100B70000A12D34303607047016821F0010101604C
:100B80000021016041608160C160016121214161FA
:100B9000DB49884204D13D21D94A103A91608CE06A
:100BA000D7491831884205D14FF47461D44A103ABC
:100BB000916082E0D2493031884205D14FF47411FE
:100BC000CF4A103A916078E0CD494831884205D14A
:100BD0004FF07461CA4A103A91606EE0C8496031C2
:100BE000884204D1C749C64A103AD16065E0C44979
:100BF0007831884204D1C449C14A103AD1605CE0DE
:100C0000BF499031884204D1C049BD4A103AD160F1
:100C100053E0BB49A831884205D14FF03D51B84A55
:100C2000103AD16049E0BA49884204D13D21B84A1E
:100C3000083A116041E0B6491831884205D14FF4B5
:100C40007461B34A083A116037E0B14930318842E3
:100C500005D14FF47411AE4A083A11602DE0AC4949
:100C60004831884205D14FF07461A94A083A1160B1
:100C700023E0A7496031884204D1A249A44A121F47
:100C800011601AE0A2497831884204D19E49A04AF5
:100C9000121F116011E09E499031884204D19B4996
:100CA0009B4A121F116008E09949A831884204D17B
:100CB0004FF03D51964A121F1160704710B5002247
:100CC0000268944B1A40CC680B6823434C69234359
:100CD0008C692343CC6923430C6A23434C6A234326
:100CE0008C6A23434C6B23438C6B23431A4302606F
:100CF000426922F00702D1E90B3423431A434261CF
:100D00000B6943604B6883608B68C36010BD002132
:100D1000016041608160C160016141618161C161C7
:100D2000016241628162C162016341638163704714
:100D300021B1026842F00102026003E0026822F081
:100D400001020260704721B1026842F40042026071
:100D500003E0026822F400420260704721B1026899
:100D600042F02002026003E0026822F020020260EA
:100D70007047416070470146486880B2704722B1B1
:100D8000036843F40023036003E0036823F40023B3
:100D900003600161704721B1026842F48022026061
:100DA00003E0026822F48022026070470AB1016108
:100DB00000E0C1607047014600200A6802F400228A
:100DC0000AB1012000E000207047014600200A68B7
:100DD00002F001020AB1012000E000207047014644
:100DE00000204A6902F03800704730B503460A46D1
:100DF00000200024464DAB4202D24149103901E0A7
:100E00004349103902F000550DB14C6800E00C6800
:100E1000414D2C4004EA02050DB1012000E0002004
:100E200030BD02463A4B9A4202D23548103801E0B2
:100E30003748103801F000531BB1374B0B40C360EB
:100E400002E0354B0B408360704710B501F0800322
:100E50004BB122B1436943F08003436103E043692E
:100E600023F08003436180290BD02AB1036801F08D
:100E70001E042343036004E0036801F01E04A3433F
:100E8000036010BD70B50246002000240025204EEE
:100E9000B24202D21A4B103B01E01D4B103B1F4ED9
:100EA0000E4036B11E2606EAD124166806EA04056D
:100EB00002E0566906F0800501F000560EB15C684C
:100EC00000E01C68144E344004EA010616B10DB16E
:100ED000012000E0002070BD02460D4B9A4202D274
:100EE0000748103801E00A48103801F000531BB1E0
:100EF000094B0B40C36002E0074B0B408360704717
:100F0000106002403D000020400F002000003D2006
:100F1000106402403F801CF07D0F7D0F3C0F3C0FA2
:100F200010B504469848844208D10121084600F0D3
:100F300086FB0021012000F082FB76E0934884428A
:100F400008D10121022000F07AFB0021022000F0EC
:100F500076FB6AE08E48844208D10121042000F02B
:100F60006EFB0021042000F06AFB5EE089488442A9
:100F700008D10121082000F062FB0021082000F0C8
:100F80005EFB52E08448844208D10121102000F029
:100F900056FB0021102000F052FB46E07F488442BF
:100FA00008D10121202000F04AFB0021202000F080
:100FB00046FB3AE07A48844208D10121402000F003
:100FC0003EFB0021402000F03AFB2EE075488442B1
:100FD00008D10121802000F032FB0021802000F0A8
:100FE0002EFB22E07048844208D10121801500F0D8
:100FF00026FB0021A01500F022FB16E06B4884427E
:1010000008D10121401500F01AFB0021601500F005
:1010100016FB0AE06648844207D10121001500F062
:101020000EFB0021201500F00AFB10BDF0B50A46AA
:1010300000210023002400BF3DE0012505FA01F353
:10104000156805EA03049C4234D105684F00032665
:10105000BE40B543056015794E00B540066835437E
:1010600005601579012D02D01579022D16D18568FC
:101070004F000326BE40B543856055794E00B5400C
:10108000866835438560456801268E40B5434560D6
:10109000456896798E40B6B235434560C5684F00C5
:1010A0000326BE40B543C560D5794E00B540C6683D
:1010B0003543C560491C1029BFD3F0BD4FF6FF7101
:1010C00001600021017141718171C171704708B5E2
:1010D0004FF480320092009A0A430092009AC26153
:1010E000C161009AC261C2690092C269009208BDE2
:1010F0000246002013690B400BB1012000E00020E4
:1011000070470146086980B2704702460020536963
:101110000B400BB1012000E00020704701464869F8
:1011200080B2704701837047418370470AB10183E1
:1011300000E0418370474161704742694A40426123
:101140007047F0B5002300244D07ED0E02FA05F3B9
:10115000CE1000F1200555F826504E07F70E0F2649
:10116000BE40B543CF1000F1200646F82750CE1000
:1011700000F1200555F8265045EA0304CE1000F191
:10118000200545F82640F0BD000002400004024062
:1011900000080240000C024000100240001402400F
:1011A00000180240001C02400020024000240240BF
:1011B00000280240F948006840F00100F749086043
:1011C0000020F64908310860F4480068F4490840F6
:1011D000F2490860F348091D0860F348EF4984317B
:1011E0000860F0481038091D0860EC48006820F4D9
:1011F0008020EA4908600020E8490C310860E7498E
:101200008C31086070470021E44A921C117011462D
:101210000870704710B501460022002300204A11D3
:10122000012A02D1DD4C236808E0022A03D1DB4CFD
:101230007034236802E0D94C7434236801F01F0233
:10124000012494401C400CB1012000E0002010BD9E
:1012500038B5002000900024002500BF3120FFF7A2
:10126000D9FF05460098401C00900098B0F5A04FAB
:1012700001D0002DF2D03120FFF7CCFF08B10124BE
:1012800000E00024204638BD01460020C34A106813
:1012900020F0F80040EAC10010607047C3490860C0
:1012A00070470021BD4A703211701170012802D0C0
:1012B00004280AD104E00121B84A7032117005E017
:1012C0000521B64A7032117000E000BF00BF7047C0
:1012D000B7490860704770B5049C41EA8215012641
:1012E000C6EB530645EA0645054345EA0465AB4EA1
:1012F000361D356070BDAD4908667047820142EA0F
:101300000172A64B84331A607047A84988667047FB
:1013100010B5830143EA016343EA02739F4C8834AA
:10132000236010BDA14908677047A049C864704791
:1013300002460020994B0833186820F0EC6042EA1E
:1013400001031843954B083318607047024600208C
:10135000924B0833186820F0784042EA01031843A2
:101360008E4B083318607047014600208B4A0832C4
:10137000106820F003000843106070478748083069
:10138000006800F00C00704701460020834A0832D4
:10139000106820F0F00008431060704701460020FC
:1013A0007E4A0832106820F4E0500843106070470D
:1013B00001460020794A0832106820F4604040EA73
:1013C000C10010607047F0B5002100220024022502
:1013D00000260223714F08373F6807F00C0121B146
:1013E000042905D0082937D105E0724F076036E09F
:1013F000714F076033E0694F3F1D3F68C7F3805668
:10140000664F3F1D3F6807F03F036EB16A4FB7FB61
:10141000F3F7DFF888C10CF1040CDCF800C0CCF362
:10142000881C07FB0CF40CE0624FB7FBF3F7DFF806
:101430006CC10CF1040CDCF800C0CCF3881C07FB79
:101440000CF4564F3F1D3F68C7F301477F1C7D00DA
:10145000B4FBF5F7076002E0564F076000BF00BF1E
:101460004E4F08373F6807F0F0010909534F7A5C87
:101470000768D7404760494F08373F6807F4E05195
:10148000890A4E4F7A5C4768D7408760434F0837D8
:101490003F6807F46041490B484F7A5C4768D74082
:1014A000C760F0BD002100F44072B2F5407F0AD160
:1014B0003A4A0832116821F4F811414A02401143B6
:1014C000364A08321160354A70321268C0F30B0395
:1014D0001A43324B70331A607047354944390860FB
:1014E0007047334940390860704736490860704793
:1014F00001460020294A8C32106820F01F004A1E45
:101500001043264A8C321060704701460020234A5F
:101510008C32106820F4F8504A1E40EA02201F4A1C
:101520008C3210607047014600201C4A8C321068D3
:1015300020F4401008431060704701460020174A0D
:101540008C32106820F44000084310607047014658
:101550000020124A8C32106820F44030084310609A
:10156000704719490860704739B10C4A3032126827
:1015700002430A4B30331A6006E0084A30321268E0
:101580008243064B30331A607047F9B1034A343254
:1015900012680243014B34331A601CE000380240E9
:1015A000FFFFF6EA10300024003000200000474220
:1015B000800E47420024F40000127A002800002028
:1015C000FFFCFF0F5C014742E01147428F4A12685F
:1015D00082438E4B1A60704739B18C4A121D1268D3
:1015E00002438A4B1B1D1A6006E0884A121D1268CE
:1015F0008243864B1B1D1A60704739B1834A0C32F7
:1016000012680243814B0C331A6006E07F4A0C32A9
:10161000126882437D4B0C331A60704739B17B4AA4
:10162000103212680243794B10331A6006E0774A91
:10163000103212688243754B10331A60704739B10B
:10164000724A243A12680243704B243B1A6006E047
:101650006E4A243A126882436C4B243B1A607047EE
:1016600039B16A4A203A12680243684B203B1A603B
:1016700006E0664A203A12688243644B203B1A60B7
:10168000704739B1614A1C3A126802435F4B1C3BF8
:101690001A6006E05D4A1C3A126882435B4B1C3BB1
:1016A0001A60704739B1594A143A12680243574BCD
:1016B000143B1A6006E0554A143A12688243534BB1
:1016C000143B1A60704739B1504A103A126802430D
:1016D0004E4B103B1A6006E04C4A103A12688243A7
:1016E0004A4B103B1A60704739B1484A1C321268A5
:1016F0000243464B1C331A6006E0444A1C3212680F
:101700008243424B1C331A60704739B13F4A203242
:10171000126802433D4B20331A6006E03B4A2032F8
:1017200012688243394B20331A60704739B1374A07
:10173000243212680243354B24331A6006E0334AE0
:10174000243212688243314B24331A60704739B116
:101750002E4A2C32126802432C4B2C331A6006E0BE
:101760002A4A2C3212688243284B2C331A60704765
:1017700039B1264A303212680243244B30331A60A2
:1017800006E0224A303212688243204B30331A601E
:101790007047012808D11D493C31096841F0080112
:1017A0001A4A3C32116007E018493C31096821F0BF
:1017B0000801164A3C321160704739B1134A273A82
:1017C00012780243114B273B1A7006E00F4A273A62
:1017D000127882430D4B273B1A7070470B484030FC
:1017E000006840F080700949403108607047014648
:1017F0000020064A283A12680A400AB1012000E097
:10180000002070470149263908707047343802407B
:1018100010B50446FE48844208D101210846FFF76E
:1018200052FF00210120FFF74EFF9DE0B4F1804FF1
:1018300008D101210846FFF735FF00210120FFF7FD
:1018400031FF91E0F348844208D101210220FFF7E3
:1018500029FF00210220FFF725FF85E0EE488442A2
:1018600008D101210420FFF71DFF00210420FFF70C
:1018700019FF79E0E948844208D101210820FFF7E7
:1018800011FF00210820FFF70DFF6DE0E4488442BE
:1018900008D101211020FFF705FF00211020FFF7DC
:1018A00001FF61E0DF48844208D101212020FFF7D9
:1018B000F9FE00212020FFF7F5FE55E0DA488442CA
:1018C00008D101210220FFF7FEFE00210220FFF7D0
:1018D000FAFE49E0D548844209D101210804FFF706
:1018E000F2FE00214FF48030FFF7EDFE3CE0D048DF
:1018F000844209D101214804FFF7E5FE00214FF49D
:101900000030FFF7E0FE2FE0CA48844209D10121F0
:101910008804FFF7D8FE00214FF48020FFF7D3FEA4
:1019200022E0C548844208D101214020FFF7BAFED9
:1019300000214020FFF7B6FE16E0C048844208D1DF
:1019400001218020FFF7AEFE00218020FFF7AAFED4
:101950000AE0BB48844207D101218015FFF7A2FEAF
:101960000021A015FFF79EFE10BD00220288A84BA3
:1019700098420ED0AC4B98420BD0B0F1804F08D0BB
:10198000A44B984205D0A44B984202D0A34B984256
:1019900004D14FF68F731A404B881A43A04B9842DC
:1019A00007D0A04B984204D04FF6FF431A400B8952
:1019B0001A4302804B68C3620B880385944B98429C
:1019C00002D0994B984201D18B7A038601238382FE
:1019D00070474FF0FF31416000210180018141805B
:1019E000817270470185828270470A460021018812
:1019F0004FF68F7319401143018070474162704761
:101A0000C16270470146486A70470146088D7047B9
:101A100021B1028842F00202028004E002884FF6FF
:101A2000FD731A400280704721B1028842F004021F
:101A3000028004E002884FF6FB731A400280704770
:101A400021B1028842F08002028004E002884FF651
:101A50007F731A400280704702884FF6F7731A406E
:101A6000028002880A430280704702884FF6FF43D3
:101A70001A40028002880A430280704721B102881E
:101A800042F00102028004E002884FF6FE731A4021
:101A90000280704770B5002400220023058C4FF6A9
:101AA000FE7635400584028C8388048B4FF68F7553
:101AB0002C40B51E2C400D882C43751E2A408D8964
:101AC0002A434D882A43524DA84202D0564DA8427F
:101AD00013D14FF6F7752A40CD892A434FF6FB758F
:101AE0002A408D882A434FF6FF652B404FF6FF555D
:101AF0002B400D8A2B434D8A2B43838004838D68B2
:101B00004563028470BD70B5002400220023058C5B
:101B10004FF6EF7635400584028C8388048B48F6B7
:101B2000FF752C404FF6FF452C400D884FF6FF7691
:101B300006EA05252C434FF6DF752A408D8906EA13
:101B400005152A434D8806EA05152A43304DA8425B
:101B500002D0354DA8421DD14FF67F752A40CD8960
:101B60004FF6FF7606EA05152A434FF6BF752A4061
:101B70008D8806EA05152A434FF6FF352B404FF2B4
:101B8000FF752B400D8A06EA85052B434D8A06EA30
:101B900085052B43838004838D688563028470BD33
:101BA00070B5002400220023058C4FF6FF663540F7
:101BB0000584028C8388848B4FF68F752C404FF6FA
:101BC000FC752C400D882C434FF6FF552A408D891B
:101BD0004FF6FF7606EA05252A434D8806EA0525D5
:101BE0002A430B4DA84202D00F4DA84238D14FF2E4
:101BF000FF752A40CD894FF6FF7606EA05252A4370
:101C00004FF6FF352A408D8806EA05252A4319E05C
:101C1000000001400004004000080040000C0040AB
:101C2000001000400014004000040140004001404A
:101C3000004401400048014000180040001C0040E2
:101C4000002000404EF6FF752B404DF6FF752B40EF
:101C50000D8A06EA05152B434D8A06EA05152B4326
:101C6000838084838D68C563028470BD70B5002253
:101C700000230024058C4EF6FF7635400584038C46
:101C80008488828B48F6FF752A404FF6FF452A402C
:101C90000D884FF6FF7606EA05252A434DF6FF75B7
:101CA0002B408D8906EA05352B434D8806EA05351C
:101CB0002B43FE4DA84202D0FD4DA84208D14BF661
:101CC000FF752C400D8A4FF6FF7606EA85152C43EA
:101CD000848082838D680564038470BD0021018047
:101CE0004180818081608181C18101824182704710
:101CF00070B50346002000241846183001258D4099
:101D0000ACB21D8CA5431D8409B108290AD100EB92
:101D1000610005684FF68F7635400560056815430C
:101D200005600FE00D1FC5F34E052844056848F611
:101D3000FF763540056005684FF6FF7606EA022615
:101D40003543056070BD4163704781637047C1636F
:101D50007047016470470A460021018B4FF68F736C
:101D600019401143018370470A460021018B48F650
:101D7000FF7319404FF6FF7303EA022319430183EF
:101D800070470A460021818B4FF68F73194011432B
:101D9000818370470A460021818B48F6FF73194002
:101DA0004FF6FF7303EA02231943818370470A4603
:101DB0000021018B4FF6F7731940114301837047DF
:101DC0000A460021018B4FF2FF7319404FF6FF7353
:101DD00003EA02231943018370470A460021818BDD
:101DE0004FF6F77319401143818370470A4600216B
:101DF000818B4FF2FF7319404FF6FF7303EA022302
:101E00001943818370470A460021018B4FF6FB730B
:101E100019401143018370470A460021018B4FF698
:101E2000FF3319404FF6FF7303EA0223194301837E
:101E300070470A460021818B4FF6FB73194011430E
:101E4000818370470A460021818B4FF6FF3319408A
:101E50004FF6FF7303EA02231943818370470A4652
:101E60000021018B4FF67F731940114301837047A6
:101E70000A460021018BC1F30E014FF6FF7303EAFE
:101E800002231943018370470A460021818B4FF6D4
:101E90007F7319401143818370470A460021818B6B
:101EA000C1F30E014FF6FF7303EA02231943818346
:101EB00070470A460021018C4FF6FD73194011430B
:101EC000018470470A460021018C4FF6F7731940D0
:101ED0001143018470470A460021018C4FF6DF73DD
:101EE00019404FF6FF7303EA021319430184704748
:101EF0000A460021018C4FF67F7319404FF6FF739D
:101F000003EA02131943018470470A460021018C39
:101F10004FF6FF5319404FF6FF7303EA02231943AC
:101F2000018470470A460021018C4FF2FF7319406B
:101F30004FF6FF7303EA02231943018470470A46F0
:101F40000021018C4DF6FF7319404FF6FF7303EA31
:101F5000023319430184704730B5002301248C40BB
:101F6000A3B2048C9C430484048C02FA01F5ADB244
:101F70002C43048430BD30B5002304248C40A3B22C
:101F8000048C9C430484048C02FA01F5ADB22C430A
:101F9000048430BD828B4FF2FF331A408283828BE0
:101FA0004FF6FF7303EA01231A4382837047F0B5AB
:101FB0000C461546002100220026078C4EF6FF7CB9
:101FC00007EA0C070784818B028C4FF6FF7707EA3C
:101FD000043640F6FF4739404FF6FF7707EA0527FA
:101FE00039434FF6FF7707EA0337394345F6FF7762
:101FF0003A4046F480573A4381830284F0BD828B95
:102000004FF6F3731A408283828B0A4382837047B0
:10201000F0B50C461546002100220026078C4FF62D
:10202000FF6C07EA0C070784818B028C4FF6FF7761
:1020300007EA04264FF60C7739404FF6FF7707EA98
:1020400003172F4339434FF2FF573A4046F4807746
:102050003A4381830284F0BD028B4FF2FF331A4072
:102060000283028B4FF6FF7303EA01231A430283B4
:102070007047F0B50C461546002100220026078C5B
:102080004FF6EF7C07EA0C070784018B028C4FF6B2
:10209000FF7707EA041640F6FF4739404FF6FF770F
:1020A00007EA033739434FF6FF7703E000000140AA
:1020B0000004014007EA052739434FF65F773A40AD
:1020C00046F010073A4301830284F0BD028B4FF6BD
:1020D000F3731A400283028B0A4302837047F0B500
:1020E0000C46154600210022068C4FF6FE773E4036
:1020F0000684018B028C4FF60C7631407E1C06EA7A
:1021000003162E4331434FF6F576324044F0010674
:10211000324301830284F0BD70B505460C46208829
:1021200050B92389A28861882846FFF7D8FFE18843
:102130002846FFF7CBFF25E0208804280AD1238911
:10214000A28861882846FFF794FFE1882846FFF7B8
:1021500083FF17E0208808280AD12389A288618894
:102160002846FFF755FFE1882846FFF748FF09E0BA
:102170002389A28861882846FFF719FFE18828464D
:10218000FFF708FF70BD002101804180012181809F
:102190000021C180018170472DE9F04105460C46C0
:1021A00000260127608808B9022600E00026A088E2
:1021B000012801D1022700E001272088A0B9238946
:1021C000A28861882846FFF78AFFE1882846FFF742
:1021D0007DFF23893A4631462846FFF74AFFE188CA
:1021E0002846FFF739FF13E02389A2886188284633
:1021F000FFF73FFFE1882846FFF72EFF23893A4685
:1022000031462846FFF76BFFE1882846FFF75EFF5F
:10221000BDE8F0810146486B70470146886B704706
:102220000146C86B70470146086C70470A884B88A6
:102230001A438B881A43CB881A430B891A434B895C
:102240001A438B891A43A0F844207047002101806B
:1022500041808180C180018141818181704731B19C
:10226000B0F8442042F40042A0F8442005E0B0F861
:102270004420C2F30E02A0F84420704721B18288A6
:1022800042F00402828004E082884FF6FB731A4019
:102290008280704721B1828842F00102828004E08E
:1022A00082884FF6FE731A40828070471AB1838984
:1022B0000B43838102E083898B4383817047818252
:1022C000704702460020138A0B400BB1012000E04A
:1022D00000207047CA430282704730B50246002092
:1022E00000230024158A05EA0103958905EA010403
:1022F00013B10CB1012000E0002030BDCA430282BE
:10230000704741EA0203A0F8483070471AB1838948
:102310000B43838102E083898B438381704721B122
:10232000828842F00802828004E082884FF6F773C8
:102330001A408280704701894FF6F872114001817E
:1023400070470A46002101894FF68F7319401143E7
:102350000181704730B504460D4629462046FFF7F7
:10236000F0FF208940F00700208130BD2DE9F041C9
:1023700004460D4616461F46602D06D13B460122F7
:1023800031462046FFF775FE05E03B460122314607
:102390002046FFF7A4FE29462046FFF7D2FF2089FA
:1023A00040F007002081BDE8F08130B50C460021E7
:1023B0000189C9B24FF6FF7505EA03251543254388
:1023C0002943018130BD2DE9F04105460E461746EF
:1023D0009846002443463A4631462846FFF7E5FF33
:1023E0002C894FF6F870044044F007044FF68F70C4
:1023F000044044F070042C81BDE8F081F0B504463F
:102400000D4616461F463B46324629462046FFF7F4
:10241000CCFF208940F480402081F0BD82884FF6B7
:102420008F731A40828082880A43828070470289B3
:102430004FF6F8731A40028102890A4302817047FD
:1024400002894FF67F731A40028102890A43028192
:102450007047F0B50C4615461E46002100220023A9
:102460000189028B038C4FF6F877394021434FF6F0
:10247000FC473A4040F201173A434FF6DD773B40C4
:102480004FF6FF7707EA06172F433B43018102838C
:102490000384F0BD21B1828842F08002828004E092
:1024A00082884FF67F731A4082807047A0F85010E0
:1024B0007047000010B50446FA48844208D1012153
:1024C0001020FFF700F900211020FFF7FCF857E07B
:1024D000F548844209D101214804FFF7E3F80021BF
:1024E0004FF40030FFF7DEF84AE0F048844209D1AB
:1024F00001218804FFF7D6F800214FF48020FFF770
:10250000D1F83DE0EA48844209D10121C804FFF72F
:10251000C9F800214FF40020FFF7C4F830E0E54887
:10252000844209D101210805FFF7BCF800214FF4CE
:102530008010FFF7B7F823E0DF48844208D101217B
:102540002020FFF7C0F800212020FFF7BCF817E09B
:10255000DA48844209D101218807FFF7A3F8002156
:102560004FF08040FFF79EF80AE0D548844207D13B
:1025700001214005FFF796F800216005FFF792F86A
:1025800010BD2DE9FF4705460E460024A14600BFB9
:10259000A046B08900B100BF2C8A24F44054F088D2
:1025A00004432C82AC8941F20C608443B0883189A9
:1025B0000843718908430443AC81AC8A24F4407415
:1025C000B0890443AC826846FEF7FDFEB5488542FB
:1025D00002D0B948854202D1DDF80C9001E0DDF867
:1025E0000890A88900F4004040B109EBC90000EB55
:1025F000091031684900B0FBF1F707E009EBC900A9
:1026000000EB091031688900B0FBF1F76420B7FBDB
:10261000F0F004012009642101FB1078A88900F47E
:10262000004040B1322000EBC800B0FBF1F000F0F8
:102630000700044308E0322000EB08106421B0FBDF
:10264000F1F000F00F0004432C81BDE8FF874FF448
:102650001651016000218180C18001810C214181DE
:1026600000218181704710B502460020108A20F4B5
:1026700070600B884C8823438C882343CC88234389
:102680001843108210BD0021018041808180C180EB
:10269000704721B1828942F40052828104E082892C
:1026A0004DF6FF731A4082817047028B02F47F421D
:1026B0000283028B0A430283704721B1828942F46C
:1026C0000042828103E08289C2F30E028281704758
:1026D00021B1828A42F40062828204E0828A4FF24F
:1026E000FF731A4082827047C1F3080282807047EC
:1026F00001468888C0F308007047028A4FF6F073DD
:102700001A400282028A0A430282704721B18289FA
:1027100042F00202828104E082894FF6FD731A4082
:102720008281704782894FF2FF731A4082818289C9
:102730000A4382817047028A4FF6DF731A40028291
:10274000028A0A430282704721B1028A42F480421F
:10275000028204E0028A4BF6FF731A40028270473D
:10276000818941F001018181704721B1828A42F063
:102770000802828204E0828A4FF6F7731A4082824E
:102780007047028BD2B20283028B42EA012202839B
:10279000704721B1828A42F02002828204E0828A5C
:1027A0004FF6DF731A408282704721B1828A42F06D
:1027B0001002828204E0828A4FF6EF731A4082820E
:1027C0007047828A4FF6FB731A408282828A0A43DC
:1027D0008282704721B1828A42F00202828204E042
:1027E000828A4FF6FD731A40828270471AB1838A3B
:1027F0000B43838202E0838A8B4383827047F0B568
:102800000346002400260025002040F66A17B9423E
:1028100000D100BF1846C1F3421401F01F06012782
:1028200007FA06F5012C01D10C3004E0022C01D18D
:10283000103000E014301AB107682F43076002E03F
:102840000768AF430760F0BD02460020B1F5007F86
:1028500000D100BF13880B400BB1012000E0002025
:10286000704701F40072B2F5007F00D100BFCA4387
:102870000280704770B50246002400230025002026
:1028800040F66A16B14200D100BFC1F3421501F013
:102890001F03012606FA03F3012D13D19689334055
:1028A00017E00000001001400044004000480040D4
:1028B000004C0040005000400014014000780040EF
:1028C000007C0040022D02D1168A334001E0968A36
:1028D00033400C12012606FA04F41688344013B172
:1028E0000CB1012000E0002070BD10B500220023D3
:1028F00040F66A14A14200D100BF0A12012494409C
:10290000A3B2DC43048010BD10B504466FF0040090
:10291000FDF7E2FEE11704EB5171C1F3C701394A3B
:1029200011701046007800EB4001C1EBC0104FF66B
:10293000FF7101EAC0003449088010BD0146314AE8
:1029400012784A434FF0E0235A6100229A611A46F6
:10295000126942F001021A6100BF4FF0E0221069D3
:1029600000F001021AB100F48032002AF5D04FF0D5
:10297000E022126922F001024FF0E0231A610022E6
:102980009A6170470146204A12884A434FF0E0237B
:102990005A6100229A611A46126942F001021A61D4
:1029A00000BF4FF0E022106900F001021AB100F4FC
:1029B0008032002AF5D04FF0E022126922F00102A5
:1029C0004FF0E0231A6100229A61704770B5044607
:1029D0004FF4077094FBF0F0C6B24FF4077094FB0D
:1029E000F0F100FB114085B205E04FF40770FFF7EE
:1029F000C9FF701EC6B2002EF7D115B12846FFF7E9
:102A0000C1FF70BD380000203A00002000BF7047B1
:102A100000BF4C4A128802F04002002AF9D0C2B22C
:102A2000484B9A80704710B588B00446012108468B
:102A3000FEF79AFD01211020FEF7F0FD0722092183
:102A40004148FEF77EFB07220A213F48FEF779FB4B
:102A50004FF4C060069002208DF81C008DF81D0018
:102A600000208DF81E0001208DF81F0006A93648B1
:102A7000FEF7DCFA02940020ADF80C00ADF80E0071
:102A8000ADF81000ADF814000C20ADF8120002A94A
:102A90002C48FFF776FD01212A48FFF7FAFD0122B5
:102AA00040F225512748FFF7AAFE25208DF80400A3
:102AB00003208DF805008DF8060001208DF8070031
:102AC00001A8FDF7BCFD08B010BD10B540F22551BE
:102AD0001C48FFF7CFFE10B31A48FFF709FEC4B237
:102AE0001A48008800F40040C8B91848008800F46B
:102AF000804060B10A2C03D000201449088020E0F7
:102B00001248008840F400401049088019E00D2C5C
:102B100006D10E48008840F480400C49088010E03F
:102B20000A480088C0F30D0009490C540748008882
:102B3000401C0649088008460088C72801DD00209F
:102B4000088010BD0010014000000240400000203D
:102B5000F000002000B587B001218804FEF74DFD8C
:102B600001210420FEF700FD01212C48FFF791FD13
:102B70004FF4E13003900020ADF81000ADF81200E2
:102B8000ADF814000C20ADF816000020ADF81800C8
:102B900003A92248FFF7F5FC012240F225511F4806
:102BA000FFF72DFE07220A211D48FEF7CAFA072269
:102BB0000B211B48FEF7C5FA4FF44060019002203C
:102BC0008DF8080003208DF8090001208DF80B0016
:102BD00000208DF80A0001A91148FEF727FA2720E6
:102BE0008DF8000003208DF8010002208DF802000E
:102BF00001208DF803006846FDF721FD07B000BDF8
:102C000010B540F225510548FFF734FE20B10348C6
:102C1000FFF76EFD0349086010BD70470048004093
:102C2000000802404400002010B5022001F0B8FD69
:102C300078280ADA022001F0B3FD3C2805DD0120E6
:102C4000F84908600020F8490860022001F0A8FD5A
:102C5000F0280ADA022001F0A3FD962805DD002005
:102C6000F04908600120F049086010BD10B5EF4838
:102C7000006809287ED2DFE800F0051343658DAFB8
:102C8000D0F3EE0009E002F088F8E848006820B1CF
:102C90000021084601F079FB00E0F4E700BF27E1DE
:102CA0000021084601F071FBC820FFF78FFE02F0FB
:102CB0006EFCDF480068352807D102F0BCF94FF4FC
:102CC0009671084601F061FB19E016E0D9480168E9
:102CD000D948006801F059FB002001F061FDD74997
:102CE0000968884206DB012001F05AFDD3490968D2
:102CF000884202DA02F01DF800E0E7E700BFF7E0E3
:102D000002F045FC1BE06FF06301642001F03DFB25
:102D1000002001F045FDC949096888420ADB01200D
:102D200001F03EFDC5490968884203DBBF480068E1
:102D3000012804D10021084601F027FB00E0E2E76A
:102D400000BFD5E002F023FC1DE06FF063016420BA
:102D500001F01BFB002001F023FDB84909688842FF
:102D60000CDB012001F01CFDB4490968884205DB39
:102D7000AE4800E0B6E00068012804D10021084612
:102D800001F003FB00E0E0E700BF0021084601F08E
:102D9000FCFAADE002F0FBFB1BE06FF06301642086
:102DA00001F0F3FA002001F0FBFCA4490968884215
:102DB0000ADB012001F0F4FCA0490968884203DB2A
:102DC0009A480068012804D10021084601F0DDFA84
:102DD00000E0E2E700BF8BE002F0D9FB1AE06421DB
:102DE000484201F0D2FA002001F0DAFC9349096868
:102DF00088420ADB012001F0D3FC9049096888422F
:102E000003DB8A480068012804D10021084601F04C
:102E1000BCFA00E0E3E700BF6AE002F0B8FB1CE0A8
:102E20006421484201F0B1FA002001F0B9FC834965
:102E3000096888420ADB012001F0B2FC7F49096879
:102E4000884203DB79480068012806D10021084642
:102E500001F09BFA02E024E002E0E1E700BF47E076
:102E600002F095FB1AE06421484201F08EFA00203E
:102E700001F096FC7149096888420ADB012001F0E3
:102E80008FFC6E490968884203DB684800680128A6
:102E900004D10021084601F078FA00E0E3E700BF22
:102EA00026E002F074FB1AE06421484201F06DFA5A
:102EB000002001F075FC6149096888420ADB0120A5
:102EC00001F06EFC5D490968884203DB57480068E1
:102ED000012804D10021084601F057FA00E0E3E799
:102EE00000BF05E04FF4C871084601F04EFA00BF7C
:102EF00000BF10BD70B58AB0052001F051FC0090F4
:102F0000062001F04DFC0190072001F049FC0290E1
:102F1000082001F045FC0390092001F041FC0490D9
:102F20000A2001F03DFC05900B2001F039FC0690D1
:102F30000C2001F035FC07900D2001F031FC0890C9
:102F40000E2001F02DFC0990009D0026012008E0D4
:102F50005DF82010A94202DD5DF820500646741D80
:102F6000401C0A28F4DB20460AB070BD10B50C20C6
:102F700001F016FCB0F5FA6F0EDD02F055FF0A20E5
:102F8000FFF724FD0C2001F00BFCB0F5FA6F05DD16
:102F900002F04EFF012010BD0020FCE700BFFAE761
:102FA00010B5002400F0B7FCA6E025A20121002006
:102FB00000F0B7FD25A20121022000F0B2FD26A2FB
:102FC0000121042000F0ADFD25A20121062000F022
:102FD000A8FD002002F0A0FE0446012C1CD102F046
:102FE000D6FA0DE02049484201F0CFF902F0DAFAB2
:102FF000B0F5FA7F04DD0021084601F0C6F900E0D3
:10300000F0E700BF002002F087FE0446042C73D1D5
:1030100000F081FC002470E0022C42D102F0B7FAEB
:1030200033E000006000002064000020A0000020C9
:1030300044000020C8000020C400002050000020F0
:10304000CBB3CAB1D5EB393000000000C4E6CAB139
:10305000D5EB393000000000D6B1D0D031C3EB0041
:10306000B7B5BBD800000000D4FEFFFF4FF4967147
:10307000084601F08AF902F095FAB0F57A7F04DD8E
:103080000021084601F081F900E0EFE700BF0020D1
:1030900002F042FE0446042C2ED100F03CFC002439
:1030A0002BE0032C1DD102F072FA0EE04FF4967162
:1030B000484201F06AF902F075FAB0F5FA7F04DDD2
:1030C0000021084601F061F900E0EFE700BF0020B1
:1030D00002F022FE0446042C0ED100F01CFC002459
:1030E0000BE0042C08D1002002F016FE044600F08C
:1030F00012FC002401E0FFE757E700BF10BD70B5E8
:10310000002400F008FC31E1F6A20121002000F0CB
:1031100008FDF7A20121022000F003FDF8A2012121
:10312000042000F0FEFCF9A20121062000F0F9FCC9
:10313000002002F0F1FD0446012C51D100F0EBFB20
:103140004CE0F44800780A2190FBF1F201FB1200F8
:1031500060BB002001F024FB05462A461A2100200E
:1031600000F0FAFE012001F01BFB05462A4646212D
:10317000002000F0F1FE022001F08FFE05462A46F5
:103180001A21022000F0E8FE032001F086FE054629
:103190002A464621022000F0DFFE042001F07DFED9
:1031A00005462A461A21042000F0D6FE0A20FFF721
:1031B0000DFCD8480078401CD649087008460078B5
:1031C000142801D100200870002002F0A5FD04465B
:1031D000042C03D100F09FFB002400E0B1E7C5E020
:1031E000032C30D100F097FB2BE0CBA20121002073
:1031F00000F097FCC74800780A2190FBF1F201FB30
:10320000120030B9C848008882B24621062000F07A
:10321000A3FE0A20FFF7DAFBBE480078401CBD4938
:10322000087008460078142801D10020087000209A
:1032300002F072FD0446042C03D100F06CFB002464
:1032400000E0D2E792E0022C7ED100F064FB85E042
:10325000B04800780A2190FBF1F201FB120000282F
:1032600062D1052001F019FE05462A4600210846D4
:1032700000F072FE062001F010FE05462A462821C5
:10328000002000F069FE072001F007FE05462A46EF
:103290005021002000F060FE082001F0FEFD0546F0
:1032A0002A460021022000F057FE092001F0F5FD1A
:1032B00005462A462821022000F04EFE0A2001F091
:1032C000ECFD05462A465021022000F045FE0B2069
:1032D00001F0E3FD05462A460021042000F03CFEF3
:1032E0000C2001F0DAFD05462A462821042000F0D2
:1032F00033FE0D2001F0D1FD05462A465021042061
:1033000000F02AFE0E2001F0C8FD05462A460021E5
:10331000062000F021FE0F2001F0BFFD05462A46E1
:103320002821062000F018FE0A20FFF74FFB7948FD
:103330000078401C7749087008460078142801D1AD
:1033400000200870002000E00AE002F0E5FC0446DE
:10335000042C03D100F0DFFA002400E078E705E058
:10336000042C03D1002400F0D6FA00E0CCE600BF24
:1033700070BD10B56DA20121022000F0D2FB01F05A
:1033800077FB02F051FD4FF49670FFF71FFB01F041
:103390006FFB02F04DFD00F0BEFA10BD70B50025C8
:1033A000052407E0E0B201F0FBF9B0F5966F00DD0F
:1033B0006D1C641C0F2CF5DB284670BD70B5052014
:1033C00001F0EEF9B0F5967F14DA062001F0E8F985
:1033D000B0F5967F0EDA082001F0E2F904460720E6
:1033E00001F0DEF90546214601F04CFB502801DAD8
:1033F000012070BD0020FCE710B54F48008832283E
:103400001EDD4D480088B0F5967F19DA4B480088DC
:10341000322815DD49480088B0F5967F10DA484813
:10342000008832280CDD46480088B0F5967F07DA20
:10343000FFF7B4FF022803DD01204249086002E0E3
:1034400000204049086000F066FA10BD70B53D48A4
:103450000068012845D1082001F0A2F904460720A0
:1034600001F09EF90546214601F00CFB502877DA61
:103470000F2001F095F9B0F5967F71DA092001F07F
:103480008FF9B0F57A7F6BDA0A2001F089F9B0F58F
:103490007A7F65DA062001F083F90446052001F001
:1034A0007FF90546214601F0EDFA502858DA26A2A8
:1034B0000121042000F035FB02F069F84BE04FF4E5
:1034C000AF71084600F061FF02F06CF8B0F5FA7FCA
:1034D00041DD0021084600F058FF6420FFF776FA2E
:1034E0003AE03CE1312EBBD2B6C8BCECB2E20000FF
:1034F000322EC9E3CFF1CDB7BCECB2E20000000040
:10350000332EBEE0C0EBBCECB2E20000342EB7B507
:10351000BBD800005C000020C9E3CFF1CDB7BCEC04
:10352000B2E2D6D02E2E2E004400002020202020F3
:1035300077656C636F6D6500D0000020D2000020BD
:10354000D400002054000020CEB2B2BFB6D4C6EBE7
:103550000000000004E0B2E700BF01F0FDFA46E021
:1035600002F015F841E06421484200F00EFF082007
:1035700001F016F90446072001F012F9054621462C
:1035800001F080FA502826DA0F2001F009F9B0F591
:10359000967F20DA092001F003F9B0F57A7F1ADA74
:1035A0000A2001F0FDF8B0F57A7F14DA062001F068
:1035B000F7F80446052001F0F3F80546214601F02E
:1035C00061FA502807DA0021084600F0DEFE642088
:1035D000FFF7FCF90AE001F0E5FF40F6B831884258
:1035E00003DD01209B49086000E0BCE700BF99486B
:1035F0000068C8B901F0CBFF11E04FF4AF71084685
:1036000000F0C3FE01F0CEFFB0F5FA7F07DD002128
:10361000084600F0BAFE6420FFF7D8F900E0ECE7B6
:1036200000BF01F099FA9AE001F0B1FF1CE06421BB
:10363000484200F0AAFEFFF7C1FE012807D1002191
:10364000084600F0A2FE6420FFF7C0F90DE001F08B
:10365000A9FFB0F57A6F07DD0021084600F095FE5E
:103660006420FFF7B3F900E0E1E700BF4FF4FA711F
:10367000084600F08AFE4FF47A70FFF7A7F90021A0
:10368000084600F082FE6420FFF7A0F901F07FFFFA
:103690004AE06421484200F078FE082001F080F8FA
:1036A0000446072001F07CF80546214601F0EAF9BE
:1036B00050282CDA0F2001F073F8B0F5967F26DA47
:1036C000092001F06DF8B0F57A7F20DA0A2001F0C8
:1036D00067F8B0F57A7F1ADA062001F061F804463F
:1036E000052001F05DF80546214601F0CBF9502890
:1036F0000DDAAFF2AC120121042000F012FA002121
:10370000084600F042FE6420FFF760F90DE001F08A
:1037100049FFB0F57A6F07DD0021084600F035FE5D
:103720006420FFF753F900E0B3E700BF01F02FFF7B
:1037300011E04FF4AF71084600F027FE01F032FFB0
:10374000B0F5FA7F07DD0021084600F01EFE642078
:10375000FFF73CF900E0ECE700BF01F0FDF93E485F
:10376000006802282FD101F012FF2AE03B490846E9
:1037700000F00BFE3A480088322822DD38480088E5
:10378000B0F5967F1DDA37480088322819DD3548B4
:103790000088B0F5967F14DA33480088322810DDAF
:1037A00031480088B0F5967F0BDAFFF7F7FD022865
:1037B00007DD0021084600F0E8FD6420FFF706F968
:1037C00000E0D3E700BF2448006803283BD138E07D
:1037D0002249084600F0D9FD21480088322822DD20
:1037E0001F480088B0F5967F1DDA1E4800883228F1
:1037F00019DD1C480088B0F5967F14DA1A48008855
:10380000322810DD18480088B0F5967F0BDAFFF7F4
:10381000C5FD022807DD0021084600F0B6FD642042
:10382000FFF7D4F80EE001F0BDFE41F28831884286
:1038300007DD0021084600F0A8FD6420FFF7C6F868
:1038400000E0C5E700BF00200249086002490860A7
:1038500070BD000058000020540000203EFEFFFF15
:10386000D0000020D2000020D400002070B5044613
:103870000E4626B10821FE48FDF754FC03E008215E
:10388000FB48FDF751FC0421F948FDF74DFC0025EC
:1038900016E01021F648FDF747FC04F0800020B147
:1038A0002021F348FDF73EFC03E02021F048FDF71E
:1038B0003BFC1021EE48FDF735FC6400681CC5B2E6
:1038C000082DE6DB0821EA48FDF72CFC70BD10B599
:1038D00004461CB90021A620FFF7C8FF012C03D124
:1038E0000021A720FFF7C2FF10BD10B504463CB968
:1038F0000021C820FFF7BAFF0021A120FFF7B6FF83
:10390000012C07D10021C020FFF7B0FF0021A0202B
:10391000FFF7ACFF10BD70B5002418E004F1B00053
:103920000021FFF7A3FF00211020FFF79FFF0021D8
:103930000846FFF79BFF002505E001210020FFF767
:1039400095FF681CC5B2802DF7DB601CC4B2082C43
:10395000E4DB70BD70B504460D4605F1B0000021F2
:10396000FFF784FF102141EA14100021FFF77EFFCA
:1039700004F00F000021FFF779FF70BD70B5044619
:10398000002510E029460020FFF7E4FF002606E0AE
:1039900020780121FFF76AFF641C701CC6B2802EDC
:1039A000F6DB681CC5B2082DECDB70BD2DE9F041DB
:1039B00006460C4615464FF0000813E0E1B2F0B29F
:1039C000FFF7C8FF002706E028780121FFF74EFF28
:1039D0006D1C781CC7B2102FF6DB641C08F10100C7
:1039E00000F0FF08B8F1020FE8DBBDE8F0812DE937
:1039F000F04180460C461546002711E0E1B24046F2
:103A0000FFF7A8FF002606E028780121FFF72EFF28
:103A10006D1C701CC6B2082EF6DB641C781CC7B285
:103A2000022FEBDBBDE8F0812DE9F04107460D46A2
:103A30001446E9B23846FFF78DFF002606E02078ED
:103A40000121FFF713FF641C701CC6B2062EF6DBC3
:103A5000BDE8F08170B50446002517E004F0800051
:103A600020B120218248FDF75DFB03E02021804842
:103A7000FDF75AFB6006040E10217D48FDF754FB4C
:103A800010217B48FDF74EFB681CC5B2082DE5DB15
:103A900070BD70B506460024002512E01021744860
:103AA000FDF742FB6006040E02217148FDF720FB82
:103AB00008B1601CC4B210216D48FDF733FB681CCF
:103AC000C5B2082DEADB204670BD2DE9F0478046DF
:103AD0000D4616461F46DDF8209004216448FDF788
:103AE00021FB01216248FDF71FFB0320FFF7B2FF16
:103AF0004046FFF7AFFF2846FFF7ACFF3046FFF721
:103B0000A9FF002405E02046FFF7C3FF3855601CDD
:103B1000C4B24C45F7DB01215548FDF703FBBDE876
:103B2000F0872DE9F0478EB007460E461546002473
:103B3000AFE0285DB02837DB285DF72834DC601C57
:103B4000285CA12830DB285DB0385E2110FB01F035
:103B500048490860601C285C00F2AD2009680844F0
:103B6000444908600846006840010860084600684B
:103B7000C0F3074808460088C0F30729084690F8B4
:103B800000A0202006AB5246494600904046FFF771
:103B90009CFF06AA39463046FFF708FF06F11000E1
:103BA000C6B2A01CC4B274E0285DA12836DB285D33
:103BB000A32833DC601C285CA1282FDB285DA138FA
:103BC0005E2110FB01F02B490860601C285CA138C5
:103BD00009680844274908600846006840010860F1
:103BE00008460068C0F3074808460088C0F3072964
:103BF000084690F800A0202006AB524649460090A7
:103C00004046FFF762FF06AA39463046FFF7CEFE70
:103C100006F11000C6B2A01CC4B23AE0285D20280C
:103C200035DB285D7E2832DC285D203811490860AC
:103C30000846006800010860084600680E4908440C
:103C40000C49086008460068C0F307480846008829
:103C5000C0F30729084690F800A0102002AB524696
:103C6000494600904046FFF730FF02AA394605E07A
:103C7000001002406800002080CF03003046FFF7AC
:103C8000B6FE06F10800C6B2601CC4B201E0601CBA
:103C9000C4B2285D00283FF74CAF0EB0BDE8F087F6
:103CA0002DE9FE4F07460E461546002432E0285DFA
:103CB00020282DDB285D7E282ADC285D2038CD4990
:103CC000086008460068C000086008460068CA49E5
:103CD0000844C849086008460068C0F30748084619
:103CE0000088C0F30729084690F800A0082001AB1F
:103CF0005246494600904046FFF7E7FE01AA394682
:103D00003046FFF791FEB01DC6B2601CC4B201E0A0
:103D1000601CC4B2285D0028C9DCBDE8FE8F2DE917
:103D2000F0472DED028B04468946B0EE408A1546D9
:103D300004EBC5000830C4B29FEDB00A28EE000ABB
:103D4000BCEEC00A10EE108AA4F11801C8B2ACA2F1
:103D50004946FFF7E6FE002656E00A20B8FBF0F1E0
:103D600000FB1187B8FBF0F8A4F10800C4B2022EE2
:103D700002D1A4F10800C4B20A2F42D2DFE807F052
:103D8000050B11171D23292F353B9EA249462046BE
:103D9000FFF7C7FE35E09CA249462046FFF7C1FE6B
:103DA0002FE09AA249462046FFF7BBFE29E098A2E1
:103DB00049462046FFF7B5FE23E096A24946204635
:103DC000FFF7AFFE1DE094A249462046FFF7A9FE8B
:103DD00017E092A249462046FFF7A3FE11E090A209
:103DE00049462046FFF79DFE0BE08EA2494620463D
:103DF000FFF797FE05E08CA249462046FFF791FEAB
:103E000000BF00BF701CC6B2AE42A6DBBDEC028B89
:103E1000BDE8F0871CB501211020FDF7A5FB3F2070
:103E2000009001208DF8040000208DF8060003208A
:103E30008DF8050001208DF8070069467B48FDF7E5
:103E4000F5F80220009000208DF804008DF806009F
:103E500003208DF8050001208DF80700694673489E
:103E6000FDF7E4F83F217148FDF75CF9C820FEF743
:103E7000ADFD0021AE20FFF7F9FC00210846FFF759
:103E8000F5FC00211020FFF7F1FC00214020FFF796
:103E9000EDFC00218120FFF7E9FC0021CF20FFF796
:103EA000E5FC0021A120FFF7E1FC0021C820FFF77D
:103EB000DDFC0021A620FFF7D9FC0021A820FFF798
:103EC000D5FC00213F20FFF7D1FC0021D320FFF7D4
:103ED000CDFC00210846FFF7C9FC0021D520FFF7E3
:103EE000C5FC00218020FFF7C1FC0021D920FFF78D
:103EF000BDFC0021F120FFF7B9FC0021DA20FFF71B
:103F0000B5FC00211220FFF7B1FC0021DB20FFF7F8
:103F1000ADFC00214020FFF7A9FC00212020FFF785
:103F2000A5FC00210220FFF7A1FC00218D20FFF756
:103F30009DFC00211420FFF799FC0021A420FFF72D
:103F400095FC0021A620FFF791FC0021AF20FFF790
:103F50008DFCFFF7E0FC1CBD7CB505460E46144603
:103F60004FF47A7094FBF0F03030C0B28DF800005E
:103F70004FF47A7094FBF0F100FB1140642190FB48
:103F8000F1F03030C0B28DF80100642094FBF0F104
:103F900000FB11400A2190FBF1F03030C0B28DF8E7
:103FA00002000A2094FBF0F100FB11403030C0B257
:103FB0008DF8030000208DF804006A46314628463B
:103FC000FFF7AFFD7CBDF8B505460E4614460A2046
:103FD00094FBF0F100FB11403030C0B28DF80000CE
:103FE00000208DF801006A4631462846FFF799FD0A
:103FF000F8BD000068000020C0BF03000000C842F8
:104000002E000000300000003100000032000000EF
:1040100033000000340000003500000036000000CE
:104020003700000038000000390000000010024096
:1040300030B58BB004460D4601210220FDF7DDFAB4
:1040400002220621FD48FDF77CF802220721FB48E9
:10405000FDF777F802220821F848FDF772F80222EE
:104060000921F648FDF76DF84FF4707009900220B1
:104070008DF8280003208DF8290000208DF82A00F3
:1040800001208DF82B0009A9EC48FCF7CFFFA8B25E
:10409000ADF818000020ADF81A000794ADF8200024
:1040A00006A9E748FDF761FC6020ADF80400012097
:1040B000ADF806000020ADF8100001A9E048FDF7BA
:1040C000E9FC6020ADF804000120ADF806000020F6
:1040D000ADF8100001A9DA48FDF715FD6020ADF834
:1040E00004000120ADF806000020ADF8100001A981
:1040F000D348FDF755FD6020ADF804000120ADF870
:1041000006000020ADF8100001A9CD48FDF7AEFD76
:104110000821CB48FDF74BFE0821C948FDF750FEAA
:104120000821C748FDF759FE0821C548FDF75EFE86
:104130000121C348FDF784FC0121C148FDF79EFC25
:104140000BB030BD30B58BB004460D4601210420C4
:10415000FDF753FA02220C21BA48FCF7F2FF0222C3
:104160000D21B848FCF7EDFF02220E21B548FCF7FF
:10417000E8FF02220F21B348FCF7E3FF4FF4704041
:10418000099002208DF8280003208DF829000020D6
:104190008DF82A0001208DF82B0009A9A948FCF709
:1041A00045FFA8B2ADF818000020ADF81A0007943A
:1041B000ADF8200006A9A448FDF7D7FB6020ADF8B4
:1041C00004000120ADF806000020ADF8100001A9A0
:1041D0009D48FDF75FFC6020ADF804000120ADF8BC
:1041E00006000020ADF8100001A99748FDF78BFCF0
:1041F0006020ADF804000120ADF806000020ADF805
:10420000100001A99048FDF7CBFC6020ADF8040038
:104210000120ADF806000020ADF8100001A98A4881
:10422000FDF724FD08218848FDF7C1FD08218648D7
:10423000FDF7C6FD08218448FDF7CFFD082182481F
:10424000FDF7D4FD01218048FDF7FAFB01217E48EE
:10425000FDF714FC0BB030BD10B50446012C04D1A1
:1042600001217948FDF70AFC04E01CB900217648D9
:10427000FDF704FC10BD10B5532140F2E730FFF705
:10428000D7FE532140F2E730FFF75CFF0120FFF734
:10429000E3FF10BD70B505460C46B4F5E17F01DDC6
:1042A0004FF4E17414F5E17F00DA684C9DB9002CFD
:1042B00008DB21466448FDF746FD00216248FDF712
:1042C00044FD49E061426048FDF73FFD00215E4842
:1042D000FDF739FD40E0012D13D1002C08DB21460C
:1042E0005948FDF734FD00215748FDF732FD33E012
:1042F00061425548FDF72DFD00215348FDF727FD8C
:104300002AE0022D13D1002C08DB21464C48FDF792
:104310001AFD00214A48FDF718FD1DE0614248489A
:10432000FDF713FD00214648FDF70DFD14E0032DB8
:1043300012D1002C08DB21464148FDF708FD002181
:104340003F48FDF706FD07E061423D48FDF701FDEE
:1043500000213B48FDF7FBFC70BD2DE9F041044610
:104360000F4615461E4621460020FFF793FF3946AB
:104370000120FFF78FFF29460220FFF78BFF314610
:104380000320FFF787FFBDE8F08170B504460D46B6
:104390004AE02F480068201A002805DD2C480068F4
:1043A00019302B4908600DE029480068201A05D50E
:1043B0002748006819382649086003E02448006847
:1043C0002349086023480068281A002805DD214891
:1043D000006819301F4908600DE01E480068281A5F
:1043E00005D51C48006819381A49086003E01948C7
:1043F000006818490860164801680020FFF74AFF66
:104400001348006841420120FFF744FF114800684B
:1044100041420220FFF73EFF0E4801680320FFF7EC
:1044200039FF0A20FEF7D2FA09480068A042B0D14D
:1044300008480068A842ACD170BD000000080240E6
:1044400000040040000C0240000800403EFEFFFF58
:10445000740000207800002010B500231A46194689
:104460001846FFF77AFF10BD10B5044634B1012C91
:1044700009D0022C0CD0032C14D10EE000210846E8
:10448000FFF708FF0EE000210120FFF703FF09E01E
:1044900000210220FFF7FEFE04E000210320FFF7C9
:1044A000F9FE00BF00BF10BD70B505460C46012DDA
:1044B00023D0022D17D0032D0BD0042D27D104EBD0
:1044C000440000EB0410C0F57B611248FDF73BFC93
:1044D0001DE004EB440000EB0410C0F57B610D48C7
:1044E000FDF733FC13E004EB440000EB0410C0F5CF
:1044F0007B610848FDF72BFC09E004EB440000EB6E
:104500000410C0F57B610348FDF723FC00BF00BF2A
:1045100070BD00000008004000B59BB00121880577
:10452000FDF722F83F20199003208DF86800002045
:104530008DF86B0019A9F848FCF778FDFF20199059
:1045400003208DF8680000208DF86B0019A9F3484E
:10455000FCF76CFD032019908DF8680000208DF8A1
:104560006B0019A9EE48FCF761FD01210802FDF777
:10457000AAF800214FF48070FDF7A5F8E948FCF790
:10458000FBFA00200090E8480190E84802900020E3
:10459000039010200490002005904FF48060069056
:1045A00040000790800008904011099040020A9056
:1045B00000200B9001200C9000200D900E90694679
:1045C000D848FCF77BFB0121D648FCF7B1FB012161
:1045D0000802FDF723F801210802FDF774F8002115
:1045E0004FF48070FDF76FF8FCF794F800201590F9
:1045F00017904FF4803016900020189015A8FCF703
:10460000C3F800200F9001208DF840008DF8410084
:1046100000201190139010208DF850000FA9C2486F
:104620004C38FCF782F8032301220021BE484C38A5
:10463000FCF701F9032302220121BB484C38FCF7A7
:10464000FAF803231A460221B7484C38FCF7F3F86E
:10465000032304221946B4484C38FCF7ECF8032332
:1046600005220421B0484C38FCF7E5F80323062264
:104670000521AD484C38FCF7DEF80323072206215C
:10468000A9484C38FCF7D7F8032308220721A6488D
:104690004C38FCF7D0F8032309220821A2484C38F3
:1046A000FCF7C9F803230A2209219F484C38FCF77C
:1046B000C2F803230B220A219B484C38FCF7BBF8B5
:1046C00003230C220B2198484C38FCF7B4F8032341
:1046D0000D220C2194484C38FCF7ADF803230E2230
:1046E0000D2191484C38FCF7A6F803230F220E2128
:1046F0008D484C38FCF79FF8032310220F218A487D
:104700004C38FCF798F8012187484C38FCF73EF903
:10471000012185484C38FCF72EF9012182484C389C
:10472000FCF749F880484C38FCF7E1F81BB000BDB5
:1047300070B52DED088B04467D4830F814007D4996
:1047400021F81400084630F81460784830F8145006
:10475000304601F08EFC41EC1B0B9FED770B53ECC8
:10476000102B01F099FC41EC190B284601F081FC5B
:1047700041EC1B0B9FED720B53EC102B01F08CFCEA
:1047800041EC1A0B53EC192B01F09EFB41EC180B7A
:1047900001F042FC664921F81400BDEC088B70BDA5
:1047A00070B504460025102C29D2DFE804F0080A71
:1047B0000C0E10121416181A1C1E202224260A256C
:1047C0001DE00B251BE00C2519E00D2517E0002549
:1047D00015E0012513E0022511E003250FE0042573
:1047E0000DE005250BE0062509E0072507E00E256D
:1047F00005E00F2503E0082501E0092500BF00BF03
:104800002846FFF795FF4A4830F8150070BD01466D
:1048100000201A2915D2DFE801F00D151D262F14EE
:1048200038414A535C656E779DA5AEB6BFC8D0D8F7
:10483000E1EAF5FE444A1268012A01D1012000E0B4
:104840000020F1E0414A1268012A01D1012000E074
:104850000020E9E03D4A121D1268012A01D1012021
:1048600000E00020E0E0394A08321268012A01D154
:10487000012000E00020D7E0344A0C321268012AFF
:1048800001D1012000E00020CEE0304A143212684D
:10489000012A01D1012000E00020C5E02B4A183296
:1048A0001268012A01D1012000E00020BCE0274A63
:1048B0001C321268012A01D1012000E00020B3E07F
:1048C000224A20321268012A01D1012000E0002092
:1048D000AAE01D4A20321268012A01D1012000E01D
:1048E0000020A1E0184A24321268012A01D10120D7
:1048F00000E0002098E0144A28321268012A01D111
:10490000012000E000208FE00F4A2C321268012ABB
:104910001ED101201DE000000008024000000240FE
:1049200000040240106402404C200140B801002005
:10493000D8010020F8010020333333333333E33F11
:104940009A9999999999D93F088240421C0242420A
:10495000002069E0354A1268012A01D1012000E0F7
:10496000002061E0314A121D1268012A01D10120A4
:1049700000E0002058E02E4A1268012A01D10120EF
:1049800000E0002050E02A4A121D1268012A01D1DD
:10499000012000E0002047E0254A08321268012A81
:1049A00001D1012000E000203EE0224A1268012AE5
:1049B00001D1012000E0002036E01F4A1268012AE0
:1049C00001D1012000E000202EE0194A203A1268AF
:1049D000012A01D1012000E0002025E0144A1C3A00
:1049E0001268012A01D1012000E000201CE0104AD9
:1049F000183A1268012A03D1012002E00BE001E01D
:104A0000002011E00A4A143A1268012A01D101205B
:104A100000E0002008E0064A103A1268012A01D19D
:104A2000012000E0002000BF00BF704738824042F4
:104A3000208241423C024042300241421CB54FF4C8
:104A40000060009001208DF8040000208DF8060021
:104A500003208DF8050001208DF8070069460848FD
:104A6000FCF7E4FA4FF400610548FCF75BFB1CBD62
:104A700010B500F0B4FD10BD10B500F0B6FD10BDCE
:104A8000000C02400246501A01D4501A7047881A8E
:104A9000FCE710B50FE00920FFF782FEB0F5966F36
:104AA00009DD0A20FDF792FF0920FFF779FEB0F536
:104AB000966F00DD00E0EEE700BF10BD10B500F01E
:104AC00066FD0DE0AF214842FFF75FFC00F06AFD94
:104AD000B0F5D77F04DD00210846FFF756FC00E063
:104AE000F0E700BF10BD10B5FEF715FFFCA20521D1
:104AF0000220FFF716F84FF47A70FDF767FFFEF714
:104B00000AFFFAA205210220FFF70BF8FA4908462E
:104B1000FFF73BFC4FF49660FDF758FF0021084675
:104B2000FFF733FC6420FDF751FFFFF7C7FF10BD0F
:104B300010B500F02CFD0CE0AF214842FFF725FC3A
:104B400000F030FDDC2804DD00210846FFF71DFCE5
:104B500000E0F1E700BF10BD10B5FEF7DCFEE6494E
:104B60000846FFF712FC4FF47A70FDF72FFF002183
:104B70000846FFF70AFC6420FDF728FFFFF7D8FF7F
:104B800010BD10B5FEF7C7FEDCA205210220FEF71E
:104B9000C8FF00242CE000F0FAFC00F003FDC82858
:104BA00004DAD54932390846FFF7EFFB0021084601
:104BB000FFF7EBFB6420FDF709FF0FE04FF4FA71FC
:104BC0000846FFF7E2FB0020FFF7EAFD322804DB8E
:104BD0000120FFF7E5FD322800DA00E0EEE700BF34
:104BE00000210846FFF7D1FB6420FDF7EFFE641CAF
:104BF000062CD0DB10BD10B514E0C2A205210220A6
:104C0000FEF78FFF4FF4E1710846FFF7BEFB00206F
:104C1000FFF7C6FD322804DB0120FFF7C1FD322873
:104C200000DA00E0E9E700BF00210846FFF7ADFB2E
:104C30006420FDF7CBFE002431E0B0A20521022064
:104C4000FEF76FFF00F0A3FC00F0ACFCC82804DA0C
:104C5000A94932390846FFF798FB00210846FFF7BB
:104C600094FB6420FDF7B2FE0FE04FF4FA710846A2
:104C7000FFF78BFB0020FFF793FD322804DB0120B8
:104C8000FFF78EFD322800DA00E0EEE700BF0021DA
:104C90000846FFF77AFB6420FDF798FE641C062C9B
:104CA000CBDB00F074FC00F07DFCC82804DA9249EC
:104CB00032390846FFF769FB10BD10B500F067FCFC
:104CC00009E0AF214842FFF760FB00F06BFCB0F554
:104CD000C87F00DD00E0F4E700BF10BD10B500F0B4
:104CE00056FC0DE084490846FFF74FFB00F05AFCE4
:104CF000B0F5FA7F04DD00210846FFF746FB00E02F
:104D0000F0E700BF10BD10B500F041FC0EE07A499D
:104D100032314842FFF739FB00F044FCB0F5D77F51
:104D200004DD00210846FFF730FB00E0EFE700BF9D
:104D300010BD10B575480088B0F5617F0ADD744874
:104D40000088B0F5617F05DD4FF496710846FFF7E6
:104D50001CFB21E06D480088B0F5617F09DA6C48E2
:104D60000088B0F5617F04DDFFF7B8FFFFF7CBFFE8
:104D700012E066480088B0F5617F09DD644800886C
:104D8000B0F5617F04DAFFF7A9FFFFF797FE03E0B4
:104D9000FFF7A4FFFFF791FF10BD10B55D48006855
:104DA00030B1012814D0022825D003285FD136E085
:104DB0000BE0C8210846FFF7E8FA5648006820B122
:104DC00000210846FFF7E1FA00E0F2E700BF62E0E9
:104DD00000F0DDFB0CE0C8214842FFF7D6FA00F0F6
:104DE000E1FBC82804DD00210846FFF7CEFA00E009
:104DF000F1E700BF4FE000F0CAFB0DE06FF0C70124
:104E0000C820FFF7C2FA00F0CDFBC82804DD00215E
:104E10000846FFF7BAFA00E0F0E700BF3BE000F019
:104E2000B6FB0EE0344996310846FFF7AEFA00F0C3
:104E3000B9FBB0F5C87F04DD00210846FFF7A5FAED
:104E400000E0EFE700BF00F0A2FB0DE02A49963139
:104E50004842FFF79AFA00F0A5FBE62804DD00219E
:104E60000846FFF792FA00E0F0E700BF13E000F019
:104E70008EFB0DE06FF0C7010846FFF786FA0020B1
:104E80002449086020B100210846FFF77EFA00E0BF
:104E9000F0E700BF00BF00BF10BD2DE9F0410446A0
:104EA0000525002604E0E0B2FFF77AFC0744761CF3
:104EB000AE42F8DB97FBF5F080B2BDE8F081FEB5BD
:104EC0000220FFF7EAFF00900320FFF7E6FF0190C2
:104ED0000420FFF7E2FF0290009D0024012024E05F
:104EE0005374616E6420427900000000B3F5CABCBF
:104EF000C9CFCCA8000000003EFEFFFFB2B9B5B696
:104F0000D6D00000B9A5BBF7D6D00000CC00002059
:104F1000CE000020AC0000205DF82010A94202DA8B
:104F20005DF820500446A61C401C0328F4DB2046F4
:104F3000FEBD3EB50220FFF7B0FF00900320FFF753
:104F4000ACFF01900420FFF7A8FF0290009C002511
:104F5000012007E05DF82010A14202DA5DF8204050
:104F60000546401C0328F5DB20463EBDFEB5022069
:104F7000FFF793FF00900320FFF78FFF01900420BD
:104F8000FFF78BFF0290009D0026012008E05DF8EE
:104F90002010A94202DD5DF820500646B41C401CDA
:104FA0000328F4DB2046FEBD3EB50220FFF775FF67
:104FB00000900320FFF771FF01900420FFF76DFFC1
:104FC0000290009C0025012007E05DF82010A1421E
:104FD00002DD5DF820400546401C0328F5DB204635
:104FE0003EBD10B500F0D3FA0EE04FF4C87108468C
:104FF000FFF7CBF900F0D6FAB0F5C87F04DD002149
:105000000846FFF7C2F900E0EFE700BF10BD10B59A
:1050100000F0BDFA0CE0C1490846FFF7B6F900F010
:10502000C1FAC82804DD00210846FFF7AEF900E008
:10503000F1E700BF10BD10B500F0A9FA0EE06FF067
:10504000AE01AF20FFF7A1F900F0ACFAB0F5917F07
:1050500004DD00210846FFF798F900E0EFE700BF04
:1050600010BD10B500F093FA0DE0AF214842FFF7F4
:105070008CF900F097FAB0F5917F04DD0021084625
:10508000FFF783F900E0F0E700BF10BD10B500F0B6
:105090007EFA0DE06FF0AE01AF20FFF776F900F079
:1050A00081FADC2804DD00210846FFF76EF900E0F4
:1050B000F0E700BF10BD10B500F069FA0FE06FF027
:1050C000AE01AF20FFF761F900F06CFA40F26631F3
:1050D000884204DD00210846FFF757F900E0EEE7BB
:1050E00000BF10BD10B500F052FA12E08C490968FB
:1050F000C1F164008A4909684942FFF746F900F0A6
:1051000051FAB0F5967F04DD00210846FFF73DF91E
:1051100000E0EBE700BF824801680068FFF735F95F
:105120000020FFF73DFBB0F5617F05DB0120FFF7B5
:1051300037FBB0F5617F01DAFFF7FBFD00F027FADE
:1051400010E0774800684142754800684042FFF728
:105150001CF900F027FAC82804DD00210846FFF7F3
:1051600014F900E0EDE700BF6D4801680068FFF743
:105170000CF90020FFF714FBB0F5617F05DB01207F
:10518000FFF70EFBB0F5617F01DAFFF7D2FD00F00B
:10519000FEF912E062480068C0F1640160480068EE
:1051A0004042FFF7F2F800F0FDF9B0F5967F04DD1C
:1051B00000210846FFF7E9F800E0EBE700BF584898
:1051C00001680068FFF7E1F80020FFF7E9FAB0F5A1
:1051D000617F05DB0120FFF7E3FAB0F5617F01DABB
:1051E000FFF7A7FD10BD70B595E00620FFF7D8FAD0
:1051F00004460520FFF7D4FA05462146FFF742FC96
:10520000502804DA464801680068FFF7BEF8062017
:10521000FFF7C6FA04460520FFF7C2FA0546214605
:10522000FFF730FC502869DD0520FFF7B9FA044686
:105230000620FFF7B5FA84422BDD002039490860CB
:105240001AE03848006836490968884203DD344866
:10525000006834490860324A1268324B1B68D11822
:105260002F4A12682F4B1B68D01AFFF78EF82D4873
:10527000006864302B4908600620FFF791FA044665
:105280000520FFF78DFA05462146FFF7FBFB502866
:10529000D7DB0520FFF784FA04460620FFF780FAE3
:1052A00084422BDA00201F4908601AE01C4A126869
:1052B0001C4B1B68D11A1A4A12681A4B1B68D0186B
:1052C000FFF763F81748006815490968884203DD4D
:1052D0001348006813490860124800686430114997
:1052E00008600620FFF75CFA04460520FFF758FA2D
:1052F00005462146FFF7C6FB5028D7DB0020FFF705
:105300004FFA3C2804DB0120FFF74AFA3C2802DA76
:10531000FFF70FFD00E068E700BF70BD70FEFFFF04
:105320004C0000208000002010B50120FFF738FA63
:10533000FB49496888420ADA0020FFF731FAF84948
:105340000968884203DD0120F649086026E0002054
:10535000FFF726FAF249096888420ADA0120FFF7C6
:105360001FFAEF494968884203DD0220ED490860D1
:1053700014E00020FFF714FAE949096888420ADAC4
:105380000120FFF70DFAE6494968884203DA032055
:10539000E449086002E00020E249086010BD10B551
:1053A000E1480188E1480088FFF76CFB50281ADAD1
:1053B000DF480188DF480088FFF764FB502812DAD5
:1053C000DD480088B0F5967F0DDADC480088B0F53E
:1053D000967F04DBDA480088B0F5967F03DA012077
:1053E000D849086002E00020D649086010BDD148C5
:1053F0000088B0F5966F08DDCD480088B0F5966F4F
:1054000003DD0120D049086002E00020CE49086099
:10541000704710B5C4480188C4480088FFF732FBC4
:10542000502819DAC2480188C2480088FFF72AFBD1
:10543000502811DAC0480088B0F5967F0CDAC048D1
:105440000088B0F5967F07DABC480088B0F5967FF3
:1054500002DD0120BD490860B3480188B3480088D7
:10546000FFF710FB502819DAB1480188B1480088CD
:10547000FFF708FB502811DAAF480088B0F5967F97
:105480000CDAAE480088B0F5967F07DAAC480088A1
:10549000B0F5967F02DD0220AC490860A248018881
:1054A000A2480088FFF7EEFA50281ADAA0480188CF
:1054B000A0480088FFF7E6FA502812DA9E480088D4
:1054C000B0F5967F0DDA9E480088B0F5967F08DA31
:1054D0009A480088B0F5967F03DA03209B4908605C
:1054E00002E000209949086010BD7FB505460C46D2
:1054F00001210846FCF781F80295ADF80440002030
:10550000ADF80600ADF80C0001A94FF08040FCF7A3
:105510002CFA012211469007FCF7C8FE1C208DF8DA
:10552000000001208DF801008DF802008DF80300C5
:105530006846FBF784F87FBD7FB505460C46012120
:105540000820FCF75AF80295ADF804400020ADF8A9
:105550000600ADF80C0001A97D48FCF706FA01220F
:1055600011467B48FCF7A2FE01217948FCF786FA38
:1055700032208DF8000002208DF8010001208DF806
:1055800002008DF803006846FBF759F87FBD10B59F
:105590000020704908807049088001218807FCF7C5
:1055A0006DFA10BD6B48008870476B4800887047E3
:1055B00068480088684909884FF47A7202FB010044
:1055C00080B2704710B500214FF08040FCF756FACA
:1055D00010BD00205F4908805F49088070470120A6
:1055E0005E4908705E490860704700205B4908709A
:1055F0005B490860704710B500205A4908805A4935
:10560000088001215248FCF739FA10BD554800883E
:1056100070475548008870475248008852490988A9
:105620004FF47A7202FB010080B2704710B500217E
:105630004748FCF723FA10BD00204A4908804A4930
:105640000880704710B501218807FCF746FE012845
:105650000ED140480088401C3E490880084600881A
:10566000B0F57A7F04D13C480088401C3A49088054
:1056700001218807FCF742FE10BD10B5024642BB6F
:105680000023002400210CE0384830F811003228B3
:1056900006DD364830F81100B0F5967F00DA5B1C65
:1056A000491C0529F0DB0020014607E02F4830F8AF
:1056B0001100322800DA641C481C01460529F5DB7C
:1056C000052B01D1012010BD052C01D10220FAE7E4
:1056D00000BF012A53D10023002400210CE02448FC
:1056E00030F81100322806DD214830F81100B0F5FD
:1056F000967F00DA5B1C491C0529F0DB002001467F
:1057000007E01B4830F81100322800DA641C481CFE
:1057100001460529F5DB052B2CD10120D3E700003C
:10572000B0000020AC000020DC000020DA000020E7
:10573000D8000020D6000020EA000020DE00002073
:10574000E0000020940000209C0000209800002031
:10575000000C004084000020860000208C00002007
:10576000AC824142880000208A00002038020020DC
:1057700042020020052C01D10220A4E700BF022A2A
:1057800028D10024002300210CE0FA4830F8110051
:10579000322806DDF74830F81100B0F5967F00DAC0
:1057A000641C491C0529F0DB0020014607E0F14894
:1057B00030F81100322800DA5B1C481C014605292C
:1057C000F5DB052C01D101207DE7052B01D102205D
:1057D00079E700BF032A28D10023002400210CE030
:1057E000E54830F81100322806DDE34830F81100B2
:1057F000B0F5967F00DA5B1C491C0529F0DB002020
:10580000014607E0DC4830F81100322800DA641C59
:10581000481C01460529F5DB052B01D1012052E783
:10582000052C01D102204EE700BF042A28D1002315
:10583000002400210CE0D14830F81100322806DDA8
:10584000CE4830F81100B0F5967F00DA5B1C491C99
:105850000529F0DB0020014607E0C84830F81100B8
:10586000322800DA641C481C01460529F5DB052BAB
:1058700001D1012027E7052C01D1022023E700BF39
:1058800000BF20E770B58AB00121BD48FCF725FDB7
:1058900001287DD10020BB4908600DE0B949087896
:1058A000FEF77EFFB849B74A126821F81200B548E2
:1058B0000068401CB3490860B24800681028EDDB5E
:1058C000B1480088B1490880AF484088B049088095
:1058D000AD488088AF490880AB48C088AE49088091
:1058E000A9480089AD4908800020A64908602EE03B
:1058F000AB49A4480068401C31F81010A848A14AE0
:10590000126820F81210A7499E480068401C31F820
:1059100010009C4A126821F81200964999480068C4
:10592000401C31F81000974A126821F81200924981
:1059300094480068401C31F810108F48914A126852
:1059400020F812108F480068401C8E4908608D486E
:1059500000680528CCDB8C480088914908818A487A
:105960004088904908818848808882490881864813
:10597000C08881490881844800898049088182481B
:10598000408989490880804880898849088000E0EA
:1059900071E17D48C089864908807B48008A854935
:1059A00008807948408A844908807748808A8349FA
:1059B00008807548C08A824908807348008B8149F5
:1059C00008807148408B804908806F48808B7F49F0
:1059D00008806D48C08B7E49088071480089322854
:1059E00013DA7048008932280FDA624800893228B9
:1059F0000BDA61480089322807DA604800893228CA
:105A000003DA00210846FEF7C0FCFDF7F5FC05208F
:105A1000FEF7C6FE00900620FEF7C2FE01900720AA
:105A2000FEF7BEFE02900820FEF7BAFE03900920A2
:105A3000FEF7B6FE04900A20FEF7B2FE05900B209A
:105A4000FEF7AEFE06900C20FEF7AAFE07900D2092
:105A5000FEF7A6FE08900E20FEF7A2FE0990009C1D
:105A60000025012008E05DF82010A14202DD5DF86C
:105A7000204005466E1D401C0A28F4DB701F0B28D1
:105A800077D2DFE800F006142231404F5D6CAFBEE4
:105A9000CC00B4F5487F06DD01204E4908600020A7
:105AA0004D49086002E000204A490860CAE0B4F5A8
:105AB000487F06DD0120474908600020464908600C
:105AC00002E0002043490860BCE0B4F5487F07DDF0
:105AD0000520404908606FF063003F49086002E01C
